{
  "_format": "hh-sol-artifact-1",
  "contractName": "SMBPOST",
  "sourceName": "contracts/SMBPOST.sol",
  "abi": [
    {
      "inputs": [
        {
          "internalType": "string[]",
          "name": "_posTypes",
          "type": "string[]"
        },
        {
          "internalType": "string[]",
          "name": "_posNames",
          "type": "string[]"
        },
        {
          "internalType": "string",
          "name": "_orderID",
          "type": "string"
        }
      ],
      "name": "addOrderWay",
      "outputs": [
        {
          "internalType": "bool",
          "name": "",
          "type": "bool"
        }
      ],
      "stateMutability": "payable",
      "type": "function"
    },
    {
      "inputs": [
        {
          "internalType": "string",
          "name": "_orderID",
          "type": "string"
        },
        {
          "internalType": "string",
          "name": "_canceledDate",
          "type": "string"
        },
        {
          "internalType": "string",
          "name": "_reason",
          "type": "string"
        }
      ],
      "name": "cancelAnOrder",
      "outputs": [
        {
          "internalType": "bool",
          "name": "",
          "type": "bool"
        }
      ],
      "stateMutability": "payable",
      "type": "function"
    },
    {
      "inputs": [
        {
          "internalType": "string",
          "name": "_email",
          "type": "string"
        },
        {
          "internalType": "string",
          "name": "_phoneNumber",
          "type": "string"
        }
      ],
      "name": "createCustomer",
      "outputs": [
        {
          "internalType": "bool",
          "name": "",
          "type": "bool"
        }
      ],
      "stateMutability": "payable",
      "type": "function"
    },
    {
      "inputs": [
        {
          "internalType": "string",
          "name": "_orderID",
          "type": "string"
        },
        {
          "internalType": "string",
          "name": "_shippingCenterEmail",
          "type": "string"
        },
        {
          "internalType": "string",
          "name": "_senderPhone",
          "type": "string"
        },
        {
          "internalType": "string",
          "name": "_receiverPhone",
          "type": "string"
        },
        {
          "internalType": "string",
          "name": "_note",
          "type": "string"
        },
        {
          "internalType": "string",
          "name": "_imageURL",
          "type": "string"
        },
        {
          "internalType": "string",
          "name": "_requestDate",
          "type": "string"
        }
      ],
      "name": "createOrder",
      "outputs": [
        {
          "internalType": "bool",
          "name": "",
          "type": "bool"
        }
      ],
      "stateMutability": "payable",
      "type": "function"
    },
    {
      "inputs": [
        {
          "internalType": "string",
          "name": "_email",
          "type": "string"
        }
      ],
      "name": "createShippingCenter",
      "outputs": [
        {
          "internalType": "bool",
          "name": "",
          "type": "bool"
        }
      ],
      "stateMutability": "payable",
      "type": "function"
    },
    {
      "inputs": [
        {
          "internalType": "string",
          "name": "_email",
          "type": "string"
        }
      ],
      "name": "createStorehouse",
      "outputs": [
        {
          "internalType": "bool",
          "name": "",
          "type": "bool"
        }
      ],
      "stateMutability": "payable",
      "type": "function"
    },
    {
      "inputs": [],
      "name": "getAllOrders",
      "outputs": [
        {
          "components": [
            {
              "internalType": "string",
              "name": "senderPhone",
              "type": "string"
            },
            {
              "internalType": "string",
              "name": "receiverPhone",
              "type": "string"
            },
            {
              "internalType": "string",
              "name": "note",
              "type": "string"
            },
            {
              "internalType": "string",
              "name": "imageURL",
              "type": "string"
            },
            {
              "internalType": "enum SMBPOST.OrderStatus",
              "name": "status",
              "type": "uint8"
            },
            {
              "components": [
                {
                  "internalType": "string",
                  "name": "posName",
                  "type": "string"
                },
                {
                  "internalType": "string",
                  "name": "posType",
                  "type": "string"
                }
              ],
              "internalType": "struct SMBPOST.OrderWay[]",
              "name": "ways",
              "type": "tuple[]"
            },
            {
              "components": [
                {
                  "internalType": "uint256",
                  "name": "timestamp",
                  "type": "uint256"
                },
                {
                  "internalType": "string",
                  "name": "date",
                  "type": "string"
                },
                {
                  "internalType": "string",
                  "name": "action",
                  "type": "string"
                },
                {
                  "internalType": "string",
                  "name": "detail",
                  "type": "string"
                },
                {
                  "internalType": "string",
                  "name": "posEmail",
                  "type": "string"
                }
              ],
              "internalType": "struct SMBPOST.HistoryOrder[]",
              "name": "histories",
              "type": "tuple[]"
            }
          ],
          "internalType": "struct SMBPOST.Order[]",
          "name": "",
          "type": "tuple[]"
        },
        {
          "internalType": "string[]",
          "name": "",
          "type": "string[]"
        }
      ],
      "stateMutability": "view",
      "type": "function"
    },
    {
      "inputs": [
        {
          "internalType": "string",
          "name": "_customerEmail",
          "type": "string"
        }
      ],
      "name": "getCustomerDetail",
      "outputs": [
        {
          "internalType": "string",
          "name": "",
          "type": "string"
        }
      ],
      "stateMutability": "view",
      "type": "function"
    },
    {
      "inputs": [
        {
          "internalType": "string",
          "name": "_email",
          "type": "string"
        }
      ],
      "name": "getOrderByEmail",
      "outputs": [
        {
          "components": [
            {
              "internalType": "string",
              "name": "senderPhone",
              "type": "string"
            },
            {
              "internalType": "string",
              "name": "receiverPhone",
              "type": "string"
            },
            {
              "internalType": "string",
              "name": "note",
              "type": "string"
            },
            {
              "internalType": "string",
              "name": "imageURL",
              "type": "string"
            },
            {
              "internalType": "enum SMBPOST.OrderStatus",
              "name": "status",
              "type": "uint8"
            },
            {
              "components": [
                {
                  "internalType": "string",
                  "name": "posName",
                  "type": "string"
                },
                {
                  "internalType": "string",
                  "name": "posType",
                  "type": "string"
                }
              ],
              "internalType": "struct SMBPOST.OrderWay[]",
              "name": "ways",
              "type": "tuple[]"
            },
            {
              "components": [
                {
                  "internalType": "uint256",
                  "name": "timestamp",
                  "type": "uint256"
                },
                {
                  "internalType": "string",
                  "name": "date",
                  "type": "string"
                },
                {
                  "internalType": "string",
                  "name": "action",
                  "type": "string"
                },
                {
                  "internalType": "string",
                  "name": "detail",
                  "type": "string"
                },
                {
                  "internalType": "string",
                  "name": "posEmail",
                  "type": "string"
                }
              ],
              "internalType": "struct SMBPOST.HistoryOrder[]",
              "name": "histories",
              "type": "tuple[]"
            }
          ],
          "internalType": "struct SMBPOST.Order[]",
          "name": "",
          "type": "tuple[]"
        },
        {
          "internalType": "string[]",
          "name": "",
          "type": "string[]"
        }
      ],
      "stateMutability": "view",
      "type": "function"
    },
    {
      "inputs": [
        {
          "internalType": "string",
          "name": "_orderID",
          "type": "string"
        }
      ],
      "name": "getOrderDetail",
      "outputs": [
        {
          "internalType": "string",
          "name": "",
          "type": "string"
        },
        {
          "internalType": "string",
          "name": "",
          "type": "string"
        },
        {
          "internalType": "string",
          "name": "",
          "type": "string"
        },
        {
          "internalType": "string",
          "name": "",
          "type": "string"
        },
        {
          "components": [
            {
              "internalType": "string",
              "name": "posName",
              "type": "string"
            },
            {
              "internalType": "string",
              "name": "posType",
              "type": "string"
            }
          ],
          "internalType": "struct SMBPOST.OrderWay[]",
          "name": "",
          "type": "tuple[]"
        },
        {
          "components": [
            {
              "internalType": "uint256",
              "name": "timestamp",
              "type": "uint256"
            },
            {
              "internalType": "string",
              "name": "date",
              "type": "string"
            },
            {
              "internalType": "string",
              "name": "action",
              "type": "string"
            },
            {
              "internalType": "string",
              "name": "detail",
              "type": "string"
            },
            {
              "internalType": "string",
              "name": "posEmail",
              "type": "string"
            }
          ],
          "internalType": "struct SMBPOST.HistoryOrder[]",
          "name": "",
          "type": "tuple[]"
        }
      ],
      "stateMutability": "view",
      "type": "function"
    },
    {
      "inputs": [
        {
          "internalType": "string",
          "name": "_shippingCenterEmail",
          "type": "string"
        }
      ],
      "name": "getShippingCenterDetail",
      "outputs": [
        {
          "internalType": "string",
          "name": "",
          "type": "string"
        }
      ],
      "stateMutability": "view",
      "type": "function"
    },
    {
      "inputs": [
        {
          "internalType": "string",
          "name": "_storehouseEmail",
          "type": "string"
        }
      ],
      "name": "getStorehouseDetail",
      "outputs": [
        {
          "internalType": "string",
          "name": "",
          "type": "string"
        }
      ],
      "stateMutability": "view",
      "type": "function"
    },
    {
      "inputs": [
        {
          "internalType": "string",
          "name": "_orderID",
          "type": "string"
        }
      ],
      "name": "orderExists",
      "outputs": [
        {
          "internalType": "bool",
          "name": "",
          "type": "bool"
        }
      ],
      "stateMutability": "payable",
      "type": "function"
    },
    {
      "inputs": [
        {
          "internalType": "string",
          "name": "_email",
          "type": "string"
        }
      ],
      "name": "removeCustomer",
      "outputs": [
        {
          "internalType": "bool",
          "name": "",
          "type": "bool"
        }
      ],
      "stateMutability": "payable",
      "type": "function"
    },
    {
      "inputs": [
        {
          "internalType": "string",
          "name": "_email",
          "type": "string"
        }
      ],
      "name": "removeShoppingCenter",
      "outputs": [
        {
          "internalType": "bool",
          "name": "",
          "type": "bool"
        }
      ],
      "stateMutability": "payable",
      "type": "function"
    },
    {
      "inputs": [
        {
          "internalType": "string",
          "name": "_email",
          "type": "string"
        }
      ],
      "name": "removeStorehouse",
      "outputs": [
        {
          "internalType": "bool",
          "name": "",
          "type": "bool"
        }
      ],
      "stateMutability": "payable",
      "type": "function"
    },
    {
      "inputs": [
        {
          "internalType": "string",
          "name": "_orderID",
          "type": "string"
        },
        {
          "internalType": "string",
          "name": "_customerEmail",
          "type": "string"
        },
        {
          "internalType": "string",
          "name": "_transferDate",
          "type": "string"
        }
      ],
      "name": "transferToCustomer",
      "outputs": [
        {
          "internalType": "bool",
          "name": "",
          "type": "bool"
        }
      ],
      "stateMutability": "payable",
      "type": "function"
    },
    {
      "inputs": [
        {
          "internalType": "string",
          "name": "_orderID",
          "type": "string"
        },
        {
          "internalType": "string",
          "name": "_shippingCenterEmail",
          "type": "string"
        },
        {
          "internalType": "string",
          "name": "_transferDate",
          "type": "string"
        }
      ],
      "name": "transferToShippingCenter",
      "outputs": [
        {
          "internalType": "bool",
          "name": "",
          "type": "bool"
        }
      ],
      "stateMutability": "payable",
      "type": "function"
    },
    {
      "inputs": [
        {
          "internalType": "string",
          "name": "_orderID",
          "type": "string"
        },
        {
          "internalType": "string",
          "name": "_storehouseEmail",
          "type": "string"
        },
        {
          "internalType": "string",
          "name": "_transferDate",
          "type": "string"
        }
      ],
      "name": "transferToStorehouse",
      "outputs": [
        {
          "internalType": "bool",
          "name": "",
          "type": "bool"
        }
      ],
      "stateMutability": "payable",
      "type": "function"
    },
    {
      "stateMutability": "payable",
      "type": "receive"
    }
  ],
  "bytecode": "0x608060405234801561001057600080fd5b50615e0780620000216000396000f3fe6080604052600436106101185760003560e01c806379055d25116100a0578063bc26ec5311610064578063bc26ec53146103fa578063c43fe7c414610437578063e462b44d14610467578063ee95444b14610497578063fc55ea9d146104c75761011f565b806379055d25146102ef5780637bea0d1c146103315780639759e7f71461035d578063a959d5851461038d578063b0cf9965146103bd5761011f565b8063552c8b22116100e7578063552c8b22146101f15780635e8b2da91461022157806364cf36d4146102515780636b5493721461028f57806373277d0a146102bf5761011f565b806306655b94146101245780631215f025146101545780632bedf18d1461018457806334717eae146101c15761011f565b3661011f57005b600080fd5b61013e6004803603810190610139919061428e565b6104f7565b60405161014b91906142f2565b60405180910390f35b61016e6004803603810190610169919061428e565b610600565b60405161017b91906142f2565b60405180910390f35b34801561019057600080fd5b506101ab60048036038101906101a6919061428e565b6106ab565b6040516101b8919061438c565b60405180910390f35b6101db60048036038101906101d691906143ae565b61075e565b6040516101e891906142f2565b60405180910390f35b61020b60048036038101906102069190614514565b610ccd565b60405161021891906142f2565b60405180910390f35b61023b60048036038101906102369190614514565b610f0c565b60405161024891906142f2565b60405180910390f35b34801561025d57600080fd5b506102786004803603810190610273919061428e565b611165565b604051610286929190614b2b565b60405180910390f35b6102a960048036038101906102a49190614514565b6120b6565b6040516102b691906142f2565b60405180910390f35b6102d960048036038101906102d49190614514565b612322565b6040516102e691906142f2565b60405180910390f35b3480156102fb57600080fd5b506103166004803603810190610311919061428e565b612561565b60405161032896959493929190614c6e565b60405180910390f35b34801561033d57600080fd5b50610346612c9d565b604051610354929190614b2b565b60405180910390f35b6103776004803603810190610372919061428e565b61351c565b60405161038491906142f2565b60405180910390f35b6103a760048036038101906103a2919061428e565b613625565b6040516103b491906142f2565b60405180910390f35b3480156103c957600080fd5b506103e460048036038101906103df919061428e565b61365e565b6040516103f1919061438c565b60405180910390f35b34801561040657600080fd5b50610421600480360381019061041c919061428e565b613711565b60405161042e919061438c565b60405180910390f35b610451600480360381019061044c9190614cf9565b6137c4565b60405161045e91906142f2565b60405180910390f35b610481600480360381019061047c9190614e57565b613a1e565b60405161048e91906142f2565b60405180910390f35b6104b160048036038101906104ac919061428e565b613b22565b6040516104be91906142f2565b60405180910390f35b6104e160048036038101906104dc919061428e565b613bcd565b6040516104ee91906142f2565b60405180910390f35b60008082511161053c576040517f08c379a000000000000000000000000000000000000000000000000000000000815260040161053390614f4a565b60405180910390fd5b600060018360405161054e9190614fa6565b9081526020016040518091039020600001805461056a90614fec565b905011156105ad576040517f08c379a00000000000000000000000000000000000000000000000000000000081526004016105a490615069565b60405180910390fd5b6105b5613d7c565b828160000181905250806001846040516105cf9190614fa6565b908152602001604051809103902060008201518160000190816105f29190615235565b509050506001915050919050565b6000806001836040516106139190614fa6565b9081526020016040518091039020600001805461062f90614fec565b905011610671576040517f08c379a000000000000000000000000000000000000000000000000000000000815260040161066890615353565b60405180910390fd5b6001826040516106819190614fa6565b9081526020016040518091039020600080820160006106a09190613d8f565b505060019050919050565b60606001826040516106bd9190614fa6565b908152602001604051809103902060000180546106d990614fec565b80601f016020809104026020016040519081016040528092919081815260200182805461070590614fec565b80156107525780601f1061072757610100808354040283529160200191610752565b820191906000526020600020905b81548152906001019060200180831161073557829003601f168201915b50505050509050919050565b6000806003876040516107719190614fa6565b9081526020016040518091039020600001805461078d90614fec565b9050116107cf576040517f08c379a00000000000000000000000000000000000000000000000000000000081526004016107c6906153bf565b60405180910390fd5b60006003866040516107e19190614fa6565b908152602001604051809103902060000180546107fd90614fec565b90501161083f576040517f08c379a0000000000000000000000000000000000000000000000000000000008152600401610836906153bf565b60405180910390fd5b6000885111610883576040517f08c379a000000000000000000000000000000000000000000000000000000000815260040161087a9061542b565b60405180910390fd5b61088c88613625565b156108cc576040517f08c379a00000000000000000000000000000000000000000000000000000000081526004016108c3906154bd565b60405180910390fd5b600080896040516108dd9190614fa6565b90815260200160405180910390209050868160000190816108fe9190615235565b50858160010190816109109190615235565b50838160030190816109229190615235565b50848160020190816109349190615235565b5061093d613dcf565b6040518060400160405280600e81526020017f5368697070696e6743656e746572000000000000000000000000000000000000815250816020018190525060018960405161098b9190614fa6565b908152602001604051809103902060000180546109a790614fec565b80601f01602080910402602001604051908101604052809291908181526020018280546109d390614fec565b8015610a205780601f106109f557610100808354040283529160200191610a20565b820191906000526020600020905b815481529060010190602001808311610a0357829003601f168201915b50505050508160000181905250816005018190806001815401808255809150506001900390600052602060002090600202016000909190919091506000820151816000019081610a709190615235565b506020820151816001019081610a869190615235565b505050610a91613de9565b428160000181815250506040518060400160405280600981526020017f5265717565737465640000000000000000000000000000000000000000000000815250816040018190525089604051602001610aea9190615529565b604051602081830303815290604052816060018190525089816080018190525084816020018190525082600601819080600181540180825580915050600190039060005260206000209060050201600090919091909150600082015181600001556020820151816001019081610b609190615235565b506040820151816002019081610b769190615235565b506060820151816003019081610b8c9190615235565b506080820151816004019081610ba29190615235565b5050508260008c604051610bb69190614fa6565b908152602001604051809103902060008201816000019081610bd89190615561565b5060018201816001019081610bed9190615561565b5060028201816002019081610c029190615561565b5060038201816003019081610c179190615561565b506004820160009054906101000a900460ff168160040160006101000a81548160ff02191690836002811115610c5057610c4f614631565b5b02179055506005820181600501908054610c6b929190613e18565b506006820181600601908054610c82929190613e9a565b5090505060048b908060018154018082558091505060019003906000526020600020016000909190919091509081610cba9190615235565b5060019350505050979650505050505050565b600080600085604051610ce09190614fa6565b90815260200160405180910390209050610cf985613625565b610d38576040517f08c379a0000000000000000000000000000000000000000000000000000000008152600401610d2f90615695565b60405180910390fd5b6000600185604051610d4a9190614fa6565b90815260200160405180910390206000018054610d6690614fec565b905011610da8576040517f08c379a0000000000000000000000000000000000000000000000000000000008152600401610d9f90615701565b60405180910390fd5b6000835111610dec576040517f08c379a0000000000000000000000000000000000000000000000000000000008152600401610de39061576d565b60405180910390fd5b610df4613de9565b428160000181815250508381602001819052506040518060400160405280601781526020017f4d6f766520746f207368697070696e672063656e746572000000000000000000815250816040018190525084604051602001610e569190615529565b604051602081830303815290604052816060018190525081600601819080600181540180825580915050600190039060005260206000209060050201600090919091909150600082015181600001556020820151816001019081610eba9190615235565b506040820151816002019081610ed09190615235565b506060820151816003019081610ee69190615235565b506080820151816004019081610efc9190615235565b5050506001925050509392505050565b600080600085604051610f1f9190614fa6565b90815260200160405180910390209050610f3885613625565b610f77576040517f08c379a0000000000000000000000000000000000000000000000000000000008152600401610f6e90615695565b60405180910390fd5b600280811115610f8a57610f89614631565b5b8160040160009054906101000a900460ff166002811115610fae57610fad614631565b5b03610fee576040517f08c379a0000000000000000000000000000000000000000000000000000000008152600401610fe5906157d9565b60405180910390fd5b6001600281111561100257611001614631565b5b8160040160009054906101000a900460ff16600281111561102657611025614631565b5b03611066576040517f08c379a000000000000000000000000000000000000000000000000000000000815260040161105d906157d9565b60405180910390fd5b60008451116110aa576040517f08c379a00000000000000000000000000000000000000000000000000000000081526004016110a190615845565b60405180910390fd5b60028160040160006101000a81548160ff021916908360028111156110d2576110d1614631565b5b02179055506110df613de9565b428160000181815250508481602001819052506040518060400160405280600881526020017f43616e63656c656400000000000000000000000000000000000000000000000081525081604001819052508360405160200161114191906158b1565b60405160208183030381529060405281606001819052506001925050509392505050565b6060806000805b6004805490508110156115235760006004828154811061118f5761118e6158d3565b5b9060005260206000200180546111a490614fec565b80601f01602080910402602001604051908101604052809291908181526020018280546111d090614fec565b801561121d5780601f106111f25761010080835404028352916020019161121d565b820191906000526020600020905b81548152906001019060200180831161120057829003601f168201915b50505050509050600080826040516112359190614fa6565b9081526020016040518091039020600601805480602002602001604051908101604052809291908181526020016000905b828210156114ea57838290600052602060002090600502016040518060a0016040529081600082015481526020016001820180546112a390614fec565b80601f01602080910402602001604051908101604052809291908181526020018280546112cf90614fec565b801561131c5780601f106112f15761010080835404028352916020019161131c565b820191906000526020600020905b8154815290600101906020018083116112ff57829003601f168201915b5050505050815260200160028201805461133590614fec565b80601f016020809104026020016040519081016040528092919081815260200182805461136190614fec565b80156113ae5780601f10611383576101008083540402835291602001916113ae565b820191906000526020600020905b81548152906001019060200180831161139157829003601f168201915b505050505081526020016003820180546113c790614fec565b80601f01602080910402602001604051908101604052809291908181526020018280546113f390614fec565b80156114405780601f1061141557610100808354040283529160200191611440565b820191906000526020600020905b81548152906001019060200180831161142357829003601f168201915b5050505050815260200160048201805461145990614fec565b80601f016020809104026020016040519081016040528092919081815260200182805461148590614fec565b80156114d25780601f106114a7576101008083540402835291602001916114d2565b820191906000526020600020905b8154815290600101906020018083116114b557829003601f168201915b50505050508152505081526020019060010190611266565b5050505090506114fa8188613cbc565b1561150e57838061150a90615931565b9450505b5050808061151b90615931565b91505061116c565b5060008167ffffffffffffffff8111156115405761153f614163565b5b60405190808252806020026020018201604052801561157957816020015b611566613f50565b81526020019060019003908161155e5790505b50905060008267ffffffffffffffff81111561159857611597614163565b5b6040519080825280602002602001820160405280156115cb57816020015b60608152602001906001900390816115b65790505b5090506000805b6004805490508110156120a6576000600482815481106115f5576115f46158d3565b5b90600052602060002001805461160a90614fec565b80601f016020809104026020016040519081016040528092919081815260200182805461163690614fec565b80156116835780601f1061165857610100808354040283529160200191611683565b820191906000526020600020905b81548152906001019060200180831161166657829003601f168201915b505050505090506000808260405161169b9190614fa6565b9081526020016040518091039020600601805480602002602001604051908101604052809291908181526020016000905b8282101561195057838290600052602060002090600502016040518060a00160405290816000820154815260200160018201805461170990614fec565b80601f016020809104026020016040519081016040528092919081815260200182805461173590614fec565b80156117825780601f1061175757610100808354040283529160200191611782565b820191906000526020600020905b81548152906001019060200180831161176557829003601f168201915b5050505050815260200160028201805461179b90614fec565b80601f01602080910402602001604051908101604052809291908181526020018280546117c790614fec565b80156118145780601f106117e957610100808354040283529160200191611814565b820191906000526020600020905b8154815290600101906020018083116117f757829003601f168201915b5050505050815260200160038201805461182d90614fec565b80601f016020809104026020016040519081016040528092919081815260200182805461185990614fec565b80156118a65780601f1061187b576101008083540402835291602001916118a6565b820191906000526020600020905b81548152906001019060200180831161188957829003601f168201915b505050505081526020016004820180546118bf90614fec565b80601f01602080910402602001604051908101604052809291908181526020018280546118eb90614fec565b80156119385780601f1061190d57610100808354040283529160200191611938565b820191906000526020600020905b81548152906001019060200180831161191b57829003601f168201915b505050505081525050815260200190600101906116cc565b505050509050611960818b613cbc565b15612091576000826040516119759190614fa6565b90815260200160405180910390206040518060e001604052908160008201805461199e90614fec565b80601f01602080910402602001604051908101604052809291908181526020018280546119ca90614fec565b8015611a175780601f106119ec57610100808354040283529160200191611a17565b820191906000526020600020905b8154815290600101906020018083116119fa57829003601f168201915b50505050508152602001600182018054611a3090614fec565b80601f0160208091040260200160405190810160405280929190818152602001828054611a5c90614fec565b8015611aa95780601f10611a7e57610100808354040283529160200191611aa9565b820191906000526020600020905b815481529060010190602001808311611a8c57829003601f168201915b50505050508152602001600282018054611ac290614fec565b80601f0160208091040260200160405190810160405280929190818152602001828054611aee90614fec565b8015611b3b5780601f10611b1057610100808354040283529160200191611b3b565b820191906000526020600020905b815481529060010190602001808311611b1e57829003601f168201915b50505050508152602001600382018054611b5490614fec565b80601f0160208091040260200160405190810160405280929190818152602001828054611b8090614fec565b8015611bcd5780601f10611ba257610100808354040283529160200191611bcd565b820191906000526020600020905b815481529060010190602001808311611bb057829003601f168201915b505050505081526020016004820160009054906101000a900460ff166002811115611bfb57611bfa614631565b5b6002811115611c0d57611c0c614631565b5b815260200160058201805480602002602001604051908101604052809291908181526020016000905b82821015611d8c5783829060005260206000209060020201604051806040016040529081600082018054611c6990614fec565b80601f0160208091040260200160405190810160405280929190818152602001828054611c9590614fec565b8015611ce25780601f10611cb757610100808354040283529160200191611ce2565b820191906000526020600020905b815481529060010190602001808311611cc557829003601f168201915b50505050508152602001600182018054611cfb90614fec565b80601f0160208091040260200160405190810160405280929190818152602001828054611d2790614fec565b8015611d745780601f10611d4957610100808354040283529160200191611d74565b820191906000526020600020905b815481529060010190602001808311611d5757829003601f168201915b50505050508152505081526020019060010190611c36565b50505050815260200160068201805480602002602001604051908101604052809291908181526020016000905b8282101561203d57838290600052602060002090600502016040518060a001604052908160008201548152602001600182018054611df690614fec565b80601f0160208091040260200160405190810160405280929190818152602001828054611e2290614fec565b8015611e6f5780601f10611e4457610100808354040283529160200191611e6f565b820191906000526020600020905b815481529060010190602001808311611e5257829003601f168201915b50505050508152602001600282018054611e8890614fec565b80601f0160208091040260200160405190810160405280929190818152602001828054611eb490614fec565b8015611f015780601f10611ed657610100808354040283529160200191611f01565b820191906000526020600020905b815481529060010190602001808311611ee457829003601f168201915b50505050508152602001600382018054611f1a90614fec565b80601f0160208091040260200160405190810160405280929190818152602001828054611f4690614fec565b8015611f935780601f10611f6857610100808354040283529160200191611f93565b820191906000526020600020905b815481529060010190602001808311611f7657829003601f168201915b50505050508152602001600482018054611fac90614fec565b80601f0160208091040260200160405190810160405280929190818152602001828054611fd890614fec565b80156120255780601f10611ffa57610100808354040283529160200191612025565b820191906000526020600020905b81548152906001019060200180831161200857829003601f168201915b50505050508152505081526020019060010190611db9565b5050505081525050868581518110612058576120576158d3565b5b602002602001018190525081858581518110612077576120766158d3565b5b6020026020010181905250838061208d90615931565b9450505b5050808061209e90615931565b9150506115d2565b5082829550955050505050915091565b6000806000856040516120c99190614fa6565b908152602001604051809103902090506120e285613625565b612121576040517f08c379a000000000000000000000000000000000000000000000000000000000815260040161211890615695565b60405180910390fd5b60006003856040516121339190614fa6565b9081526020016040518091039020600001805461214f90614fec565b905011612191576040517f08c379a0000000000000000000000000000000000000000000000000000000008152600401612188906159c5565b60405180910390fd5b60008351116121d5576040517f08c379a00000000000000000000000000000000000000000000000000000000081526004016121cc9061576d565b60405180910390fd5b60018160040160006101000a81548160ff021916908360028111156121fd576121fc614631565b5b021790555061220a613de9565b428160000181815250508381602001819052506040518060400160405280601081526020017f4d6f766520746f20637573746f6d65720000000000000000000000000000000081525081604001819052508460405160200161226c9190615a31565b6040516020818303038152906040528160600181905250816006018190806001815401808255809150506001900390600052602060002090600502016000909190919091506000820151816000015560208201518160010190816122d09190615235565b5060408201518160020190816122e69190615235565b5060608201518160030190816122fc9190615235565b5060808201518160040190816123129190615235565b5050506001925050509392505050565b6000806000856040516123359190614fa6565b9081526020016040518091039020905061234e85613625565b61238d576040517f08c379a000000000000000000000000000000000000000000000000000000000815260040161238490615695565b60405180910390fd5b600060028560405161239f9190614fa6565b908152602001604051809103902060000180546123bb90614fec565b9050116123fd576040517f08c379a00000000000000000000000000000000000000000000000000000000081526004016123f490615a9f565b60405180910390fd5b6000835111612441576040517f08c379a000000000000000000000000000000000000000000000000000000000815260040161243890615b0b565b60405180910390fd5b612449613de9565b428160000181815250508381602001819052506040518060400160405280601281526020017f4d6f766520746f2073746f7265686f75736500000000000000000000000000008152508160400181905250846040516020016124ab9190615b77565b60405160208183030381529060405281606001819052508160060181908060018154018082558091505060019003906000526020600020906005020160009091909190915060008201518160000155602082015181600101908161250f9190615235565b5060408201518160020190816125259190615235565b50606082015181600301908161253b9190615235565b5060808201518160040190816125519190615235565b5050506001925050509392505050565b60608060608060608060008760405161257a9190614fa6565b908152602001604051809103902060000160008860405161259b9190614fa6565b90815260200160405180910390206001016000896040516125bc9190614fa6565b908152602001604051809103902060030160008a6040516125dd9190614fa6565b908152602001604051809103902060020160008b6040516125fe9190614fa6565b908152602001604051809103902060050160008c60405161261f9190614fa6565b908152602001604051809103902060060185805461263c90614fec565b80601f016020809104026020016040519081016040528092919081815260200182805461266890614fec565b80156126b55780601f1061268a576101008083540402835291602001916126b5565b820191906000526020600020905b81548152906001019060200180831161269857829003601f168201915b505050505095508480546126c890614fec565b80601f01602080910402602001604051908101604052809291908181526020018280546126f490614fec565b80156127415780601f1061271657610100808354040283529160200191612741565b820191906000526020600020905b81548152906001019060200180831161272457829003601f168201915b5050505050945083805461275490614fec565b80601f016020809104026020016040519081016040528092919081815260200182805461278090614fec565b80156127cd5780601f106127a2576101008083540402835291602001916127cd565b820191906000526020600020905b8154815290600101906020018083116127b057829003601f168201915b505050505093508280546127e090614fec565b80601f016020809104026020016040519081016040528092919081815260200182805461280c90614fec565b80156128595780601f1061282e57610100808354040283529160200191612859565b820191906000526020600020905b81548152906001019060200180831161283c57829003601f168201915b5050505050925081805480602002602001604051908101604052809291908181526020016000905b828210156129d757838290600052602060002090600202016040518060400160405290816000820180546128b490614fec565b80601f01602080910402602001604051908101604052809291908181526020018280546128e090614fec565b801561292d5780601f106129025761010080835404028352916020019161292d565b820191906000526020600020905b81548152906001019060200180831161291057829003601f168201915b5050505050815260200160018201805461294690614fec565b80601f016020809104026020016040519081016040528092919081815260200182805461297290614fec565b80156129bf5780601f10612994576101008083540402835291602001916129bf565b820191906000526020600020905b8154815290600101906020018083116129a257829003601f168201915b50505050508152505081526020019060010190612881565b50505050915080805480602002602001604051908101604052809291908181526020016000905b82821015612c8257838290600052602060002090600502016040518060a001604052908160008201548152602001600182018054612a3b90614fec565b80601f0160208091040260200160405190810160405280929190818152602001828054612a6790614fec565b8015612ab45780601f10612a8957610100808354040283529160200191612ab4565b820191906000526020600020905b815481529060010190602001808311612a9757829003601f168201915b50505050508152602001600282018054612acd90614fec565b80601f0160208091040260200160405190810160405280929190818152602001828054612af990614fec565b8015612b465780601f10612b1b57610100808354040283529160200191612b46565b820191906000526020600020905b815481529060010190602001808311612b2957829003601f168201915b50505050508152602001600382018054612b5f90614fec565b80601f0160208091040260200160405190810160405280929190818152602001828054612b8b90614fec565b8015612bd85780601f10612bad57610100808354040283529160200191612bd8565b820191906000526020600020905b815481529060010190602001808311612bbb57829003601f168201915b50505050508152602001600482018054612bf190614fec565b80601f0160208091040260200160405190810160405280929190818152602001828054612c1d90614fec565b8015612c6a5780601f10612c3f57610100808354040283529160200191612c6a565b820191906000526020600020905b815481529060010190602001808311612c4d57829003601f168201915b505050505081525050815260200190600101906129fe565b50505050905095509550955095509550955091939550919395565b6060806000600480549050905060008167ffffffffffffffff811115612cc657612cc5614163565b5b604051908082528060200260200182016040528015612cff57816020015b612cec613f50565b815260200190600190039081612ce45790505b50905060005b8281101561343b57600060048281548110612d2357612d226158d3565b5b90600052602060002001604051612d3a9190615c1c565b90815260200160405180910390206040518060e0016040529081600082018054612d6390614fec565b80601f0160208091040260200160405190810160405280929190818152602001828054612d8f90614fec565b8015612ddc5780601f10612db157610100808354040283529160200191612ddc565b820191906000526020600020905b815481529060010190602001808311612dbf57829003601f168201915b50505050508152602001600182018054612df590614fec565b80601f0160208091040260200160405190810160405280929190818152602001828054612e2190614fec565b8015612e6e5780601f10612e4357610100808354040283529160200191612e6e565b820191906000526020600020905b815481529060010190602001808311612e5157829003601f168201915b50505050508152602001600282018054612e8790614fec565b80601f0160208091040260200160405190810160405280929190818152602001828054612eb390614fec565b8015612f005780601f10612ed557610100808354040283529160200191612f00565b820191906000526020600020905b815481529060010190602001808311612ee357829003601f168201915b50505050508152602001600382018054612f1990614fec565b80601f0160208091040260200160405190810160405280929190818152602001828054612f4590614fec565b8015612f925780601f10612f6757610100808354040283529160200191612f92565b820191906000526020600020905b815481529060010190602001808311612f7557829003601f168201915b505050505081526020016004820160009054906101000a900460ff166002811115612fc057612fbf614631565b5b6002811115612fd257612fd1614631565b5b815260200160058201805480602002602001604051908101604052809291908181526020016000905b82821015613151578382906000526020600020906002020160405180604001604052908160008201805461302e90614fec565b80601f016020809104026020016040519081016040528092919081815260200182805461305a90614fec565b80156130a75780601f1061307c576101008083540402835291602001916130a7565b820191906000526020600020905b81548152906001019060200180831161308a57829003601f168201915b505050505081526020016001820180546130c090614fec565b80601f01602080910402602001604051908101604052809291908181526020018280546130ec90614fec565b80156131395780601f1061310e57610100808354040283529160200191613139565b820191906000526020600020905b81548152906001019060200180831161311c57829003601f168201915b50505050508152505081526020019060010190612ffb565b50505050815260200160068201805480602002602001604051908101604052809291908181526020016000905b8282101561340257838290600052602060002090600502016040518060a0016040529081600082015481526020016001820180546131bb90614fec565b80601f01602080910402602001604051908101604052809291908181526020018280546131e790614fec565b80156132345780601f1061320957610100808354040283529160200191613234565b820191906000526020600020905b81548152906001019060200180831161321757829003601f168201915b5050505050815260200160028201805461324d90614fec565b80601f016020809104026020016040519081016040528092919081815260200182805461327990614fec565b80156132c65780601f1061329b576101008083540402835291602001916132c6565b820191906000526020600020905b8154815290600101906020018083116132a957829003601f168201915b505050505081526020016003820180546132df90614fec565b80601f016020809104026020016040519081016040528092919081815260200182805461330b90614fec565b80156133585780601f1061332d57610100808354040283529160200191613358565b820191906000526020600020905b81548152906001019060200180831161333b57829003601f168201915b5050505050815260200160048201805461337190614fec565b80601f016020809104026020016040519081016040528092919081815260200182805461339d90614fec565b80156133ea5780601f106133bf576101008083540402835291602001916133ea565b820191906000526020600020905b8154815290600101906020018083116133cd57829003601f168201915b5050505050815250508152602001906001019061317e565b505050508152505082828151811061341d5761341c6158d3565b5b6020026020010181905250808061343390615931565b915050612d05565b5080600480805480602002602001604051908101604052809291908181526020016000905b8282101561350c57838290600052602060002001805461347f90614fec565b80601f01602080910402602001604051908101604052809291908181526020018280546134ab90614fec565b80156134f85780601f106134cd576101008083540402835291602001916134f8565b820191906000526020600020905b8154815290600101906020018083116134db57829003601f168201915b505050505081526020019060010190613460565b5050505090509350935050509091565b600080825111613561576040517f08c379a000000000000000000000000000000000000000000000000000000000815260040161355890614f4a565b60405180910390fd5b60006002836040516135739190614fa6565b9081526020016040518091039020600001805461358f90614fec565b905011156135d2576040517f08c379a00000000000000000000000000000000000000000000000000000000081526004016135c990615069565b60405180910390fd5b6135da613f9f565b828160000181905250806002846040516135f49190614fa6565b908152602001604051809103902060008201518160000190816136179190615235565b509050506001915050919050565b6000806000836040516136389190614fa6565b9081526020016040518091039020600001805461365490614fec565b9050119050919050565b60606002826040516136709190614fa6565b9081526020016040518091039020600001805461368c90614fec565b80601f01602080910402602001604051908101604052809291908181526020018280546136b890614fec565b80156137055780601f106136da57610100808354040283529160200191613705565b820191906000526020600020905b8154815290600101906020018083116136e857829003601f168201915b50505050509050919050565b60606003826040516137239190614fa6565b9081526020016040518091039020600001805461373f90614fec565b80601f016020809104026020016040519081016040528092919081815260200182805461376b90614fec565b80156137b85780601f1061378d576101008083540402835291602001916137b8565b820191906000526020600020905b81548152906001019060200180831161379b57829003601f168201915b50505050509050919050565b600080835111613809576040517f08c379a000000000000000000000000000000000000000000000000000000000815260040161380090614f4a565b60405180910390fd5b600060038460405161381b9190614fa6565b9081526020016040518091039020600001805461383790614fec565b9050111561387a576040517f08c379a000000000000000000000000000000000000000000000000000000000815260040161387190615069565b60405180910390fd5b60008251116138be576040517f08c379a00000000000000000000000000000000000000000000000000000000081526004016138b590615c7f565b60405180910390fd5b6009825111613902576040517f08c379a00000000000000000000000000000000000000000000000000000000081526004016138f990615d11565b60405180910390fd5b6003836040516139129190614fa6565b908152602001604051809103902060020160009054906101000a900460ff161561393f5760009050613a18565b613947613fb2565b82816020018190525083816000018190525060018160400190151590811515815250508060038560405161397b9190614fa6565b9081526020016040518091039020600082015181600001908161399e9190615235565b5060208201518160010190816139b49190615235565b5060408201518160020160006101000a81548160ff02191690831515021790555060608201518160030190805190602001906139f1929190613fe3565b506080820151816004019080519060200190613a0e929190613fe3565b5090505060019150505b92915050565b600080600090505b60018551613a349190615d31565b811015613b1657613a43613dcf565b858281518110613a5657613a556158d3565b5b60200260200101518160200181905250848281518110613a7957613a786158d3565b5b60200260200101518160000181905250600084604051613a999190614fa6565b90815260200160405180910390206005018190806001815401808255809150506001900390600052602060002090600202016000909190919091506000820151816000019081613ae99190615235565b506020820151816001019081613aff9190615235565b505050508080613b0e90615931565b915050613a26565b50600190509392505050565b600080600283604051613b359190614fa6565b90815260200160405180910390206000018054613b5190614fec565b905011613b93576040517f08c379a0000000000000000000000000000000000000000000000000000000008152600401613b8a90615db1565b60405180910390fd5b600282604051613ba39190614fa6565b908152602001604051809103902060008082016000613bc29190613d8f565b505060019050919050565b600080600383604051613be09190614fa6565b90815260200160405180910390206000018054613bfc90614fec565b905011613c3e576040517f08c379a0000000000000000000000000000000000000000000000000000000008152600401613c35906153bf565b60405180910390fd5b600382604051613c4e9190614fa6565b908152602001604051809103902060008082016000613c6d9190613d8f565b600182016000613c7d9190613d8f565b6002820160006101000a81549060ff0219169055600382016000613ca1919061403c565b600482016000613cb1919061403c565b505060019050919050565b600080600090505b8351811015613d1757613cf5848281518110613ce357613ce26158d3565b5b60200260200101516080015184613d23565b15613d04576001915050613d1d565b8080613d0f90615931565b915050613cc4565b50600090505b92915050565b600081604051602001613d369190614fa6565b6040516020818303038152906040528051906020012083604051602001613d5d9190614fa6565b6040516020818303038152906040528051906020012014905092915050565b6040518060200160405280606081525090565b508054613d9b90614fec565b6000825580601f10613dad5750613dcc565b601f016020900490600052602060002090810190613dcb919061405d565b5b50565b604051806040016040528060608152602001606081525090565b6040518060a0016040528060008152602001606081526020016060815260200160608152602001606081525090565b828054828255906000526020600020906002028101928215613e895760005260206000209160020282015b82811115613e8857828260008201816000019081613e619190615561565b5060018201816001019081613e769190615561565b50505091600201919060020190613e43565b5b509050613e96919061407a565b5090565b828054828255906000526020600020906005028101928215613f3f5760005260206000209160050282015b82811115613f3e5782826000820154816000015560018201816001019081613eed9190615561565b5060028201816002019081613f029190615561565b5060038201816003019081613f179190615561565b5060048201816004019081613f2c9190615561565b50505091600501919060050190613ec5565b5b509050613f4c91906140b1565b5090565b6040518060e001604052806060815260200160608152602001606081526020016060815260200160006002811115613f8b57613f8a614631565b5b815260200160608152602001606081525090565b6040518060200160405280606081525090565b6040518060a00160405280606081526020016060815260200160001515815260200160608152602001606081525090565b82805482825590600052602060002090810192821561402b579160200282015b8281111561402a57825182908161401a9190615235565b5091602001919060010190614003565b5b5090506140389190614110565b5090565b508054600082559060005260206000209081019061405a9190614110565b50565b5b8082111561407657600081600090555060010161405e565b5090565b5b808211156140ad57600080820160006140949190613d8f565b6001820160006140a49190613d8f565b5060020161407b565b5090565b5b8082111561410c576000808201600090556001820160006140d39190613d8f565b6002820160006140e39190613d8f565b6003820160006140f39190613d8f565b6004820160006141039190613d8f565b506005016140b2565b5090565b5b8082111561413057600081816141279190613d8f565b50600101614111565b5090565b6000604051905090565b600080fd5b600080fd5b600080fd5b600080fd5b6000601f19601f8301169050919050565b7f4e487b7100000000000000000000000000000000000000000000000000000000600052604160045260246000fd5b61419b82614152565b810181811067ffffffffffffffff821117156141ba576141b9614163565b5b80604052505050565b60006141cd614134565b90506141d98282614192565b919050565b600067ffffffffffffffff8211156141f9576141f8614163565b5b61420282614152565b9050602081019050919050565b82818337600083830152505050565b600061423161422c846141de565b6141c3565b90508281526020810184848401111561424d5761424c61414d565b5b61425884828561420f565b509392505050565b600082601f83011261427557614274614148565b5b813561428584826020860161421e565b91505092915050565b6000602082840312156142a4576142a361413e565b5b600082013567ffffffffffffffff8111156142c2576142c1614143565b5b6142ce84828501614260565b91505092915050565b60008115159050919050565b6142ec816142d7565b82525050565b600060208201905061430760008301846142e3565b92915050565b600081519050919050565b600082825260208201905092915050565b60005b8381101561434757808201518184015260208101905061432c565b60008484015250505050565b600061435e8261430d565b6143688185614318565b9350614378818560208601614329565b61438181614152565b840191505092915050565b600060208201905081810360008301526143a68184614353565b905092915050565b600080600080600080600060e0888a0312156143cd576143cc61413e565b5b600088013567ffffffffffffffff8111156143eb576143ea614143565b5b6143f78a828b01614260565b975050602088013567ffffffffffffffff81111561441857614417614143565b5b6144248a828b01614260565b965050604088013567ffffffffffffffff81111561444557614444614143565b5b6144518a828b01614260565b955050606088013567ffffffffffffffff81111561447257614471614143565b5b61447e8a828b01614260565b945050608088013567ffffffffffffffff81111561449f5761449e614143565b5b6144ab8a828b01614260565b93505060a088013567ffffffffffffffff8111156144cc576144cb614143565b5b6144d88a828b01614260565b92505060c088013567ffffffffffffffff8111156144f9576144f8614143565b5b6145058a828b01614260565b91505092959891949750929550565b60008060006060848603121561452d5761452c61413e565b5b600084013567ffffffffffffffff81111561454b5761454a614143565b5b61455786828701614260565b935050602084013567ffffffffffffffff81111561457857614577614143565b5b61458486828701614260565b925050604084013567ffffffffffffffff8111156145a5576145a4614143565b5b6145b186828701614260565b9150509250925092565b600081519050919050565b600082825260208201905092915050565b6000819050602082019050919050565b600082825260208201905092915050565b60006146038261430d565b61460d81856145e7565b935061461d818560208601614329565b61462681614152565b840191505092915050565b7f4e487b7100000000000000000000000000000000000000000000000000000000600052602160045260246000fd5b6003811061467157614670614631565b5b50565b600081905061468282614660565b919050565b600061469282614674565b9050919050565b6146a281614687565b82525050565b600081519050919050565b600082825260208201905092915050565b6000819050602082019050919050565b600060408301600083015184820360008601526146f182826145f8565b9150506020830151848203602086015261470b82826145f8565b9150508091505092915050565b600061472483836146d4565b905092915050565b6000602082019050919050565b6000614744826146a8565b61474e81856146b3565b935083602082028501614760856146c4565b8060005b8581101561479c578484038952815161477d8582614718565b94506147888361472c565b925060208a01995050600181019050614764565b50829750879550505050505092915050565b600081519050919050565b600082825260208201905092915050565b6000819050602082019050919050565b6000819050919050565b6147ed816147da565b82525050565b600060a08301600083015161480b60008601826147e4565b506020830151848203602086015261482382826145f8565b9150506040830151848203604086015261483d82826145f8565b9150506060830151848203606086015261485782826145f8565b9150506080830151848203608086015261487182826145f8565b9150508091505092915050565b600061488a83836147f3565b905092915050565b6000602082019050919050565b60006148aa826147ae565b6148b481856147b9565b9350836020820285016148c6856147ca565b8060005b8581101561490257848403895281516148e3858261487e565b94506148ee83614892565b925060208a019950506001810190506148ca565b50829750879550505050505092915050565b600060e083016000830151848203600086015261493182826145f8565b9150506020830151848203602086015261494b82826145f8565b9150506040830151848203604086015261496582826145f8565b9150506060830151848203606086015261497f82826145f8565b91505060808301516149946080860182614699565b5060a083015184820360a08601526149ac8282614739565b91505060c083015184820360c08601526149c6828261489f565b9150508091505092915050565b60006149df8383614914565b905092915050565b6000602082019050919050565b60006149ff826145bb565b614a0981856145c6565b935083602082028501614a1b856145d7565b8060005b85811015614a575784840389528151614a3885826149d3565b9450614a43836149e7565b925060208a01995050600181019050614a1f565b50829750879550505050505092915050565b600081519050919050565b600082825260208201905092915050565b6000819050602082019050919050565b6000614aa183836145f8565b905092915050565b6000602082019050919050565b6000614ac182614a69565b614acb8185614a74565b935083602082028501614add85614a85565b8060005b85811015614b195784840389528151614afa8582614a95565b9450614b0583614aa9565b925060208a01995050600181019050614ae1565b50829750879550505050505092915050565b60006040820190508181036000830152614b4581856149f4565b90508181036020830152614b598184614ab6565b90509392505050565b600082825260208201905092915050565b6000614b7e826146a8565b614b888185614b62565b935083602082028501614b9a856146c4565b8060005b85811015614bd65784840389528151614bb78582614718565b9450614bc28361472c565b925060208a01995050600181019050614b9e565b50829750879550505050505092915050565b600082825260208201905092915050565b6000614c04826147ae565b614c0e8185614be8565b935083602082028501614c20856147ca565b8060005b85811015614c5c5784840389528151614c3d858261487e565b9450614c4883614892565b925060208a01995050600181019050614c24565b50829750879550505050505092915050565b600060c0820190508181036000830152614c888189614353565b90508181036020830152614c9c8188614353565b90508181036040830152614cb08187614353565b90508181036060830152614cc48186614353565b90508181036080830152614cd88185614b73565b905081810360a0830152614cec8184614bf9565b9050979650505050505050565b60008060408385031215614d1057614d0f61413e565b5b600083013567ffffffffffffffff811115614d2e57614d2d614143565b5b614d3a85828601614260565b925050602083013567ffffffffffffffff811115614d5b57614d5a614143565b5b614d6785828601614260565b9150509250929050565b600067ffffffffffffffff821115614d8c57614d8b614163565b5b602082029050602081019050919050565b600080fd5b6000614db5614db084614d71565b6141c3565b90508083825260208201905060208402830185811115614dd857614dd7614d9d565b5b835b81811015614e1f57803567ffffffffffffffff811115614dfd57614dfc614148565b5b808601614e0a8982614260565b85526020850194505050602081019050614dda565b5050509392505050565b600082601f830112614e3e57614e3d614148565b5b8135614e4e848260208601614da2565b91505092915050565b600080600060608486031215614e7057614e6f61413e565b5b600084013567ffffffffffffffff811115614e8e57614e8d614143565b5b614e9a86828701614e29565b935050602084013567ffffffffffffffff811115614ebb57614eba614143565b5b614ec786828701614e29565b925050604084013567ffffffffffffffff811115614ee857614ee7614143565b5b614ef486828701614260565b9150509250925092565b7f456d61696c206973207265717569726564000000000000000000000000000000600082015250565b6000614f34601183614318565b9150614f3f82614efe565b602082019050919050565b60006020820190508181036000830152614f6381614f27565b9050919050565b600081905092915050565b6000614f808261430d565b614f8a8185614f6a565b9350614f9a818560208601614329565b80840191505092915050565b6000614fb28284614f75565b915081905092915050565b7f4e487b7100000000000000000000000000000000000000000000000000000000600052602260045260246000fd5b6000600282049050600182168061500457607f821691505b60208210810361501757615016614fbd565b5b50919050565b7f456d61696c20616c726561647920657869737400000000000000000000000000600082015250565b6000615053601383614318565b915061505e8261501d565b602082019050919050565b6000602082019050818103600083015261508281615046565b9050919050565b60008190508160005260206000209050919050565b60006020601f8301049050919050565b600082821b905092915050565b6000600883026150eb7fffffffffffffffffffffffffffffffffffffffffffffffffffffffffffffffff826150ae565b6150f586836150ae565b95508019841693508086168417925050509392505050565b6000819050919050565b600061513261512d615128846147da565b61510d565b6147da565b9050919050565b6000819050919050565b61514c83615117565b61516061515882615139565b8484546150bb565b825550505050565b600090565b615175615168565b615180818484615143565b505050565b5b818110156151a45761519960008261516d565b600181019050615186565b5050565b601f8211156151e9576151ba81615089565b6151c38461509e565b810160208510156151d2578190505b6151e66151de8561509e565b830182615185565b50505b505050565b600082821c905092915050565b600061520c600019846008026151ee565b1980831691505092915050565b600061522583836151fb565b9150826002028217905092915050565b61523e8261430d565b67ffffffffffffffff81111561525757615256614163565b5b6152618254614fec565b61526c8282856151a8565b600060209050601f83116001811461529f576000841561528d578287015190505b6152978582615219565b8655506152ff565b601f1984166152ad86615089565b60005b828110156152d5578489015182556001820191506020850194506020810190506152b0565b868310156152f257848901516152ee601f8916826151fb565b8355505b6001600288020188555050505b505050505050565b7f5368697070696e672063656e74657220646f6573206e6f742065786973740000600082015250565b600061533d601e83614318565b915061534882615307565b602082019050919050565b6000602082019050818103600083015261536c81615330565b9050919050565b7f437573746f6d657220646f6573206e6f74206578697374000000000000000000600082015250565b60006153a9601783614318565b91506153b482615373565b602082019050919050565b600060208201905081810360008301526153d88161539c565b9050919050565b7f4f72646572494420697320726571756972656400000000000000000000000000600082015250565b6000615415601383614318565b9150615420826153df565b602082019050919050565b6000602082019050818103600083015261544481615408565b9050919050565b7f4f726465722077697468207468652073616d6520494420616c7265616479206560008201527f7869737473000000000000000000000000000000000000000000000000000000602082015250565b60006154a7602583614318565b91506154b28261544b565b604082019050919050565b600060208201905081810360008301526154d68161549a565b9050919050565b7f5368697070696e672043656e7465723a00000000000000000000000000000000600082015250565b6000615513601083614f6a565b915061551e826154dd565b601082019050919050565b600061553482615506565b91506155408284614f75565b915081905092915050565b60008154905061555a81614fec565b9050919050565b81810361556f575050615647565b6155788261554b565b67ffffffffffffffff81111561559157615590614163565b5b61559b8254614fec565b6155a68282856151a8565b6000601f8311600181146155d557600084156155c3578287015490505b6155cd8582615219565b865550615640565b601f1984166155e387615089565b96506155ee86615089565b60005b82811015615616578489015482556001820191506001850194506020810190506155f1565b86831015615633578489015461562f601f8916826151fb565b8355505b6001600288020188555050505b5050505050505b565b7f4f72646572206d75737420626520657869737400000000000000000000000000600082015250565b600061567f601383614318565b915061568a82615649565b602082019050919050565b600060208201905081810360008301526156ae81615672565b9050919050565b7f5368697070696e672063656e746572206d757374206265206578697374000000600082015250565b60006156eb601d83614318565b91506156f6826156b5565b602082019050919050565b6000602082019050818103600083015261571a816156de565b9050919050565b7f4d6f76696e6720646174652063616e6e6f7420626520656d7074790000000000600082015250565b6000615757601b83614318565b915061576282615721565b602082019050919050565b600060208201905081810360008301526157868161574a565b9050919050565b7f4f72646572206d75737420626520696e2073797374656d000000000000000000600082015250565b60006157c3601783614318565b91506157ce8261578d565b602082019050919050565b600060208201905081810360008301526157f2816157b6565b9050919050565b7f43616e63656c6564206461746520697320726571756972656400000000000000600082015250565b600061582f601983614318565b915061583a826157f9565b602082019050919050565b6000602082019050818103600083015261585e81615822565b9050919050565b7f43616e63656c65643a0000000000000000000000000000000000000000000000600082015250565b600061589b600983614f6a565b91506158a682615865565b600982019050919050565b60006158bc8261588e565b91506158c88284614f75565b915081905092915050565b7f4e487b7100000000000000000000000000000000000000000000000000000000600052603260045260246000fd5b7f4e487b7100000000000000000000000000000000000000000000000000000000600052601160045260246000fd5b600061593c826147da565b91507fffffffffffffffffffffffffffffffffffffffffffffffffffffffffffffffff820361596e5761596d615902565b5b600182019050919050565b7f437573746f6d6572206d75737420626520657869737400000000000000000000600082015250565b60006159af601683614318565b91506159ba82615979565b602082019050919050565b600060208201905081810360008301526159de816159a2565b9050919050565b7f437573746f6d65723a0000000000000000000000000000000000000000000000600082015250565b6000615a1b600983614f6a565b9150615a26826159e5565b600982019050919050565b6000615a3c82615a0e565b9150615a488284614f75565b915081905092915050565b7f53746f7265686f757365206d7573742062652065786973740000000000000000600082015250565b6000615a89601883614318565b9150615a9482615a53565b602082019050919050565b60006020820190508181036000830152615ab881615a7c565b9050919050565b7f4d6f76696e672064617465206973207265717569726564000000000000000000600082015250565b6000615af5601783614318565b9150615b0082615abf565b602082019050919050565b60006020820190508181036000830152615b2481615ae8565b9050919050565b7f53746f7265686f7573653a000000000000000000000000000000000000000000600082015250565b6000615b61600b83614f6a565b9150615b6c82615b2b565b600b82019050919050565b6000615b8282615b54565b9150615b8e8284614f75565b915081905092915050565b60008154615ba681614fec565b615bb08186614f6a565b94506001821660008114615bcb5760018114615be057615c13565b60ff1983168652811515820286019350615c13565b615be985615089565b60005b83811015615c0b57815481890152600182019150602081019050615bec565b838801955050505b50505092915050565b6000615c288284615b99565b915081905092915050565b7f50686f6e656e756d626572206973207265717569726564000000000000000000600082015250565b6000615c69601783614318565b9150615c7482615c33565b602082019050919050565b60006020820190508181036000830152615c9881615c5c565b9050919050565b7f506c6561736520656e74657220313020646967697473206d6f62696c65206e7560008201527f6d6265722c206f6e6c7900000000000000000000000000000000000000000000602082015250565b6000615cfb602a83614318565b9150615d0682615c9f565b604082019050919050565b60006020820190508181036000830152615d2a81615cee565b9050919050565b6000615d3c826147da565b9150615d47836147da565b9250828203905081811115615d5f57615d5e615902565b5b92915050565b7f53746f7265686f75736520646f6573206e6f7420657869737400000000000000600082015250565b6000615d9b601983614318565b9150615da682615d65565b602082019050919050565b60006020820190508181036000830152615dca81615d8e565b905091905056fea2646970667358221220cc55e00dad11826054fdf5705f621239e9d5a960c8f50381c2f3cd7fa68347f164736f6c63430008130033",
  "linkReferences": {},
  "deployedLinkReferences": {}
}