{
  "_format": "hh-sol-artifact-1",
  "contractName": "SMBPOST",
  "sourceName": "contracts/SMBPOST.sol",
  "abi": [
    {
      "inputs": [
        {
          "internalType": "string",
          "name": "_posType",
          "type": "string"
        },
        {
          "internalType": "string",
          "name": "_posName",
          "type": "string"
        },
        {
          "internalType": "string",
          "name": "_orderID",
          "type": "string"
        }
      ],
      "name": "addOrderWay",
      "outputs": [
        {
          "internalType": "bool",
          "name": "",
          "type": "bool"
        }
      ],
      "stateMutability": "payable",
      "type": "function"
    },
    {
      "inputs": [
        {
          "internalType": "string",
          "name": "_orderID",
          "type": "string"
        },
        {
          "internalType": "string",
          "name": "_canceledDate",
          "type": "string"
        },
        {
          "internalType": "string",
          "name": "_reason",
          "type": "string"
        }
      ],
      "name": "cancelAnOrder",
      "outputs": [
        {
          "internalType": "bool",
          "name": "",
          "type": "bool"
        }
      ],
      "stateMutability": "payable",
      "type": "function"
    },
    {
      "inputs": [
        {
          "internalType": "string",
          "name": "_email",
          "type": "string"
        },
        {
          "internalType": "string",
          "name": "_phoneNumber",
          "type": "string"
        },
        {
          "internalType": "string",
          "name": "_name",
          "type": "string"
        },
        {
          "internalType": "string",
          "name": "_pos",
          "type": "string"
        }
      ],
      "name": "createCustomer",
      "outputs": [
        {
          "internalType": "bool",
          "name": "",
          "type": "bool"
        }
      ],
      "stateMutability": "payable",
      "type": "function"
    },
    {
      "inputs": [
        {
          "internalType": "string",
          "name": "_orderID",
          "type": "string"
        },
        {
          "internalType": "string",
          "name": "_shippingCenterEmail",
          "type": "string"
        },
        {
          "internalType": "string",
          "name": "_senderPhone",
          "type": "string"
        },
        {
          "internalType": "string",
          "name": "_receiverPhone",
          "type": "string"
        },
        {
          "internalType": "string",
          "name": "_note",
          "type": "string"
        },
        {
          "internalType": "uint256",
          "name": "_weight",
          "type": "uint256"
        },
        {
          "internalType": "uint256",
          "name": "_paidMoney",
          "type": "uint256"
        },
        {
          "internalType": "string",
          "name": "_imageURL",
          "type": "string"
        },
        {
          "internalType": "string",
          "name": "_requestDate",
          "type": "string"
        }
      ],
      "name": "createOrder",
      "outputs": [
        {
          "internalType": "bool",
          "name": "",
          "type": "bool"
        }
      ],
      "stateMutability": "payable",
      "type": "function"
    },
    {
      "inputs": [
        {
          "internalType": "string",
          "name": "_email",
          "type": "string"
        },
        {
          "internalType": "string",
          "name": "_phoneNumber",
          "type": "string"
        },
        {
          "internalType": "string",
          "name": "_name",
          "type": "string"
        },
        {
          "internalType": "string",
          "name": "_pos",
          "type": "string"
        }
      ],
      "name": "createShippingCenter",
      "outputs": [
        {
          "internalType": "bool",
          "name": "",
          "type": "bool"
        }
      ],
      "stateMutability": "payable",
      "type": "function"
    },
    {
      "inputs": [
        {
          "internalType": "string",
          "name": "_email",
          "type": "string"
        },
        {
          "internalType": "string",
          "name": "_phoneNumber",
          "type": "string"
        },
        {
          "internalType": "string",
          "name": "_name",
          "type": "string"
        },
        {
          "internalType": "string",
          "name": "_pos",
          "type": "string"
        }
      ],
      "name": "createStorehouse",
      "outputs": [
        {
          "internalType": "bool",
          "name": "",
          "type": "bool"
        }
      ],
      "stateMutability": "payable",
      "type": "function"
    },
    {
      "inputs": [
        {
          "internalType": "string",
          "name": "_customerEmail",
          "type": "string"
        }
      ],
      "name": "getCustomerDetail",
      "outputs": [
        {
          "internalType": "string",
          "name": "",
          "type": "string"
        },
        {
          "internalType": "string",
          "name": "",
          "type": "string"
        },
        {
          "internalType": "string",
          "name": "",
          "type": "string"
        },
        {
          "internalType": "string",
          "name": "",
          "type": "string"
        }
      ],
      "stateMutability": "view",
      "type": "function"
    },
    {
      "inputs": [
        {
          "internalType": "string",
          "name": "_orderID",
          "type": "string"
        }
      ],
      "name": "getOrderDetail",
      "outputs": [
        {
          "internalType": "uint256",
          "name": "",
          "type": "uint256"
        },
        {
          "internalType": "uint256",
          "name": "",
          "type": "uint256"
        },
        {
          "internalType": "string",
          "name": "",
          "type": "string"
        },
        {
          "internalType": "string",
          "name": "",
          "type": "string"
        },
        {
          "internalType": "string",
          "name": "",
          "type": "string"
        },
        {
          "components": [
            {
              "internalType": "string",
              "name": "posName",
              "type": "string"
            },
            {
              "internalType": "string",
              "name": "posType",
              "type": "string"
            }
          ],
          "internalType": "struct SMBPOST.OrderWay[]",
          "name": "",
          "type": "tuple[]"
        }
      ],
      "stateMutability": "view",
      "type": "function"
    },
    {
      "inputs": [
        {
          "internalType": "string",
          "name": "_orderID",
          "type": "string"
        }
      ],
      "name": "getOrderHistories",
      "outputs": [
        {
          "components": [
            {
              "internalType": "uint256",
              "name": "timestamp",
              "type": "uint256"
            },
            {
              "internalType": "string",
              "name": "date",
              "type": "string"
            },
            {
              "internalType": "string",
              "name": "action",
              "type": "string"
            },
            {
              "internalType": "string",
              "name": "detail",
              "type": "string"
            }
          ],
          "internalType": "struct SMBPOST.HistoryOrder[]",
          "name": "",
          "type": "tuple[]"
        }
      ],
      "stateMutability": "view",
      "type": "function"
    },
    {
      "inputs": [
        {
          "internalType": "string",
          "name": "_shippingCenterEmail",
          "type": "string"
        }
      ],
      "name": "getShippingCenterDetail",
      "outputs": [
        {
          "internalType": "string",
          "name": "",
          "type": "string"
        },
        {
          "internalType": "string",
          "name": "",
          "type": "string"
        },
        {
          "internalType": "string",
          "name": "",
          "type": "string"
        },
        {
          "internalType": "string",
          "name": "",
          "type": "string"
        }
      ],
      "stateMutability": "view",
      "type": "function"
    },
    {
      "inputs": [
        {
          "internalType": "string",
          "name": "_storehouseEmail",
          "type": "string"
        }
      ],
      "name": "getStorehouseDetail",
      "outputs": [
        {
          "internalType": "string",
          "name": "",
          "type": "string"
        },
        {
          "internalType": "string",
          "name": "",
          "type": "string"
        },
        {
          "internalType": "string",
          "name": "",
          "type": "string"
        },
        {
          "internalType": "string",
          "name": "",
          "type": "string"
        }
      ],
      "stateMutability": "view",
      "type": "function"
    },
    {
      "inputs": [
        {
          "internalType": "string",
          "name": "_orderID",
          "type": "string"
        }
      ],
      "name": "orderExists",
      "outputs": [
        {
          "internalType": "bool",
          "name": "",
          "type": "bool"
        }
      ],
      "stateMutability": "payable",
      "type": "function"
    },
    {
      "inputs": [
        {
          "internalType": "string",
          "name": "_email",
          "type": "string"
        }
      ],
      "name": "removeCustomer",
      "outputs": [
        {
          "internalType": "bool",
          "name": "",
          "type": "bool"
        }
      ],
      "stateMutability": "payable",
      "type": "function"
    },
    {
      "inputs": [
        {
          "internalType": "string",
          "name": "_email",
          "type": "string"
        }
      ],
      "name": "removeShoppingCenter",
      "outputs": [
        {
          "internalType": "bool",
          "name": "",
          "type": "bool"
        }
      ],
      "stateMutability": "payable",
      "type": "function"
    },
    {
      "inputs": [
        {
          "internalType": "string",
          "name": "_email",
          "type": "string"
        }
      ],
      "name": "removeStorehouse",
      "outputs": [
        {
          "internalType": "bool",
          "name": "",
          "type": "bool"
        }
      ],
      "stateMutability": "payable",
      "type": "function"
    },
    {
      "inputs": [
        {
          "internalType": "string",
          "name": "_orderID",
          "type": "string"
        },
        {
          "internalType": "string",
          "name": "_customerEmail",
          "type": "string"
        },
        {
          "internalType": "string",
          "name": "_transferDate",
          "type": "string"
        }
      ],
      "name": "transferToCustomer",
      "outputs": [
        {
          "internalType": "bool",
          "name": "",
          "type": "bool"
        }
      ],
      "stateMutability": "payable",
      "type": "function"
    },
    {
      "inputs": [
        {
          "internalType": "string",
          "name": "_orderID",
          "type": "string"
        },
        {
          "internalType": "string",
          "name": "_shippingCenterEmail",
          "type": "string"
        },
        {
          "internalType": "string",
          "name": "_transferDate",
          "type": "string"
        }
      ],
      "name": "transferToShippingCenter",
      "outputs": [
        {
          "internalType": "bool",
          "name": "",
          "type": "bool"
        }
      ],
      "stateMutability": "payable",
      "type": "function"
    },
    {
      "inputs": [
        {
          "internalType": "string",
          "name": "_orderID",
          "type": "string"
        },
        {
          "internalType": "string",
          "name": "_storehouseEmail",
          "type": "string"
        },
        {
          "internalType": "string",
          "name": "_transferDate",
          "type": "string"
        }
      ],
      "name": "transferToStorehouse",
      "outputs": [
        {
          "internalType": "bool",
          "name": "",
          "type": "bool"
        }
      ],
      "stateMutability": "payable",
      "type": "function"
    },
    {
      "stateMutability": "payable",
      "type": "receive"
    }
  ],
  "bytecode": "0x608060405234801561001057600080fd5b50614945806100206000396000f3fe60806040526004361061010d5760003560e01c80638347fb0d11610095578063bc26ec5311610064578063bc26ec53146103c8578063e9c0f7da14610408578063ea35379714610438578063ee95444b14610468578063fc55ea9d1461049857610114565b80638347fb0d146102f8578063a959d58514610328578063b0cf996514610358578063b51ca0af1461039857610114565b80635e8b2da9116100dc5780635e8b2da9146101f65780636b5493721461022657806373277d0a1461025657806374939fc11461028657806379055d25146102b657610114565b806311aac3bd146101195780631215f025146101565780632bedf18d14610186578063552c8b22146101c657610114565b3661011457005b600080fd5b34801561012557600080fd5b50610140600480360381019061013b919061325c565b6104c8565b60405161014d9190613470565b60405180910390f35b610170600480360381019061016b919061325c565b610708565b60405161017d91906134ad565b60405180910390f35b34801561019257600080fd5b506101ad60048036038101906101a8919061325c565b6107e3565b6040516101bd9493929190613512565b60405180910390f35b6101e060048036038101906101db9190613573565b610aac565b6040516101ed91906134ad565b60405180910390f35b610210600480360381019061020b9190613573565b610cd5565b60405161021d91906134ad565b60405180910390f35b610240600480360381019061023b9190613573565b610f2e565b60405161024d91906134ad565b60405180910390f35b610270600480360381019061026b9190613573565b611184565b60405161027d91906134ad565b60405180910390f35b6102a0600480360381019061029b9190613573565b6113ad565b6040516102ad91906134ad565b60405180910390f35b3480156102c257600080fd5b506102dd60048036038101906102d8919061325c565b61144e565b6040516102ef9695949392919061372f565b60405180910390f35b610312600480360381019061030d91906137ac565b611855565b60405161031f91906134ad565b60405180910390f35b610342600480360381019061033d919061325c565b611ace565b60405161034f91906134ad565b60405180910390f35b34801561036457600080fd5b5061037f600480360381019061037a919061325c565b611b07565b60405161038f9493929190613512565b60405180910390f35b6103b260048036038101906103ad91906137ac565b611dd0565b6040516103bf91906134ad565b60405180910390f35b3480156103d457600080fd5b506103ef60048036038101906103ea919061325c565b6120e9565b6040516103ff9493929190613512565b60405180910390f35b610422600480360381019061041d91906137ac565b6123b2565b60405161042f91906134ad565b60405180910390f35b610452600480360381019061044d91906138af565b61262b565b60405161045f91906134ad565b60405180910390f35b610482600480360381019061047d919061325c565b612ba3565b60405161048f91906134ad565b60405180910390f35b6104b260048036038101906104ad919061325c565b612c7e565b6040516104bf91906134ad565b60405180910390f35b60606000826040516104da9190613a79565b9081526020016040518091039020600801805480602002602001604051908101604052809291908181526020016000905b828210156106fd57838290600052602060002090600402016040518060800160405290816000820154815260200160018201805461054890613abf565b80601f016020809104026020016040519081016040528092919081815260200182805461057490613abf565b80156105c15780601f10610596576101008083540402835291602001916105c1565b820191906000526020600020905b8154815290600101906020018083116105a457829003601f168201915b505050505081526020016002820180546105da90613abf565b80601f016020809104026020016040519081016040528092919081815260200182805461060690613abf565b80156106535780601f1061062857610100808354040283529160200191610653565b820191906000526020600020905b81548152906001019060200180831161063657829003601f168201915b5050505050815260200160038201805461066c90613abf565b80601f016020809104026020016040519081016040528092919081815260200182805461069890613abf565b80156106e55780601f106106ba576101008083540402835291602001916106e5565b820191906000526020600020905b8154815290600101906020018083116106c857829003601f168201915b5050505050815250508152602001906001019061050b565b505050509050919050565b60008060018360405161071b9190613a79565b9081526020016040518091039020600101805461073790613abf565b905011610779576040517f08c379a000000000000000000000000000000000000000000000000000000000815260040161077090613b3c565b60405180910390fd5b6001826040516107899190613a79565b9081526020016040518091039020600080820160006107a89190612d8d565b6001820160006107b89190612d8d565b6002820160006107c89190612d8d565b6003820160006107d89190612d8d565b505060019050919050565b6060806060806001856040516107f99190613a79565b908152602001604051809103902060010160018660405161081a9190613a79565b908152602001604051809103902060000160018760405161083b9190613a79565b908152602001604051809103902060020160018860405161085c9190613a79565b908152602001604051809103902060030183805461087990613abf565b80601f01602080910402602001604051908101604052809291908181526020018280546108a590613abf565b80156108f25780601f106108c7576101008083540402835291602001916108f2565b820191906000526020600020905b8154815290600101906020018083116108d557829003601f168201915b5050505050935082805461090590613abf565b80601f016020809104026020016040519081016040528092919081815260200182805461093190613abf565b801561097e5780601f106109535761010080835404028352916020019161097e565b820191906000526020600020905b81548152906001019060200180831161096157829003601f168201915b5050505050925081805461099190613abf565b80601f01602080910402602001604051908101604052809291908181526020018280546109bd90613abf565b8015610a0a5780601f106109df57610100808354040283529160200191610a0a565b820191906000526020600020905b8154815290600101906020018083116109ed57829003601f168201915b50505050509150808054610a1d90613abf565b80601f0160208091040260200160405190810160405280929190818152602001828054610a4990613abf565b8015610a965780601f10610a6b57610100808354040283529160200191610a96565b820191906000526020600020905b815481529060010190602001808311610a7957829003601f168201915b5050505050905093509350935093509193509193565b600080600085604051610abf9190613a79565b90815260200160405180910390209050610ad885611ace565b610b17576040517f08c379a0000000000000000000000000000000000000000000000000000000008152600401610b0e90613ba8565b60405180910390fd5b6000600185604051610b299190613a79565b90815260200160405180910390206001018054610b4590613abf565b905011610b87576040517f08c379a0000000000000000000000000000000000000000000000000000000008152600401610b7e90613c14565b60405180910390fd5b6000835111610bcb576040517f08c379a0000000000000000000000000000000000000000000000000000000008152600401610bc290613c80565b60405180910390fd5b610bd3612dcd565b428160000181815250508381602001819052506040518060400160405280601781526020017f4d6f766520746f207368697070696e672063656e746572000000000000000000815250816040018190525084604051602001610c359190613cec565b604051602081830303815290604052816060018190525081600801819080600181540180825580915050600190039060005260206000209060040201600090919091909150600082015181600001556020820151816001019081610c999190613eba565b506040820151816002019081610caf9190613eba565b506060820151816003019081610cc59190613eba565b5050506001925050509392505050565b600080600085604051610ce89190613a79565b90815260200160405180910390209050610d0185611ace565b610d40576040517f08c379a0000000000000000000000000000000000000000000000000000000008152600401610d3790613ba8565b60405180910390fd5b600280811115610d5357610d52613f8c565b5b8160060160009054906101000a900460ff166002811115610d7757610d76613f8c565b5b03610db7576040517f08c379a0000000000000000000000000000000000000000000000000000000008152600401610dae90614007565b60405180910390fd5b60016002811115610dcb57610dca613f8c565b5b8160060160009054906101000a900460ff166002811115610def57610dee613f8c565b5b03610e2f576040517f08c379a0000000000000000000000000000000000000000000000000000000008152600401610e2690614007565b60405180910390fd5b6000845111610e73576040517f08c379a0000000000000000000000000000000000000000000000000000000008152600401610e6a90614073565b60405180910390fd5b60028160060160006101000a81548160ff02191690836002811115610e9b57610e9a613f8c565b5b0217905550610ea8612dcd565b428160000181815250508481602001819052506040518060400160405280600881526020017f43616e63656c6564000000000000000000000000000000000000000000000000815250816040018190525083604051602001610f0a91906140df565b60405160208183030381529060405281606001819052506001925050509392505050565b600080600085604051610f419190613a79565b90815260200160405180910390209050610f5a85611ace565b610f99576040517f08c379a0000000000000000000000000000000000000000000000000000000008152600401610f9090613ba8565b60405180910390fd5b6000600385604051610fab9190613a79565b90815260200160405180910390206001018054610fc790613abf565b905011611009576040517f08c379a00000000000000000000000000000000000000000000000000000000081526004016110009061414d565b60405180910390fd5b600083511161104d576040517f08c379a000000000000000000000000000000000000000000000000000000000815260040161104490613c80565b60405180910390fd5b60018160060160006101000a81548160ff0219169083600281111561107557611074613f8c565b5b0217905550611082612dcd565b428160000181815250508381602001819052506040518060400160405280601081526020017f4d6f766520746f20637573746f6d6572000000000000000000000000000000008152508160400181905250846040516020016110e491906141b9565b6040516020818303038152906040528160600181905250816008018190806001815401808255809150506001900390600052602060002090600402016000909190919091506000820151816000015560208201518160010190816111489190613eba565b50604082015181600201908161115e9190613eba565b5060608201518160030190816111749190613eba565b5050506001925050509392505050565b6000806000856040516111979190613a79565b908152602001604051809103902090506111b085611ace565b6111ef576040517f08c379a00000000000000000000000000000000000000000000000000000000081526004016111e690613ba8565b60405180910390fd5b60006002856040516112019190613a79565b9081526020016040518091039020600101805461121d90613abf565b90501161125f576040517f08c379a000000000000000000000000000000000000000000000000000000000815260040161125690614227565b60405180910390fd5b60008351116112a3576040517f08c379a000000000000000000000000000000000000000000000000000000000815260040161129a90614293565b60405180910390fd5b6112ab612dcd565b428160000181815250508381602001819052506040518060400160405280601281526020017f4d6f766520746f2073746f7265686f757365000000000000000000000000000081525081604001819052508460405160200161130d91906142ff565b6040516020818303038152906040528160600181905250816008018190806001815401808255809150506001900390600052602060002090600402016000909190919091506000820151816000015560208201518160010190816113719190613eba565b5060408201518160020190816113879190613eba565b50606082015181600301908161139d9190613eba565b5050506001925050509392505050565b60006113b7612df5565b8481602001819052508381600001819052506000836040516113d99190613a79565b908152602001604051809103902060070181908060018154018082558091505060019003906000526020600020906002020160009091909190915060008201518160000190816114299190613eba565b50602082015181600101908161143f9190613eba565b50505060019150509392505050565b6000806060806060806000876040516114679190613a79565b9081526020016040518091039020600201546000886040516114899190613a79565b9081526020016040518091039020600301546000896040516114ab9190613a79565b908152602001604051809103902060000160008a6040516114cc9190613a79565b908152602001604051809103902060010160008b6040516114ed9190613a79565b908152602001604051809103902060050160008c60405161150e9190613a79565b908152602001604051809103902060070183805461152b90613abf565b80601f016020809104026020016040519081016040528092919081815260200182805461155790613abf565b80156115a45780601f10611579576101008083540402835291602001916115a4565b820191906000526020600020905b81548152906001019060200180831161158757829003601f168201915b505050505093508280546115b790613abf565b80601f01602080910402602001604051908101604052809291908181526020018280546115e390613abf565b80156116305780601f1061160557610100808354040283529160200191611630565b820191906000526020600020905b81548152906001019060200180831161161357829003601f168201915b5050505050925081805461164390613abf565b80601f016020809104026020016040519081016040528092919081815260200182805461166f90613abf565b80156116bc5780601f10611691576101008083540402835291602001916116bc565b820191906000526020600020905b81548152906001019060200180831161169f57829003601f168201915b5050505050915080805480602002602001604051908101604052809291908181526020016000905b8282101561183a578382906000526020600020906002020160405180604001604052908160008201805461171790613abf565b80601f016020809104026020016040519081016040528092919081815260200182805461174390613abf565b80156117905780601f1061176557610100808354040283529160200191611790565b820191906000526020600020905b81548152906001019060200180831161177357829003601f168201915b505050505081526020016001820180546117a990613abf565b80601f01602080910402602001604051908101604052809291908181526020018280546117d590613abf565b80156118225780601f106117f757610100808354040283529160200191611822565b820191906000526020600020905b81548152906001019060200180831161180557829003601f168201915b505050505081525050815260200190600101906116e4565b50505050905095509550955095509550955091939550919395565b60008085511161189a576040517f08c379a00000000000000000000000000000000000000000000000000000000081526004016118919061436d565b60405180910390fd5b60006002866040516118ac9190613a79565b908152602001604051809103902060010180546118c890613abf565b9050111561190b576040517f08c379a0000000000000000000000000000000000000000000000000000000008152600401611902906143d9565b60405180910390fd5b600082511161194f576040517f08c379a000000000000000000000000000000000000000000000000000000000815260040161194690614445565b60405180910390fd5b6000845111611993576040517f08c379a000000000000000000000000000000000000000000000000000000000815260040161198a906144b1565b60405180910390fd5b60098451116119d7576040517f08c379a00000000000000000000000000000000000000000000000000000000081526004016119ce90614543565b60405180910390fd5b6000835111611a1b576040517f08c379a0000000000000000000000000000000000000000000000000000000008152600401611a12906145af565b60405180910390fd5b611a23612e0f565b83816020018190525084816040018190525085816000018190525082816060018190525080600287604051611a589190613a79565b90815260200160405180910390206000820151816000019081611a7b9190613eba565b506020820151816001019081611a919190613eba565b506040820151816002019081611aa79190613eba565b506060820151816003019081611abd9190613eba565b509050506001915050949350505050565b600080600083604051611ae19190613a79565b90815260200160405180910390206000018054611afd90613abf565b9050119050919050565b606080606080600285604051611b1d9190613a79565b9081526020016040518091039020600101600286604051611b3e9190613a79565b9081526020016040518091039020600001600287604051611b5f9190613a79565b9081526020016040518091039020600201600288604051611b809190613a79565b9081526020016040518091039020600301838054611b9d90613abf565b80601f0160208091040260200160405190810160405280929190818152602001828054611bc990613abf565b8015611c165780601f10611beb57610100808354040283529160200191611c16565b820191906000526020600020905b815481529060010190602001808311611bf957829003601f168201915b50505050509350828054611c2990613abf565b80601f0160208091040260200160405190810160405280929190818152602001828054611c5590613abf565b8015611ca25780601f10611c7757610100808354040283529160200191611ca2565b820191906000526020600020905b815481529060010190602001808311611c8557829003601f168201915b50505050509250818054611cb590613abf565b80601f0160208091040260200160405190810160405280929190818152602001828054611ce190613abf565b8015611d2e5780601f10611d0357610100808354040283529160200191611d2e565b820191906000526020600020905b815481529060010190602001808311611d1157829003601f168201915b50505050509150808054611d4190613abf565b80601f0160208091040260200160405190810160405280929190818152602001828054611d6d90613abf565b8015611dba5780601f10611d8f57610100808354040283529160200191611dba565b820191906000526020600020905b815481529060010190602001808311611d9d57829003601f168201915b5050505050905093509350935093509193509193565b600080855111611e15576040517f08c379a0000000000000000000000000000000000000000000000000000000008152600401611e0c9061436d565b60405180910390fd5b6000600386604051611e279190613a79565b90815260200160405180910390206001018054611e4390613abf565b90501115611e86576040517f08c379a0000000000000000000000000000000000000000000000000000000008152600401611e7d906143d9565b60405180910390fd5b6000845111611eca576040517f08c379a0000000000000000000000000000000000000000000000000000000008152600401611ec1906144b1565b60405180910390fd5b6009845111611f0e576040517f08c379a0000000000000000000000000000000000000000000000000000000008152600401611f0590614543565b60405180910390fd5b6000825111611f52576040517f08c379a0000000000000000000000000000000000000000000000000000000008152600401611f499061461b565b60405180910390fd5b6000835111611f96576040517f08c379a0000000000000000000000000000000000000000000000000000000008152600401611f8d906145af565b60405180910390fd5b600385604051611fa69190613a79565b908152602001604051809103902060040160009054906101000a900460ff1615611fd357600090506120e1565b611fdb612e37565b8381602001819052508281604001819052508481606001819052506001816080019015159081151581525050806003876040516120189190613a79565b9081526020016040518091039020600082015181600001908161203b9190613eba565b5060208201518160010190816120519190613eba565b5060408201518160020190816120679190613eba565b50606082015181600301908161207d9190613eba565b5060808201518160040160006101000a81548160ff02191690831515021790555060a08201518160050190805190602001906120ba929190612e76565b5060c08201518160060190805190602001906120d7929190612e76565b5090505060019150505b949350505050565b6060806060806003856040516120ff9190613a79565b90815260200160405180910390206001016003866040516121209190613a79565b90815260200160405180910390206000016003876040516121419190613a79565b90815260200160405180910390206003016003886040516121629190613a79565b908152602001604051809103902060020183805461217f90613abf565b80601f01602080910402602001604051908101604052809291908181526020018280546121ab90613abf565b80156121f85780601f106121cd576101008083540402835291602001916121f8565b820191906000526020600020905b8154815290600101906020018083116121db57829003601f168201915b5050505050935082805461220b90613abf565b80601f016020809104026020016040519081016040528092919081815260200182805461223790613abf565b80156122845780601f1061225957610100808354040283529160200191612284565b820191906000526020600020905b81548152906001019060200180831161226757829003601f168201915b5050505050925081805461229790613abf565b80601f01602080910402602001604051908101604052809291908181526020018280546122c390613abf565b80156123105780601f106122e557610100808354040283529160200191612310565b820191906000526020600020905b8154815290600101906020018083116122f357829003601f168201915b5050505050915080805461232390613abf565b80601f016020809104026020016040519081016040528092919081815260200182805461234f90613abf565b801561239c5780601f106123715761010080835404028352916020019161239c565b820191906000526020600020905b81548152906001019060200180831161237f57829003601f168201915b5050505050905093509350935093509193509193565b6000808551116123f7576040517f08c379a00000000000000000000000000000000000000000000000000000000081526004016123ee9061436d565b60405180910390fd5b60006001866040516124099190613a79565b9081526020016040518091039020600101805461242590613abf565b90501115612468576040517f08c379a000000000000000000000000000000000000000000000000000000000815260040161245f906143d9565b60405180910390fd5b60008251116124ac576040517f08c379a00000000000000000000000000000000000000000000000000000000081526004016124a390614445565b60405180910390fd5b60008451116124f0576040517f08c379a00000000000000000000000000000000000000000000000000000000081526004016124e7906144b1565b60405180910390fd5b6009845111612534576040517f08c379a000000000000000000000000000000000000000000000000000000000815260040161252b90614543565b60405180910390fd5b6000835111612578576040517f08c379a000000000000000000000000000000000000000000000000000000000815260040161256f906145af565b60405180910390fd5b612580612ecf565b838160200181905250848160400181905250858160000181905250828160600181905250806001876040516125b59190613a79565b908152602001604051809103902060008201518160000190816125d89190613eba565b5060208201518160010190816125ee9190613eba565b5060408201518160020190816126049190613eba565b50606082015181600301908161261a9190613eba565b509050506001915050949350505050565b60008060038960405161263e9190613a79565b9081526020016040518091039020600101805461265a90613abf565b90501161269c576040517f08c379a000000000000000000000000000000000000000000000000000000000815260040161269390614687565b60405180910390fd5b60006003886040516126ae9190613a79565b908152602001604051809103902060010180546126ca90613abf565b90501161270c576040517f08c379a000000000000000000000000000000000000000000000000000000000815260040161270390614687565b60405180910390fd5b60008a5111612750576040517f08c379a0000000000000000000000000000000000000000000000000000000008152600401612747906146f3565b60405180910390fd5b6127598a611ace565b15612799576040517f08c379a000000000000000000000000000000000000000000000000000000000815260040161279090614785565b60405180910390fd5b6000808b6040516127aa9190613a79565b90815260200160405180910390209050888160000190816127cb9190613eba565b50878160010190816127dd9190613eba565b50838160050190816127ef9190613eba565b50848160030181905550858160020181905550868160040190816128139190613eba565b5061281c612df5565b6040518060400160405280600e81526020017f5368697070696e6743656e746572000000000000000000000000000000000000815250816020018190525060018b60405161286a9190613a79565b9081526020016040518091039020600101805461288690613abf565b80601f01602080910402602001604051908101604052809291908181526020018280546128b290613abf565b80156128ff5780601f106128d4576101008083540402835291602001916128ff565b820191906000526020600020905b8154815290600101906020018083116128e257829003601f168201915b5050505050816000018190525081600701819080600181540180825580915050600190039060005260206000209060020201600090919091909150600082015181600001908161294f9190613eba565b5060208201518160010190816129659190613eba565b505050612970612dcd565b428160000181815250506040518060400160405280600981526020017f526571756573746564000000000000000000000000000000000000000000000081525081604001819052508b6040516020016129c99190613cec565b604051602081830303815290604052816060018190525084816020018190525082600801819080600181540180825580915050600190039060005260206000209060040201600090919091909150600082015181600001556020820151816001019081612a369190613eba565b506040820151816002019081612a4c9190613eba565b506060820151816003019081612a629190613eba565b5050508260008e604051612a769190613a79565b908152602001604051809103902060008201816000019081612a9891906147bb565b5060018201816001019081612aad91906147bb565b50600282015481600201556003820154816003015560048201816004019081612ad691906147bb565b5060058201816005019081612aeb91906147bb565b506006820160009054906101000a900460ff168160060160006101000a81548160ff02191690836002811115612b2457612b23613f8c565b5b02179055506007820181600701908054612b3f929190612ef7565b506008820181600801908054612b56929190612f79565b5090505060048d908060018154018082558091505060019003906000526020600020016000909190919091509081612b8e9190613eba565b50600193505050509998505050505050505050565b600080600283604051612bb69190613a79565b90815260200160405180910390206001018054612bd290613abf565b905011612c14576040517f08c379a0000000000000000000000000000000000000000000000000000000008152600401612c0b906148ef565b60405180910390fd5b600282604051612c249190613a79565b908152602001604051809103902060008082016000612c439190612d8d565b600182016000612c539190612d8d565b600282016000612c639190612d8d565b600382016000612c739190612d8d565b505060019050919050565b600080600383604051612c919190613a79565b90815260200160405180910390206001018054612cad90613abf565b905011612cef576040517f08c379a0000000000000000000000000000000000000000000000000000000008152600401612ce690614687565b60405180910390fd5b600382604051612cff9190613a79565b908152602001604051809103902060008082016000612d1e9190612d8d565b600182016000612d2e9190612d8d565b600282016000612d3e9190612d8d565b600382016000612d4e9190612d8d565b6004820160006101000a81549060ff0219169055600582016000612d72919061301a565b600682016000612d82919061301a565b505060019050919050565b508054612d9990613abf565b6000825580601f10612dab5750612dca565b601f016020900490600052602060002090810190612dc9919061303b565b5b50565b6040518060800160405280600081526020016060815260200160608152602001606081525090565b604051806040016040528060608152602001606081525090565b6040518060800160405280606081526020016060815260200160608152602001606081525090565b6040518060e001604052806060815260200160608152602001606081526020016060815260200160001515815260200160608152602001606081525090565b828054828255906000526020600020908101928215612ebe579160200282015b82811115612ebd578251829081612ead9190613eba565b5091602001919060010190612e96565b5b509050612ecb9190613058565b5090565b6040518060800160405280606081526020016060815260200160608152602001606081525090565b828054828255906000526020600020906002028101928215612f685760005260206000209160020282015b82811115612f6757828260008201816000019081612f4091906147bb565b5060018201816001019081612f5591906147bb565b50505091600201919060020190612f22565b5b509050612f75919061307c565b5090565b8280548282559060005260206000209060040281019282156130095760005260206000209160040282015b828111156130085782826000820154816000015560018201816001019081612fcc91906147bb565b5060028201816002019081612fe191906147bb565b5060038201816003019081612ff691906147bb565b50505091600401919060040190612fa4565b5b50905061301691906130b3565b5090565b50805460008255906000526020600020908101906130389190613058565b50565b5b8082111561305457600081600090555060010161303c565b5090565b5b80821115613078576000818161306f9190612d8d565b50600101613059565b5090565b5b808211156130af57600080820160006130969190612d8d565b6001820160006130a69190612d8d565b5060020161307d565b5090565b5b808211156130fe576000808201600090556001820160006130d59190612d8d565b6002820160006130e59190612d8d565b6003820160006130f59190612d8d565b506004016130b4565b5090565b6000604051905090565b600080fd5b600080fd5b600080fd5b600080fd5b6000601f19601f8301169050919050565b7f4e487b7100000000000000000000000000000000000000000000000000000000600052604160045260246000fd5b61316982613120565b810181811067ffffffffffffffff8211171561318857613187613131565b5b80604052505050565b600061319b613102565b90506131a78282613160565b919050565b600067ffffffffffffffff8211156131c7576131c6613131565b5b6131d082613120565b9050602081019050919050565b82818337600083830152505050565b60006131ff6131fa846131ac565b613191565b90508281526020810184848401111561321b5761321a61311b565b5b6132268482856131dd565b509392505050565b600082601f83011261324357613242613116565b5b81356132538482602086016131ec565b91505092915050565b6000602082840312156132725761327161310c565b5b600082013567ffffffffffffffff8111156132905761328f613111565b5b61329c8482850161322e565b91505092915050565b600081519050919050565b600082825260208201905092915050565b6000819050602082019050919050565b6000819050919050565b6132e4816132d1565b82525050565b600081519050919050565b600082825260208201905092915050565b60005b83811015613324578082015181840152602081019050613309565b60008484015250505050565b600061333b826132ea565b61334581856132f5565b9350613355818560208601613306565b61335e81613120565b840191505092915050565b600060808301600083015161338160008601826132db565b50602083015184820360208601526133998282613330565b915050604083015184820360408601526133b38282613330565b915050606083015184820360608601526133cd8282613330565b9150508091505092915050565b60006133e68383613369565b905092915050565b6000602082019050919050565b6000613406826132a5565b61341081856132b0565b935083602082028501613422856132c1565b8060005b8581101561345e578484038952815161343f85826133da565b945061344a836133ee565b925060208a01995050600181019050613426565b50829750879550505050505092915050565b6000602082019050818103600083015261348a81846133fb565b905092915050565b60008115159050919050565b6134a781613492565b82525050565b60006020820190506134c2600083018461349e565b92915050565b600082825260208201905092915050565b60006134e4826132ea565b6134ee81856134c8565b93506134fe818560208601613306565b61350781613120565b840191505092915050565b6000608082019050818103600083015261352c81876134d9565b9050818103602083015261354081866134d9565b9050818103604083015261355481856134d9565b9050818103606083015261356881846134d9565b905095945050505050565b60008060006060848603121561358c5761358b61310c565b5b600084013567ffffffffffffffff8111156135aa576135a9613111565b5b6135b68682870161322e565b935050602084013567ffffffffffffffff8111156135d7576135d6613111565b5b6135e38682870161322e565b925050604084013567ffffffffffffffff81111561360457613603613111565b5b6136108682870161322e565b9150509250925092565b613623816132d1565b82525050565b600081519050919050565b600082825260208201905092915050565b6000819050602082019050919050565b600060408301600083015184820360008601526136728282613330565b9150506020830151848203602086015261368c8282613330565b9150508091505092915050565b60006136a58383613655565b905092915050565b6000602082019050919050565b60006136c582613629565b6136cf8185613634565b9350836020820285016136e185613645565b8060005b8581101561371d57848403895281516136fe8582613699565b9450613709836136ad565b925060208a019950506001810190506136e5565b50829750879550505050505092915050565b600060c082019050613744600083018961361a565b613751602083018861361a565b818103604083015261376381876134d9565b9050818103606083015261377781866134d9565b9050818103608083015261378b81856134d9565b905081810360a083015261379f81846136ba565b9050979650505050505050565b600080600080608085870312156137c6576137c561310c565b5b600085013567ffffffffffffffff8111156137e4576137e3613111565b5b6137f08782880161322e565b945050602085013567ffffffffffffffff81111561381157613810613111565b5b61381d8782880161322e565b935050604085013567ffffffffffffffff81111561383e5761383d613111565b5b61384a8782880161322e565b925050606085013567ffffffffffffffff81111561386b5761386a613111565b5b6138778782880161322e565b91505092959194509250565b61388c816132d1565b811461389757600080fd5b50565b6000813590506138a981613883565b92915050565b60008060008060008060008060006101208a8c0312156138d2576138d161310c565b5b60008a013567ffffffffffffffff8111156138f0576138ef613111565b5b6138fc8c828d0161322e565b99505060208a013567ffffffffffffffff81111561391d5761391c613111565b5b6139298c828d0161322e565b98505060408a013567ffffffffffffffff81111561394a57613949613111565b5b6139568c828d0161322e565b97505060608a013567ffffffffffffffff81111561397757613976613111565b5b6139838c828d0161322e565b96505060808a013567ffffffffffffffff8111156139a4576139a3613111565b5b6139b08c828d0161322e565b95505060a06139c18c828d0161389a565b94505060c06139d28c828d0161389a565b93505060e08a013567ffffffffffffffff8111156139f3576139f2613111565b5b6139ff8c828d0161322e565b9250506101008a013567ffffffffffffffff811115613a2157613a20613111565b5b613a2d8c828d0161322e565b9150509295985092959850929598565b600081905092915050565b6000613a53826132ea565b613a5d8185613a3d565b9350613a6d818560208601613306565b80840191505092915050565b6000613a858284613a48565b915081905092915050565b7f4e487b7100000000000000000000000000000000000000000000000000000000600052602260045260246000fd5b60006002820490506001821680613ad757607f821691505b602082108103613aea57613ae9613a90565b5b50919050565b7f5368697070696e672063656e74657220646f6573206e6f742065786973740000600082015250565b6000613b26601e836134c8565b9150613b3182613af0565b602082019050919050565b60006020820190508181036000830152613b5581613b19565b9050919050565b7f4f72646572206d75737420626520657869737400000000000000000000000000600082015250565b6000613b926013836134c8565b9150613b9d82613b5c565b602082019050919050565b60006020820190508181036000830152613bc181613b85565b9050919050565b7f5368697070696e672063656e746572206d757374206265206578697374000000600082015250565b6000613bfe601d836134c8565b9150613c0982613bc8565b602082019050919050565b60006020820190508181036000830152613c2d81613bf1565b9050919050565b7f4d6f76696e6720646174652063616e6e6f7420626520656d7074790000000000600082015250565b6000613c6a601b836134c8565b9150613c7582613c34565b602082019050919050565b60006020820190508181036000830152613c9981613c5d565b9050919050565b7f5368697070696e672043656e7465723a00000000000000000000000000000000600082015250565b6000613cd6601083613a3d565b9150613ce182613ca0565b601082019050919050565b6000613cf782613cc9565b9150613d038284613a48565b915081905092915050565b60008190508160005260206000209050919050565b60006020601f8301049050919050565b600082821b905092915050565b600060088302613d707fffffffffffffffffffffffffffffffffffffffffffffffffffffffffffffffff82613d33565b613d7a8683613d33565b95508019841693508086168417925050509392505050565b6000819050919050565b6000613db7613db2613dad846132d1565b613d92565b6132d1565b9050919050565b6000819050919050565b613dd183613d9c565b613de5613ddd82613dbe565b848454613d40565b825550505050565b600090565b613dfa613ded565b613e05818484613dc8565b505050565b5b81811015613e2957613e1e600082613df2565b600181019050613e0b565b5050565b601f821115613e6e57613e3f81613d0e565b613e4884613d23565b81016020851015613e57578190505b613e6b613e6385613d23565b830182613e0a565b50505b505050565b600082821c905092915050565b6000613e9160001984600802613e73565b1980831691505092915050565b6000613eaa8383613e80565b9150826002028217905092915050565b613ec3826132ea565b67ffffffffffffffff811115613edc57613edb613131565b5b613ee68254613abf565b613ef1828285613e2d565b600060209050601f831160018114613f245760008415613f12578287015190505b613f1c8582613e9e565b865550613f84565b601f198416613f3286613d0e565b60005b82811015613f5a57848901518255600182019150602085019450602081019050613f35565b86831015613f775784890151613f73601f891682613e80565b8355505b6001600288020188555050505b505050505050565b7f4e487b7100000000000000000000000000000000000000000000000000000000600052602160045260246000fd5b7f4f72646572206d75737420626520696e2073797374656d000000000000000000600082015250565b6000613ff16017836134c8565b9150613ffc82613fbb565b602082019050919050565b6000602082019050818103600083015261402081613fe4565b9050919050565b7f43616e63656c6564206461746520697320726571756972656400000000000000600082015250565b600061405d6019836134c8565b915061406882614027565b602082019050919050565b6000602082019050818103600083015261408c81614050565b9050919050565b7f43616e63656c65643a0000000000000000000000000000000000000000000000600082015250565b60006140c9600983613a3d565b91506140d482614093565b600982019050919050565b60006140ea826140bc565b91506140f68284613a48565b915081905092915050565b7f437573746f6d6572206d75737420626520657869737400000000000000000000600082015250565b60006141376016836134c8565b915061414282614101565b602082019050919050565b600060208201905081810360008301526141668161412a565b9050919050565b7f437573746f6d65723a0000000000000000000000000000000000000000000000600082015250565b60006141a3600983613a3d565b91506141ae8261416d565b600982019050919050565b60006141c482614196565b91506141d08284613a48565b915081905092915050565b7f53746f7265686f757365206d7573742062652065786973740000000000000000600082015250565b60006142116018836134c8565b915061421c826141db565b602082019050919050565b6000602082019050818103600083015261424081614204565b9050919050565b7f4d6f76696e672064617465206973207265717569726564000000000000000000600082015250565b600061427d6017836134c8565b915061428882614247565b602082019050919050565b600060208201905081810360008301526142ac81614270565b9050919050565b7f53746f7265686f7573653a000000000000000000000000000000000000000000600082015250565b60006142e9600b83613a3d565b91506142f4826142b3565b600b82019050919050565b600061430a826142dc565b91506143168284613a48565b915081905092915050565b7f456d61696c206973207265717569726564000000000000000000000000000000600082015250565b60006143576011836134c8565b915061436282614321565b602082019050919050565b600060208201905081810360008301526143868161434a565b9050919050565b7f456d61696c20616c726561647920657869737400000000000000000000000000600082015250565b60006143c36013836134c8565b91506143ce8261438d565b602082019050919050565b600060208201905081810360008301526143f2816143b6565b9050919050565b7f506f736974696f6e206973207265717569726564000000000000000000000000600082015250565b600061442f6014836134c8565b915061443a826143f9565b602082019050919050565b6000602082019050818103600083015261445e81614422565b9050919050565b7f50686f6e656e756d626572206973207265717569726564000000000000000000600082015250565b600061449b6017836134c8565b91506144a682614465565b602082019050919050565b600060208201905081810360008301526144ca8161448e565b9050919050565b7f506c6561736520656e74657220313020646967697473206d6f62696c65206e7560008201527f6d6265722c206f6e6c7900000000000000000000000000000000000000000000602082015250565b600061452d602a836134c8565b9150614538826144d1565b604082019050919050565b6000602082019050818103600083015261455c81614520565b9050919050565b7f4e616d6520697320726571756972656400000000000000000000000000000000600082015250565b60006145996010836134c8565b91506145a482614563565b602082019050919050565b600060208201905081810360008301526145c88161458c565b9050919050565b7f4164647265737320697320726571756972656400000000000000000000000000600082015250565b60006146056013836134c8565b9150614610826145cf565b602082019050919050565b60006020820190508181036000830152614634816145f8565b9050919050565b7f437573746f6d657220646f6573206e6f74206578697374000000000000000000600082015250565b60006146716017836134c8565b915061467c8261463b565b602082019050919050565b600060208201905081810360008301526146a081614664565b9050919050565b7f4f72646572494420697320726571756972656400000000000000000000000000600082015250565b60006146dd6013836134c8565b91506146e8826146a7565b602082019050919050565b6000602082019050818103600083015261470c816146d0565b9050919050565b7f4f726465722077697468207468652073616d6520494420616c7265616479206560008201527f7869737473000000000000000000000000000000000000000000000000000000602082015250565b600061476f6025836134c8565b915061477a82614713565b604082019050919050565b6000602082019050818103600083015261479e81614762565b9050919050565b6000815490506147b481613abf565b9050919050565b8181036147c95750506148a1565b6147d2826147a5565b67ffffffffffffffff8111156147eb576147ea613131565b5b6147f58254613abf565b614800828285613e2d565b6000601f83116001811461482f576000841561481d578287015490505b6148278582613e9e565b86555061489a565b601f19841661483d87613d0e565b965061484886613d0e565b60005b828110156148705784890154825560018201915060018501945060208101905061484b565b8683101561488d5784890154614889601f891682613e80565b8355505b6001600288020188555050505b5050505050505b565b7f53746f7265686f75736520646f6573206e6f7420657869737400000000000000600082015250565b60006148d96019836134c8565b91506148e4826148a3565b602082019050919050565b60006020820190508181036000830152614908816148cc565b905091905056fea2646970667358221220c663864f6e40b7e8de290d6d8943b8328b001c3b14b976534a5cbb939529da5c64736f6c63430008130033",
  "linkReferences": {},
  "deployedLinkReferences": {}
}