{
  "_format": "hh-sol-artifact-1",
  "contractName": "SMBPOST",
  "sourceName": "contracts/SMBPOST.sol",
  "abi": [
    {
      "inputs": [
        {
          "internalType": "string",
          "name": "_orderID",
          "type": "string"
        },
        {
          "internalType": "string",
          "name": "_canceledDate",
          "type": "string"
        },
        {
          "internalType": "string",
          "name": "_reason",
          "type": "string"
        }
      ],
      "name": "cancelAnOrder",
      "outputs": [
        {
          "internalType": "bool",
          "name": "",
          "type": "bool"
        }
      ],
      "stateMutability": "payable",
      "type": "function"
    },
    {
      "inputs": [
        {
          "internalType": "string",
          "name": "_email",
          "type": "string"
        },
        {
          "internalType": "string",
          "name": "_phoneNumber",
          "type": "string"
        }
      ],
      "name": "createCustomer",
      "outputs": [
        {
          "internalType": "bool",
          "name": "",
          "type": "bool"
        }
      ],
      "stateMutability": "payable",
      "type": "function"
    },
    {
      "inputs": [
        {
          "internalType": "string",
          "name": "_orderID",
          "type": "string"
        },
        {
          "internalType": "string",
          "name": "_shippingCenterEmail",
          "type": "string"
        },
        {
          "internalType": "string",
          "name": "_senderPhone",
          "type": "string"
        },
        {
          "internalType": "string",
          "name": "_receiverPhone",
          "type": "string"
        },
        {
          "internalType": "string",
          "name": "_note",
          "type": "string"
        },
        {
          "internalType": "string",
          "name": "_imageURL",
          "type": "string"
        },
        {
          "internalType": "string",
          "name": "_requestDate",
          "type": "string"
        },
        {
          "internalType": "string[]",
          "name": "_posTypes",
          "type": "string[]"
        },
        {
          "internalType": "string[]",
          "name": "_posNames",
          "type": "string[]"
        }
      ],
      "name": "createOrder",
      "outputs": [
        {
          "internalType": "bool",
          "name": "",
          "type": "bool"
        }
      ],
      "stateMutability": "payable",
      "type": "function"
    },
    {
      "inputs": [
        {
          "internalType": "string",
          "name": "_email",
          "type": "string"
        }
      ],
      "name": "createShippingCenter",
      "outputs": [
        {
          "internalType": "bool",
          "name": "",
          "type": "bool"
        }
      ],
      "stateMutability": "payable",
      "type": "function"
    },
    {
      "inputs": [
        {
          "internalType": "string",
          "name": "_email",
          "type": "string"
        }
      ],
      "name": "createStorehouse",
      "outputs": [
        {
          "internalType": "bool",
          "name": "",
          "type": "bool"
        }
      ],
      "stateMutability": "payable",
      "type": "function"
    },
    {
      "inputs": [],
      "name": "getAllOrders",
      "outputs": [
        {
          "components": [
            {
              "internalType": "string",
              "name": "senderPhone",
              "type": "string"
            },
            {
              "internalType": "string",
              "name": "receiverPhone",
              "type": "string"
            },
            {
              "internalType": "string",
              "name": "note",
              "type": "string"
            },
            {
              "internalType": "string",
              "name": "imageURL",
              "type": "string"
            },
            {
              "internalType": "enum SMBPOST.OrderStatus",
              "name": "status",
              "type": "uint8"
            },
            {
              "components": [
                {
                  "internalType": "string",
                  "name": "posName",
                  "type": "string"
                },
                {
                  "internalType": "string",
                  "name": "posType",
                  "type": "string"
                }
              ],
              "internalType": "struct SMBPOST.OrderWay[]",
              "name": "ways",
              "type": "tuple[]"
            },
            {
              "components": [
                {
                  "internalType": "uint256",
                  "name": "timestamp",
                  "type": "uint256"
                },
                {
                  "internalType": "string",
                  "name": "date",
                  "type": "string"
                },
                {
                  "internalType": "string",
                  "name": "action",
                  "type": "string"
                },
                {
                  "internalType": "string",
                  "name": "detail",
                  "type": "string"
                },
                {
                  "internalType": "string",
                  "name": "posEmail",
                  "type": "string"
                }
              ],
              "internalType": "struct SMBPOST.HistoryOrder[]",
              "name": "histories",
              "type": "tuple[]"
            }
          ],
          "internalType": "struct SMBPOST.Order[]",
          "name": "",
          "type": "tuple[]"
        },
        {
          "internalType": "string[]",
          "name": "",
          "type": "string[]"
        }
      ],
      "stateMutability": "view",
      "type": "function"
    },
    {
      "inputs": [
        {
          "internalType": "string",
          "name": "_customerEmail",
          "type": "string"
        }
      ],
      "name": "getCustomerDetail",
      "outputs": [
        {
          "internalType": "string",
          "name": "",
          "type": "string"
        }
      ],
      "stateMutability": "view",
      "type": "function"
    },
    {
      "inputs": [
        {
          "internalType": "string",
          "name": "_email",
          "type": "string"
        }
      ],
      "name": "getOrderByEmail",
      "outputs": [
        {
          "components": [
            {
              "internalType": "string",
              "name": "senderPhone",
              "type": "string"
            },
            {
              "internalType": "string",
              "name": "receiverPhone",
              "type": "string"
            },
            {
              "internalType": "string",
              "name": "note",
              "type": "string"
            },
            {
              "internalType": "string",
              "name": "imageURL",
              "type": "string"
            },
            {
              "internalType": "enum SMBPOST.OrderStatus",
              "name": "status",
              "type": "uint8"
            },
            {
              "components": [
                {
                  "internalType": "string",
                  "name": "posName",
                  "type": "string"
                },
                {
                  "internalType": "string",
                  "name": "posType",
                  "type": "string"
                }
              ],
              "internalType": "struct SMBPOST.OrderWay[]",
              "name": "ways",
              "type": "tuple[]"
            },
            {
              "components": [
                {
                  "internalType": "uint256",
                  "name": "timestamp",
                  "type": "uint256"
                },
                {
                  "internalType": "string",
                  "name": "date",
                  "type": "string"
                },
                {
                  "internalType": "string",
                  "name": "action",
                  "type": "string"
                },
                {
                  "internalType": "string",
                  "name": "detail",
                  "type": "string"
                },
                {
                  "internalType": "string",
                  "name": "posEmail",
                  "type": "string"
                }
              ],
              "internalType": "struct SMBPOST.HistoryOrder[]",
              "name": "histories",
              "type": "tuple[]"
            }
          ],
          "internalType": "struct SMBPOST.Order[]",
          "name": "",
          "type": "tuple[]"
        },
        {
          "internalType": "string[]",
          "name": "",
          "type": "string[]"
        }
      ],
      "stateMutability": "view",
      "type": "function"
    },
    {
      "inputs": [
        {
          "internalType": "string",
          "name": "_orderID",
          "type": "string"
        }
      ],
      "name": "getOrderDetail",
      "outputs": [
        {
          "internalType": "string",
          "name": "",
          "type": "string"
        },
        {
          "internalType": "string",
          "name": "",
          "type": "string"
        },
        {
          "internalType": "string",
          "name": "",
          "type": "string"
        },
        {
          "internalType": "string",
          "name": "",
          "type": "string"
        },
        {
          "components": [
            {
              "internalType": "string",
              "name": "posName",
              "type": "string"
            },
            {
              "internalType": "string",
              "name": "posType",
              "type": "string"
            }
          ],
          "internalType": "struct SMBPOST.OrderWay[]",
          "name": "",
          "type": "tuple[]"
        },
        {
          "components": [
            {
              "internalType": "uint256",
              "name": "timestamp",
              "type": "uint256"
            },
            {
              "internalType": "string",
              "name": "date",
              "type": "string"
            },
            {
              "internalType": "string",
              "name": "action",
              "type": "string"
            },
            {
              "internalType": "string",
              "name": "detail",
              "type": "string"
            },
            {
              "internalType": "string",
              "name": "posEmail",
              "type": "string"
            }
          ],
          "internalType": "struct SMBPOST.HistoryOrder[]",
          "name": "",
          "type": "tuple[]"
        }
      ],
      "stateMutability": "view",
      "type": "function"
    },
    {
      "inputs": [
        {
          "internalType": "string",
          "name": "_shippingCenterEmail",
          "type": "string"
        }
      ],
      "name": "getShippingCenterDetail",
      "outputs": [
        {
          "internalType": "string",
          "name": "",
          "type": "string"
        }
      ],
      "stateMutability": "view",
      "type": "function"
    },
    {
      "inputs": [
        {
          "internalType": "string",
          "name": "_storehouseEmail",
          "type": "string"
        }
      ],
      "name": "getStorehouseDetail",
      "outputs": [
        {
          "internalType": "string",
          "name": "",
          "type": "string"
        }
      ],
      "stateMutability": "view",
      "type": "function"
    },
    {
      "inputs": [
        {
          "internalType": "string",
          "name": "_orderID",
          "type": "string"
        }
      ],
      "name": "orderExists",
      "outputs": [
        {
          "internalType": "bool",
          "name": "",
          "type": "bool"
        }
      ],
      "stateMutability": "payable",
      "type": "function"
    },
    {
      "inputs": [
        {
          "internalType": "string",
          "name": "_email",
          "type": "string"
        }
      ],
      "name": "removeCustomer",
      "outputs": [
        {
          "internalType": "bool",
          "name": "",
          "type": "bool"
        }
      ],
      "stateMutability": "payable",
      "type": "function"
    },
    {
      "inputs": [
        {
          "internalType": "string",
          "name": "_email",
          "type": "string"
        }
      ],
      "name": "removeShoppingCenter",
      "outputs": [
        {
          "internalType": "bool",
          "name": "",
          "type": "bool"
        }
      ],
      "stateMutability": "payable",
      "type": "function"
    },
    {
      "inputs": [
        {
          "internalType": "string",
          "name": "_email",
          "type": "string"
        }
      ],
      "name": "removeStorehouse",
      "outputs": [
        {
          "internalType": "bool",
          "name": "",
          "type": "bool"
        }
      ],
      "stateMutability": "payable",
      "type": "function"
    },
    {
      "inputs": [
        {
          "internalType": "string",
          "name": "_orderID",
          "type": "string"
        },
        {
          "internalType": "string",
          "name": "_customerEmail",
          "type": "string"
        },
        {
          "internalType": "string",
          "name": "_transferDate",
          "type": "string"
        }
      ],
      "name": "transferToCustomer",
      "outputs": [
        {
          "internalType": "bool",
          "name": "",
          "type": "bool"
        }
      ],
      "stateMutability": "payable",
      "type": "function"
    },
    {
      "inputs": [
        {
          "internalType": "string",
          "name": "_orderID",
          "type": "string"
        },
        {
          "internalType": "string",
          "name": "_shippingCenterEmail",
          "type": "string"
        },
        {
          "internalType": "string",
          "name": "_transferDate",
          "type": "string"
        }
      ],
      "name": "transferToShippingCenter",
      "outputs": [
        {
          "internalType": "bool",
          "name": "",
          "type": "bool"
        }
      ],
      "stateMutability": "payable",
      "type": "function"
    },
    {
      "inputs": [
        {
          "internalType": "string",
          "name": "_orderID",
          "type": "string"
        },
        {
          "internalType": "string",
          "name": "_storehouseEmail",
          "type": "string"
        },
        {
          "internalType": "string",
          "name": "_transferDate",
          "type": "string"
        }
      ],
      "name": "transferToStorehouse",
      "outputs": [
        {
          "internalType": "bool",
          "name": "",
          "type": "bool"
        }
      ],
      "stateMutability": "payable",
      "type": "function"
    },
    {
      "stateMutability": "payable",
      "type": "receive"
    }
  ],
  "bytecode": "0x608060405234801561001057600080fd5b50615d7780620000216000396000f3fe60806040526004361061010d5760003560e01c806379055d2511610095578063b0cf996511610064578063b0cf9965146103b2578063bc26ec53146103ef578063c43fe7c41461042c578063ee95444b1461045c578063fc55ea9d1461048c57610114565b806379055d25146102e45780637bea0d1c146103265780639759e7f714610352578063a959d5851461038257610114565b8063552c8b22116100dc578063552c8b22146101e65780635e8b2da91461021657806364cf36d4146102465780636b5493721461028457806373277d0a146102b457610114565b806306655b94146101195780631215f025146101495780632a3de228146101795780632bedf18d146101a957610114565b3661011457005b600080fd5b610133600480360381019061012e9190614245565b6104bc565b60405161014091906142a9565b60405180910390f35b610163600480360381019061015e9190614245565b6105c5565b60405161017091906142a9565b60405180910390f35b610193600480360381019061018e91906143aa565b610670565b6040516101a091906142a9565b60405180910390f35b3480156101b557600080fd5b506101d060048036038101906101cb9190614245565b610cd5565b6040516101dd91906145ef565b60405180910390f35b61020060048036038101906101fb9190614611565b610d88565b60405161020d91906142a9565b60405180910390f35b610230600480360381019061022b9190614611565b610fc7565b60405161023d91906142a9565b60405180910390f35b34801561025257600080fd5b5061026d60048036038101906102689190614245565b611220565b60405161027b929190614c28565b60405180910390f35b61029e60048036038101906102999190614611565b612171565b6040516102ab91906142a9565b60405180910390f35b6102ce60048036038101906102c99190614611565b6123dd565b6040516102db91906142a9565b60405180910390f35b3480156102f057600080fd5b5061030b60048036038101906103069190614245565b61261c565b60405161031d96959493929190614d6b565b60405180910390f35b34801561033257600080fd5b5061033b612d58565b604051610349929190614c28565b60405180910390f35b61036c60048036038101906103679190614245565b6135d7565b60405161037991906142a9565b60405180910390f35b61039c60048036038101906103979190614245565b6136e0565b6040516103a991906142a9565b60405180910390f35b3480156103be57600080fd5b506103d960048036038101906103d49190614245565b613719565b6040516103e691906145ef565b60405180910390f35b3480156103fb57600080fd5b5061041660048036038101906104119190614245565b6137cc565b60405161042391906145ef565b60405180910390f35b61044660048036038101906104419190614df6565b61387f565b60405161045391906142a9565b60405180910390f35b61047660048036038101906104719190614245565b613ad9565b60405161048391906142a9565b60405180910390f35b6104a660048036038101906104a19190614245565b613b84565b6040516104b391906142a9565b60405180910390f35b600080825111610501576040517f08c379a00000000000000000000000000000000000000000000000000000000081526004016104f890614eba565b60405180910390fd5b60006001836040516105139190614f16565b9081526020016040518091039020600001805461052f90614f5c565b90501115610572576040517f08c379a000000000000000000000000000000000000000000000000000000000815260040161056990614fd9565b60405180910390fd5b61057a613d33565b828160000181905250806001846040516105949190614f16565b908152602001604051809103902060008201518160000190816105b791906151a5565b509050506001915050919050565b6000806001836040516105d89190614f16565b908152602001604051809103902060000180546105f490614f5c565b905011610636576040517f08c379a000000000000000000000000000000000000000000000000000000000815260040161062d906152c3565b60405180910390fd5b6001826040516106469190614f16565b9081526020016040518091039020600080820160006106659190613d46565b505060019050919050565b6000806003896040516106839190614f16565b9081526020016040518091039020600001805461069f90614f5c565b9050116106e1576040517f08c379a00000000000000000000000000000000000000000000000000000000081526004016106d89061532f565b60405180910390fd5b60006003886040516106f39190614f16565b9081526020016040518091039020600001805461070f90614f5c565b905011610751576040517f08c379a00000000000000000000000000000000000000000000000000000000081526004016107489061532f565b60405180910390fd5b60008a5111610795576040517f08c379a000000000000000000000000000000000000000000000000000000000815260040161078c9061539b565b60405180910390fd5b61079e8a6136e0565b156107de576040517f08c379a00000000000000000000000000000000000000000000000000000000081526004016107d59061542d565b60405180910390fd5b6000808b6040516107ef9190614f16565b908152602001604051809103902090508881600001908161081091906151a5565b508781600101908161082291906151a5565b508581600301908161083491906151a5565b508681600201908161084691906151a5565b5061084f613d86565b6040518060400160405280600e81526020017f5368697070696e6743656e746572000000000000000000000000000000000000815250816020018190525060018b60405161089d9190614f16565b908152602001604051809103902060000180546108b990614f5c565b80601f01602080910402602001604051908101604052809291908181526020018280546108e590614f5c565b80156109325780601f1061090757610100808354040283529160200191610932565b820191906000526020600020905b81548152906001019060200180831161091557829003601f168201915b5050505050816000018190525081600501819080600181540180825580915050600190039060005260206000209060020201600090919091909150600082015181600001908161098291906151a5565b50602082015181600101908161099891906151a5565b5050506109a3613da0565b428160000181815250506040518060400160405280600981526020017f526571756573746564000000000000000000000000000000000000000000000081525081604001819052508b6040516020016109fc9190615499565b60405160208183030381529060405281606001819052508b816080018190525086816020018190525082600601819080600181540180825580915050600190039060005260206000209060050201600090919091909150600082015181600001556020820151816001019081610a7291906151a5565b506040820151816002019081610a8891906151a5565b506060820151816003019081610a9e91906151a5565b506080820151816004019081610ab491906151a5565b5050508260008e604051610ac89190614f16565b908152602001604051809103902060008201816000019081610aea91906154d1565b5060018201816001019081610aff91906154d1565b5060028201816002019081610b1491906154d1565b5060038201816003019081610b2991906154d1565b506004820160009054906101000a900460ff168160040160006101000a81548160ff02191690836002811115610b6257610b6161472e565b5b02179055506005820181600501908054610b7d929190613dcf565b506006820181600601908054610b94929190613e51565b5090505060048d908060018154018082558091505060019003906000526020600020016000909190919091509081610bcc91906151a5565b5060005b60018751610bde91906155e8565b811015610cc057610bed613d86565b878281518110610c0057610bff61561c565b5b60200260200101518160200181905250868281518110610c2357610c2261561c565b5b6020026020010151816000018190525060008f604051610c439190614f16565b90815260200160405180910390206005018190806001815401808255809150506001900390600052602060002090600202016000909190919091506000820151816000019081610c9391906151a5565b506020820151816001019081610ca991906151a5565b505050508080610cb89061564b565b915050610bd0565b50600193505050509998505050505050505050565b6060600182604051610ce79190614f16565b90815260200160405180910390206000018054610d0390614f5c565b80601f0160208091040260200160405190810160405280929190818152602001828054610d2f90614f5c565b8015610d7c5780601f10610d5157610100808354040283529160200191610d7c565b820191906000526020600020905b815481529060010190602001808311610d5f57829003601f168201915b50505050509050919050565b600080600085604051610d9b9190614f16565b90815260200160405180910390209050610db4856136e0565b610df3576040517f08c379a0000000000000000000000000000000000000000000000000000000008152600401610dea906156df565b60405180910390fd5b6000600185604051610e059190614f16565b90815260200160405180910390206000018054610e2190614f5c565b905011610e63576040517f08c379a0000000000000000000000000000000000000000000000000000000008152600401610e5a9061574b565b60405180910390fd5b6000835111610ea7576040517f08c379a0000000000000000000000000000000000000000000000000000000008152600401610e9e906157b7565b60405180910390fd5b610eaf613da0565b428160000181815250508381602001819052506040518060400160405280601781526020017f4d6f766520746f207368697070696e672063656e746572000000000000000000815250816040018190525084604051602001610f119190615499565b604051602081830303815290604052816060018190525081600601819080600181540180825580915050600190039060005260206000209060050201600090919091909150600082015181600001556020820151816001019081610f7591906151a5565b506040820151816002019081610f8b91906151a5565b506060820151816003019081610fa191906151a5565b506080820151816004019081610fb791906151a5565b5050506001925050509392505050565b600080600085604051610fda9190614f16565b90815260200160405180910390209050610ff3856136e0565b611032576040517f08c379a0000000000000000000000000000000000000000000000000000000008152600401611029906156df565b60405180910390fd5b6002808111156110455761104461472e565b5b8160040160009054906101000a900460ff1660028111156110695761106861472e565b5b036110a9576040517f08c379a00000000000000000000000000000000000000000000000000000000081526004016110a090615823565b60405180910390fd5b600160028111156110bd576110bc61472e565b5b8160040160009054906101000a900460ff1660028111156110e1576110e061472e565b5b03611121576040517f08c379a000000000000000000000000000000000000000000000000000000000815260040161111890615823565b60405180910390fd5b6000845111611165576040517f08c379a000000000000000000000000000000000000000000000000000000000815260040161115c9061588f565b60405180910390fd5b60028160040160006101000a81548160ff0219169083600281111561118d5761118c61472e565b5b021790555061119a613da0565b428160000181815250508481602001819052506040518060400160405280600881526020017f43616e63656c65640000000000000000000000000000000000000000000000008152508160400181905250836040516020016111fc91906158fb565b60405160208183030381529060405281606001819052506001925050509392505050565b6060806000805b6004805490508110156115de5760006004828154811061124a5761124961561c565b5b90600052602060002001805461125f90614f5c565b80601f016020809104026020016040519081016040528092919081815260200182805461128b90614f5c565b80156112d85780601f106112ad576101008083540402835291602001916112d8565b820191906000526020600020905b8154815290600101906020018083116112bb57829003601f168201915b50505050509050600080826040516112f09190614f16565b9081526020016040518091039020600601805480602002602001604051908101604052809291908181526020016000905b828210156115a557838290600052602060002090600502016040518060a00160405290816000820154815260200160018201805461135e90614f5c565b80601f016020809104026020016040519081016040528092919081815260200182805461138a90614f5c565b80156113d75780601f106113ac576101008083540402835291602001916113d7565b820191906000526020600020905b8154815290600101906020018083116113ba57829003601f168201915b505050505081526020016002820180546113f090614f5c565b80601f016020809104026020016040519081016040528092919081815260200182805461141c90614f5c565b80156114695780601f1061143e57610100808354040283529160200191611469565b820191906000526020600020905b81548152906001019060200180831161144c57829003601f168201915b5050505050815260200160038201805461148290614f5c565b80601f01602080910402602001604051908101604052809291908181526020018280546114ae90614f5c565b80156114fb5780601f106114d0576101008083540402835291602001916114fb565b820191906000526020600020905b8154815290600101906020018083116114de57829003601f168201915b5050505050815260200160048201805461151490614f5c565b80601f016020809104026020016040519081016040528092919081815260200182805461154090614f5c565b801561158d5780601f106115625761010080835404028352916020019161158d565b820191906000526020600020905b81548152906001019060200180831161157057829003601f168201915b50505050508152505081526020019060010190611321565b5050505090506115b58188613c73565b156115c95783806115c59061564b565b9450505b505080806115d69061564b565b915050611227565b5060008167ffffffffffffffff8111156115fb576115fa61411a565b5b60405190808252806020026020018201604052801561163457816020015b611621613f07565b8152602001906001900390816116195790505b50905060008267ffffffffffffffff8111156116535761165261411a565b5b60405190808252806020026020018201604052801561168657816020015b60608152602001906001900390816116715790505b5090506000805b600480549050811015612161576000600482815481106116b0576116af61561c565b5b9060005260206000200180546116c590614f5c565b80601f01602080910402602001604051908101604052809291908181526020018280546116f190614f5c565b801561173e5780601f106117135761010080835404028352916020019161173e565b820191906000526020600020905b81548152906001019060200180831161172157829003601f168201915b50505050509050600080826040516117569190614f16565b9081526020016040518091039020600601805480602002602001604051908101604052809291908181526020016000905b82821015611a0b57838290600052602060002090600502016040518060a0016040529081600082015481526020016001820180546117c490614f5c565b80601f01602080910402602001604051908101604052809291908181526020018280546117f090614f5c565b801561183d5780601f106118125761010080835404028352916020019161183d565b820191906000526020600020905b81548152906001019060200180831161182057829003601f168201915b5050505050815260200160028201805461185690614f5c565b80601f016020809104026020016040519081016040528092919081815260200182805461188290614f5c565b80156118cf5780601f106118a4576101008083540402835291602001916118cf565b820191906000526020600020905b8154815290600101906020018083116118b257829003601f168201915b505050505081526020016003820180546118e890614f5c565b80601f016020809104026020016040519081016040528092919081815260200182805461191490614f5c565b80156119615780601f1061193657610100808354040283529160200191611961565b820191906000526020600020905b81548152906001019060200180831161194457829003601f168201915b5050505050815260200160048201805461197a90614f5c565b80601f01602080910402602001604051908101604052809291908181526020018280546119a690614f5c565b80156119f35780601f106119c8576101008083540402835291602001916119f3565b820191906000526020600020905b8154815290600101906020018083116119d657829003601f168201915b50505050508152505081526020019060010190611787565b505050509050611a1b818b613c73565b1561214c57600082604051611a309190614f16565b90815260200160405180910390206040518060e0016040529081600082018054611a5990614f5c565b80601f0160208091040260200160405190810160405280929190818152602001828054611a8590614f5c565b8015611ad25780601f10611aa757610100808354040283529160200191611ad2565b820191906000526020600020905b815481529060010190602001808311611ab557829003601f168201915b50505050508152602001600182018054611aeb90614f5c565b80601f0160208091040260200160405190810160405280929190818152602001828054611b1790614f5c565b8015611b645780601f10611b3957610100808354040283529160200191611b64565b820191906000526020600020905b815481529060010190602001808311611b4757829003601f168201915b50505050508152602001600282018054611b7d90614f5c565b80601f0160208091040260200160405190810160405280929190818152602001828054611ba990614f5c565b8015611bf65780601f10611bcb57610100808354040283529160200191611bf6565b820191906000526020600020905b815481529060010190602001808311611bd957829003601f168201915b50505050508152602001600382018054611c0f90614f5c565b80601f0160208091040260200160405190810160405280929190818152602001828054611c3b90614f5c565b8015611c885780601f10611c5d57610100808354040283529160200191611c88565b820191906000526020600020905b815481529060010190602001808311611c6b57829003601f168201915b505050505081526020016004820160009054906101000a900460ff166002811115611cb657611cb561472e565b5b6002811115611cc857611cc761472e565b5b815260200160058201805480602002602001604051908101604052809291908181526020016000905b82821015611e475783829060005260206000209060020201604051806040016040529081600082018054611d2490614f5c565b80601f0160208091040260200160405190810160405280929190818152602001828054611d5090614f5c565b8015611d9d5780601f10611d7257610100808354040283529160200191611d9d565b820191906000526020600020905b815481529060010190602001808311611d8057829003601f168201915b50505050508152602001600182018054611db690614f5c565b80601f0160208091040260200160405190810160405280929190818152602001828054611de290614f5c565b8015611e2f5780601f10611e0457610100808354040283529160200191611e2f565b820191906000526020600020905b815481529060010190602001808311611e1257829003601f168201915b50505050508152505081526020019060010190611cf1565b50505050815260200160068201805480602002602001604051908101604052809291908181526020016000905b828210156120f857838290600052602060002090600502016040518060a001604052908160008201548152602001600182018054611eb190614f5c565b80601f0160208091040260200160405190810160405280929190818152602001828054611edd90614f5c565b8015611f2a5780601f10611eff57610100808354040283529160200191611f2a565b820191906000526020600020905b815481529060010190602001808311611f0d57829003601f168201915b50505050508152602001600282018054611f4390614f5c565b80601f0160208091040260200160405190810160405280929190818152602001828054611f6f90614f5c565b8015611fbc5780601f10611f9157610100808354040283529160200191611fbc565b820191906000526020600020905b815481529060010190602001808311611f9f57829003601f168201915b50505050508152602001600382018054611fd590614f5c565b80601f016020809104026020016040519081016040528092919081815260200182805461200190614f5c565b801561204e5780601f106120235761010080835404028352916020019161204e565b820191906000526020600020905b81548152906001019060200180831161203157829003601f168201915b5050505050815260200160048201805461206790614f5c565b80601f016020809104026020016040519081016040528092919081815260200182805461209390614f5c565b80156120e05780601f106120b5576101008083540402835291602001916120e0565b820191906000526020600020905b8154815290600101906020018083116120c357829003601f168201915b50505050508152505081526020019060010190611e74565b50505050815250508685815181106121135761211261561c565b5b6020026020010181905250818585815181106121325761213161561c565b5b602002602001018190525083806121489061564b565b9450505b505080806121599061564b565b91505061168d565b5082829550955050505050915091565b6000806000856040516121849190614f16565b9081526020016040518091039020905061219d856136e0565b6121dc576040517f08c379a00000000000000000000000000000000000000000000000000000000081526004016121d3906156df565b60405180910390fd5b60006003856040516121ee9190614f16565b9081526020016040518091039020600001805461220a90614f5c565b90501161224c576040517f08c379a000000000000000000000000000000000000000000000000000000000815260040161224390615969565b60405180910390fd5b6000835111612290576040517f08c379a0000000000000000000000000000000000000000000000000000000008152600401612287906157b7565b60405180910390fd5b60018160040160006101000a81548160ff021916908360028111156122b8576122b761472e565b5b02179055506122c5613da0565b428160000181815250508381602001819052506040518060400160405280601081526020017f4d6f766520746f20637573746f6d65720000000000000000000000000000000081525081604001819052508460405160200161232791906159d5565b60405160208183030381529060405281606001819052508160060181908060018154018082558091505060019003906000526020600020906005020160009091909190915060008201518160000155602082015181600101908161238b91906151a5565b5060408201518160020190816123a191906151a5565b5060608201518160030190816123b791906151a5565b5060808201518160040190816123cd91906151a5565b5050506001925050509392505050565b6000806000856040516123f09190614f16565b90815260200160405180910390209050612409856136e0565b612448576040517f08c379a000000000000000000000000000000000000000000000000000000000815260040161243f906156df565b60405180910390fd5b600060028560405161245a9190614f16565b9081526020016040518091039020600001805461247690614f5c565b9050116124b8576040517f08c379a00000000000000000000000000000000000000000000000000000000081526004016124af90615a43565b60405180910390fd5b60008351116124fc576040517f08c379a00000000000000000000000000000000000000000000000000000000081526004016124f390615aaf565b60405180910390fd5b612504613da0565b428160000181815250508381602001819052506040518060400160405280601281526020017f4d6f766520746f2073746f7265686f75736500000000000000000000000000008152508160400181905250846040516020016125669190615b1b565b6040516020818303038152906040528160600181905250816006018190806001815401808255809150506001900390600052602060002090600502016000909190919091506000820151816000015560208201518160010190816125ca91906151a5565b5060408201518160020190816125e091906151a5565b5060608201518160030190816125f691906151a5565b50608082015181600401908161260c91906151a5565b5050506001925050509392505050565b6060806060806060806000876040516126359190614f16565b90815260200160405180910390206000016000886040516126569190614f16565b90815260200160405180910390206001016000896040516126779190614f16565b908152602001604051809103902060030160008a6040516126989190614f16565b908152602001604051809103902060020160008b6040516126b99190614f16565b908152602001604051809103902060050160008c6040516126da9190614f16565b90815260200160405180910390206006018580546126f790614f5c565b80601f016020809104026020016040519081016040528092919081815260200182805461272390614f5c565b80156127705780601f1061274557610100808354040283529160200191612770565b820191906000526020600020905b81548152906001019060200180831161275357829003601f168201915b5050505050955084805461278390614f5c565b80601f01602080910402602001604051908101604052809291908181526020018280546127af90614f5c565b80156127fc5780601f106127d1576101008083540402835291602001916127fc565b820191906000526020600020905b8154815290600101906020018083116127df57829003601f168201915b5050505050945083805461280f90614f5c565b80601f016020809104026020016040519081016040528092919081815260200182805461283b90614f5c565b80156128885780601f1061285d57610100808354040283529160200191612888565b820191906000526020600020905b81548152906001019060200180831161286b57829003601f168201915b5050505050935082805461289b90614f5c565b80601f01602080910402602001604051908101604052809291908181526020018280546128c790614f5c565b80156129145780601f106128e957610100808354040283529160200191612914565b820191906000526020600020905b8154815290600101906020018083116128f757829003601f168201915b5050505050925081805480602002602001604051908101604052809291908181526020016000905b82821015612a92578382906000526020600020906002020160405180604001604052908160008201805461296f90614f5c565b80601f016020809104026020016040519081016040528092919081815260200182805461299b90614f5c565b80156129e85780601f106129bd576101008083540402835291602001916129e8565b820191906000526020600020905b8154815290600101906020018083116129cb57829003601f168201915b50505050508152602001600182018054612a0190614f5c565b80601f0160208091040260200160405190810160405280929190818152602001828054612a2d90614f5c565b8015612a7a5780601f10612a4f57610100808354040283529160200191612a7a565b820191906000526020600020905b815481529060010190602001808311612a5d57829003601f168201915b5050505050815250508152602001906001019061293c565b50505050915080805480602002602001604051908101604052809291908181526020016000905b82821015612d3d57838290600052602060002090600502016040518060a001604052908160008201548152602001600182018054612af690614f5c565b80601f0160208091040260200160405190810160405280929190818152602001828054612b2290614f5c565b8015612b6f5780601f10612b4457610100808354040283529160200191612b6f565b820191906000526020600020905b815481529060010190602001808311612b5257829003601f168201915b50505050508152602001600282018054612b8890614f5c565b80601f0160208091040260200160405190810160405280929190818152602001828054612bb490614f5c565b8015612c015780601f10612bd657610100808354040283529160200191612c01565b820191906000526020600020905b815481529060010190602001808311612be457829003601f168201915b50505050508152602001600382018054612c1a90614f5c565b80601f0160208091040260200160405190810160405280929190818152602001828054612c4690614f5c565b8015612c935780601f10612c6857610100808354040283529160200191612c93565b820191906000526020600020905b815481529060010190602001808311612c7657829003601f168201915b50505050508152602001600482018054612cac90614f5c565b80601f0160208091040260200160405190810160405280929190818152602001828054612cd890614f5c565b8015612d255780601f10612cfa57610100808354040283529160200191612d25565b820191906000526020600020905b815481529060010190602001808311612d0857829003601f168201915b50505050508152505081526020019060010190612ab9565b50505050905095509550955095509550955091939550919395565b6060806000600480549050905060008167ffffffffffffffff811115612d8157612d8061411a565b5b604051908082528060200260200182016040528015612dba57816020015b612da7613f07565b815260200190600190039081612d9f5790505b50905060005b828110156134f657600060048281548110612dde57612ddd61561c565b5b90600052602060002001604051612df59190615bc0565b90815260200160405180910390206040518060e0016040529081600082018054612e1e90614f5c565b80601f0160208091040260200160405190810160405280929190818152602001828054612e4a90614f5c565b8015612e975780601f10612e6c57610100808354040283529160200191612e97565b820191906000526020600020905b815481529060010190602001808311612e7a57829003601f168201915b50505050508152602001600182018054612eb090614f5c565b80601f0160208091040260200160405190810160405280929190818152602001828054612edc90614f5c565b8015612f295780601f10612efe57610100808354040283529160200191612f29565b820191906000526020600020905b815481529060010190602001808311612f0c57829003601f168201915b50505050508152602001600282018054612f4290614f5c565b80601f0160208091040260200160405190810160405280929190818152602001828054612f6e90614f5c565b8015612fbb5780601f10612f9057610100808354040283529160200191612fbb565b820191906000526020600020905b815481529060010190602001808311612f9e57829003601f168201915b50505050508152602001600382018054612fd490614f5c565b80601f016020809104026020016040519081016040528092919081815260200182805461300090614f5c565b801561304d5780601f106130225761010080835404028352916020019161304d565b820191906000526020600020905b81548152906001019060200180831161303057829003601f168201915b505050505081526020016004820160009054906101000a900460ff16600281111561307b5761307a61472e565b5b600281111561308d5761308c61472e565b5b815260200160058201805480602002602001604051908101604052809291908181526020016000905b8282101561320c57838290600052602060002090600202016040518060400160405290816000820180546130e990614f5c565b80601f016020809104026020016040519081016040528092919081815260200182805461311590614f5c565b80156131625780601f1061313757610100808354040283529160200191613162565b820191906000526020600020905b81548152906001019060200180831161314557829003601f168201915b5050505050815260200160018201805461317b90614f5c565b80601f01602080910402602001604051908101604052809291908181526020018280546131a790614f5c565b80156131f45780601f106131c9576101008083540402835291602001916131f4565b820191906000526020600020905b8154815290600101906020018083116131d757829003601f168201915b505050505081525050815260200190600101906130b6565b50505050815260200160068201805480602002602001604051908101604052809291908181526020016000905b828210156134bd57838290600052602060002090600502016040518060a00160405290816000820154815260200160018201805461327690614f5c565b80601f01602080910402602001604051908101604052809291908181526020018280546132a290614f5c565b80156132ef5780601f106132c4576101008083540402835291602001916132ef565b820191906000526020600020905b8154815290600101906020018083116132d257829003601f168201915b5050505050815260200160028201805461330890614f5c565b80601f016020809104026020016040519081016040528092919081815260200182805461333490614f5c565b80156133815780601f1061335657610100808354040283529160200191613381565b820191906000526020600020905b81548152906001019060200180831161336457829003601f168201915b5050505050815260200160038201805461339a90614f5c565b80601f01602080910402602001604051908101604052809291908181526020018280546133c690614f5c565b80156134135780601f106133e857610100808354040283529160200191613413565b820191906000526020600020905b8154815290600101906020018083116133f657829003601f168201915b5050505050815260200160048201805461342c90614f5c565b80601f016020809104026020016040519081016040528092919081815260200182805461345890614f5c565b80156134a55780601f1061347a576101008083540402835291602001916134a5565b820191906000526020600020905b81548152906001019060200180831161348857829003601f168201915b50505050508152505081526020019060010190613239565b50505050815250508282815181106134d8576134d761561c565b5b602002602001018190525080806134ee9061564b565b915050612dc0565b5080600480805480602002602001604051908101604052809291908181526020016000905b828210156135c757838290600052602060002001805461353a90614f5c565b80601f016020809104026020016040519081016040528092919081815260200182805461356690614f5c565b80156135b35780601f10613588576101008083540402835291602001916135b3565b820191906000526020600020905b81548152906001019060200180831161359657829003601f168201915b50505050508152602001906001019061351b565b5050505090509350935050509091565b60008082511161361c576040517f08c379a000000000000000000000000000000000000000000000000000000000815260040161361390614eba565b60405180910390fd5b600060028360405161362e9190614f16565b9081526020016040518091039020600001805461364a90614f5c565b9050111561368d576040517f08c379a000000000000000000000000000000000000000000000000000000000815260040161368490614fd9565b60405180910390fd5b613695613f56565b828160000181905250806002846040516136af9190614f16565b908152602001604051809103902060008201518160000190816136d291906151a5565b509050506001915050919050565b6000806000836040516136f39190614f16565b9081526020016040518091039020600001805461370f90614f5c565b9050119050919050565b606060028260405161372b9190614f16565b9081526020016040518091039020600001805461374790614f5c565b80601f016020809104026020016040519081016040528092919081815260200182805461377390614f5c565b80156137c05780601f10613795576101008083540402835291602001916137c0565b820191906000526020600020905b8154815290600101906020018083116137a357829003601f168201915b50505050509050919050565b60606003826040516137de9190614f16565b908152602001604051809103902060000180546137fa90614f5c565b80601f016020809104026020016040519081016040528092919081815260200182805461382690614f5c565b80156138735780601f1061384857610100808354040283529160200191613873565b820191906000526020600020905b81548152906001019060200180831161385657829003601f168201915b50505050509050919050565b6000808351116138c4576040517f08c379a00000000000000000000000000000000000000000000000000000000081526004016138bb90614eba565b60405180910390fd5b60006003846040516138d69190614f16565b908152602001604051809103902060000180546138f290614f5c565b90501115613935576040517f08c379a000000000000000000000000000000000000000000000000000000000815260040161392c90614fd9565b60405180910390fd5b6000825111613979576040517f08c379a000000000000000000000000000000000000000000000000000000000815260040161397090615c23565b60405180910390fd5b60098251116139bd576040517f08c379a00000000000000000000000000000000000000000000000000000000081526004016139b490615cb5565b60405180910390fd5b6003836040516139cd9190614f16565b908152602001604051809103902060020160009054906101000a900460ff16156139fa5760009050613ad3565b613a02613f69565b828160200181905250838160000181905250600181604001901515908115158152505080600385604051613a369190614f16565b90815260200160405180910390206000820151816000019081613a5991906151a5565b506020820151816001019081613a6f91906151a5565b5060408201518160020160006101000a81548160ff0219169083151502179055506060820151816003019080519060200190613aac929190613f9a565b506080820151816004019080519060200190613ac9929190613f9a565b5090505060019150505b92915050565b600080600283604051613aec9190614f16565b90815260200160405180910390206000018054613b0890614f5c565b905011613b4a576040517f08c379a0000000000000000000000000000000000000000000000000000000008152600401613b4190615d21565b60405180910390fd5b600282604051613b5a9190614f16565b908152602001604051809103902060008082016000613b799190613d46565b505060019050919050565b600080600383604051613b979190614f16565b90815260200160405180910390206000018054613bb390614f5c565b905011613bf5576040517f08c379a0000000000000000000000000000000000000000000000000000000008152600401613bec9061532f565b60405180910390fd5b600382604051613c059190614f16565b908152602001604051809103902060008082016000613c249190613d46565b600182016000613c349190613d46565b6002820160006101000a81549060ff0219169055600382016000613c589190613ff3565b600482016000613c689190613ff3565b505060019050919050565b600080600090505b8351811015613cce57613cac848281518110613c9a57613c9961561c565b5b60200260200101516080015184613cda565b15613cbb576001915050613cd4565b8080613cc69061564b565b915050613c7b565b50600090505b92915050565b600081604051602001613ced9190614f16565b6040516020818303038152906040528051906020012083604051602001613d149190614f16565b6040516020818303038152906040528051906020012014905092915050565b6040518060200160405280606081525090565b508054613d5290614f5c565b6000825580601f10613d645750613d83565b601f016020900490600052602060002090810190613d829190614014565b5b50565b604051806040016040528060608152602001606081525090565b6040518060a0016040528060008152602001606081526020016060815260200160608152602001606081525090565b828054828255906000526020600020906002028101928215613e405760005260206000209160020282015b82811115613e3f57828260008201816000019081613e1891906154d1565b5060018201816001019081613e2d91906154d1565b50505091600201919060020190613dfa565b5b509050613e4d9190614031565b5090565b828054828255906000526020600020906005028101928215613ef65760005260206000209160050282015b82811115613ef55782826000820154816000015560018201816001019081613ea491906154d1565b5060028201816002019081613eb991906154d1565b5060038201816003019081613ece91906154d1565b5060048201816004019081613ee391906154d1565b50505091600501919060050190613e7c565b5b509050613f039190614068565b5090565b6040518060e001604052806060815260200160608152602001606081526020016060815260200160006002811115613f4257613f4161472e565b5b815260200160608152602001606081525090565b6040518060200160405280606081525090565b6040518060a00160405280606081526020016060815260200160001515815260200160608152602001606081525090565b828054828255906000526020600020908101928215613fe2579160200282015b82811115613fe1578251829081613fd191906151a5565b5091602001919060010190613fba565b5b509050613fef91906140c7565b5090565b508054600082559060005260206000209081019061401191906140c7565b50565b5b8082111561402d576000816000905550600101614015565b5090565b5b80821115614064576000808201600061404b9190613d46565b60018201600061405b9190613d46565b50600201614032565b5090565b5b808211156140c35760008082016000905560018201600061408a9190613d46565b60028201600061409a9190613d46565b6003820160006140aa9190613d46565b6004820160006140ba9190613d46565b50600501614069565b5090565b5b808211156140e757600081816140de9190613d46565b506001016140c8565b5090565b6000604051905090565b600080fd5b600080fd5b600080fd5b600080fd5b6000601f19601f8301169050919050565b7f4e487b7100000000000000000000000000000000000000000000000000000000600052604160045260246000fd5b61415282614109565b810181811067ffffffffffffffff821117156141715761417061411a565b5b80604052505050565b60006141846140eb565b90506141908282614149565b919050565b600067ffffffffffffffff8211156141b0576141af61411a565b5b6141b982614109565b9050602081019050919050565b82818337600083830152505050565b60006141e86141e384614195565b61417a565b90508281526020810184848401111561420457614203614104565b5b61420f8482856141c6565b509392505050565b600082601f83011261422c5761422b6140ff565b5b813561423c8482602086016141d5565b91505092915050565b60006020828403121561425b5761425a6140f5565b5b600082013567ffffffffffffffff811115614279576142786140fa565b5b61428584828501614217565b91505092915050565b60008115159050919050565b6142a38161428e565b82525050565b60006020820190506142be600083018461429a565b92915050565b600067ffffffffffffffff8211156142df576142de61411a565b5b602082029050602081019050919050565b600080fd5b6000614308614303846142c4565b61417a565b9050808382526020820190506020840283018581111561432b5761432a6142f0565b5b835b8181101561437257803567ffffffffffffffff8111156143505761434f6140ff565b5b80860161435d8982614217565b8552602085019450505060208101905061432d565b5050509392505050565b600082601f830112614391576143906140ff565b5b81356143a18482602086016142f5565b91505092915050565b60008060008060008060008060006101208a8c0312156143cd576143cc6140f5565b5b60008a013567ffffffffffffffff8111156143eb576143ea6140fa565b5b6143f78c828d01614217565b99505060208a013567ffffffffffffffff811115614418576144176140fa565b5b6144248c828d01614217565b98505060408a013567ffffffffffffffff811115614445576144446140fa565b5b6144518c828d01614217565b97505060608a013567ffffffffffffffff811115614472576144716140fa565b5b61447e8c828d01614217565b96505060808a013567ffffffffffffffff81111561449f5761449e6140fa565b5b6144ab8c828d01614217565b95505060a08a013567ffffffffffffffff8111156144cc576144cb6140fa565b5b6144d88c828d01614217565b94505060c08a013567ffffffffffffffff8111156144f9576144f86140fa565b5b6145058c828d01614217565b93505060e08a013567ffffffffffffffff811115614526576145256140fa565b5b6145328c828d0161437c565b9250506101008a013567ffffffffffffffff811115614554576145536140fa565b5b6145608c828d0161437c565b9150509295985092959850929598565b600081519050919050565b600082825260208201905092915050565b60005b838110156145aa57808201518184015260208101905061458f565b60008484015250505050565b60006145c182614570565b6145cb818561457b565b93506145db81856020860161458c565b6145e481614109565b840191505092915050565b6000602082019050818103600083015261460981846145b6565b905092915050565b60008060006060848603121561462a576146296140f5565b5b600084013567ffffffffffffffff811115614648576146476140fa565b5b61465486828701614217565b935050602084013567ffffffffffffffff811115614675576146746140fa565b5b61468186828701614217565b925050604084013567ffffffffffffffff8111156146a2576146a16140fa565b5b6146ae86828701614217565b9150509250925092565b600081519050919050565b600082825260208201905092915050565b6000819050602082019050919050565b600082825260208201905092915050565b600061470082614570565b61470a81856146e4565b935061471a81856020860161458c565b61472381614109565b840191505092915050565b7f4e487b7100000000000000000000000000000000000000000000000000000000600052602160045260246000fd5b6003811061476e5761476d61472e565b5b50565b600081905061477f8261475d565b919050565b600061478f82614771565b9050919050565b61479f81614784565b82525050565b600081519050919050565b600082825260208201905092915050565b6000819050602082019050919050565b600060408301600083015184820360008601526147ee82826146f5565b9150506020830151848203602086015261480882826146f5565b9150508091505092915050565b600061482183836147d1565b905092915050565b6000602082019050919050565b6000614841826147a5565b61484b81856147b0565b93508360208202850161485d856147c1565b8060005b85811015614899578484038952815161487a8582614815565b945061488583614829565b925060208a01995050600181019050614861565b50829750879550505050505092915050565b600081519050919050565b600082825260208201905092915050565b6000819050602082019050919050565b6000819050919050565b6148ea816148d7565b82525050565b600060a08301600083015161490860008601826148e1565b506020830151848203602086015261492082826146f5565b9150506040830151848203604086015261493a82826146f5565b9150506060830151848203606086015261495482826146f5565b9150506080830151848203608086015261496e82826146f5565b9150508091505092915050565b600061498783836148f0565b905092915050565b6000602082019050919050565b60006149a7826148ab565b6149b181856148b6565b9350836020820285016149c3856148c7565b8060005b858110156149ff57848403895281516149e0858261497b565b94506149eb8361498f565b925060208a019950506001810190506149c7565b50829750879550505050505092915050565b600060e0830160008301518482036000860152614a2e82826146f5565b91505060208301518482036020860152614a4882826146f5565b91505060408301518482036040860152614a6282826146f5565b91505060608301518482036060860152614a7c82826146f5565b9150506080830151614a916080860182614796565b5060a083015184820360a0860152614aa98282614836565b91505060c083015184820360c0860152614ac3828261499c565b9150508091505092915050565b6000614adc8383614a11565b905092915050565b6000602082019050919050565b6000614afc826146b8565b614b0681856146c3565b935083602082028501614b18856146d4565b8060005b85811015614b545784840389528151614b358582614ad0565b9450614b4083614ae4565b925060208a01995050600181019050614b1c565b50829750879550505050505092915050565b600081519050919050565b600082825260208201905092915050565b6000819050602082019050919050565b6000614b9e83836146f5565b905092915050565b6000602082019050919050565b6000614bbe82614b66565b614bc88185614b71565b935083602082028501614bda85614b82565b8060005b85811015614c165784840389528151614bf78582614b92565b9450614c0283614ba6565b925060208a01995050600181019050614bde565b50829750879550505050505092915050565b60006040820190508181036000830152614c428185614af1565b90508181036020830152614c568184614bb3565b90509392505050565b600082825260208201905092915050565b6000614c7b826147a5565b614c858185614c5f565b935083602082028501614c97856147c1565b8060005b85811015614cd35784840389528151614cb48582614815565b9450614cbf83614829565b925060208a01995050600181019050614c9b565b50829750879550505050505092915050565b600082825260208201905092915050565b6000614d01826148ab565b614d0b8185614ce5565b935083602082028501614d1d856148c7565b8060005b85811015614d595784840389528151614d3a858261497b565b9450614d458361498f565b925060208a01995050600181019050614d21565b50829750879550505050505092915050565b600060c0820190508181036000830152614d8581896145b6565b90508181036020830152614d9981886145b6565b90508181036040830152614dad81876145b6565b90508181036060830152614dc181866145b6565b90508181036080830152614dd58185614c70565b905081810360a0830152614de98184614cf6565b9050979650505050505050565b60008060408385031215614e0d57614e0c6140f5565b5b600083013567ffffffffffffffff811115614e2b57614e2a6140fa565b5b614e3785828601614217565b925050602083013567ffffffffffffffff811115614e5857614e576140fa565b5b614e6485828601614217565b9150509250929050565b7f456d61696c206973207265717569726564000000000000000000000000000000600082015250565b6000614ea460118361457b565b9150614eaf82614e6e565b602082019050919050565b60006020820190508181036000830152614ed381614e97565b9050919050565b600081905092915050565b6000614ef082614570565b614efa8185614eda565b9350614f0a81856020860161458c565b80840191505092915050565b6000614f228284614ee5565b915081905092915050565b7f4e487b7100000000000000000000000000000000000000000000000000000000600052602260045260246000fd5b60006002820490506001821680614f7457607f821691505b602082108103614f8757614f86614f2d565b5b50919050565b7f456d61696c20616c726561647920657869737400000000000000000000000000600082015250565b6000614fc360138361457b565b9150614fce82614f8d565b602082019050919050565b60006020820190508181036000830152614ff281614fb6565b9050919050565b60008190508160005260206000209050919050565b60006020601f8301049050919050565b600082821b905092915050565b60006008830261505b7fffffffffffffffffffffffffffffffffffffffffffffffffffffffffffffffff8261501e565b615065868361501e565b95508019841693508086168417925050509392505050565b6000819050919050565b60006150a261509d615098846148d7565b61507d565b6148d7565b9050919050565b6000819050919050565b6150bc83615087565b6150d06150c8826150a9565b84845461502b565b825550505050565b600090565b6150e56150d8565b6150f08184846150b3565b505050565b5b81811015615114576151096000826150dd565b6001810190506150f6565b5050565b601f8211156151595761512a81614ff9565b6151338461500e565b81016020851015615142578190505b61515661514e8561500e565b8301826150f5565b50505b505050565b600082821c905092915050565b600061517c6000198460080261515e565b1980831691505092915050565b6000615195838361516b565b9150826002028217905092915050565b6151ae82614570565b67ffffffffffffffff8111156151c7576151c661411a565b5b6151d18254614f5c565b6151dc828285615118565b600060209050601f83116001811461520f57600084156151fd578287015190505b6152078582615189565b86555061526f565b601f19841661521d86614ff9565b60005b8281101561524557848901518255600182019150602085019450602081019050615220565b86831015615262578489015161525e601f89168261516b565b8355505b6001600288020188555050505b505050505050565b7f5368697070696e672063656e74657220646f6573206e6f742065786973740000600082015250565b60006152ad601e8361457b565b91506152b882615277565b602082019050919050565b600060208201905081810360008301526152dc816152a0565b9050919050565b7f437573746f6d657220646f6573206e6f74206578697374000000000000000000600082015250565b600061531960178361457b565b9150615324826152e3565b602082019050919050565b600060208201905081810360008301526153488161530c565b9050919050565b7f4f72646572494420697320726571756972656400000000000000000000000000600082015250565b600061538560138361457b565b91506153908261534f565b602082019050919050565b600060208201905081810360008301526153b481615378565b9050919050565b7f4f726465722077697468207468652073616d6520494420616c7265616479206560008201527f7869737473000000000000000000000000000000000000000000000000000000602082015250565b600061541760258361457b565b9150615422826153bb565b604082019050919050565b600060208201905081810360008301526154468161540a565b9050919050565b7f5368697070696e672043656e7465723a00000000000000000000000000000000600082015250565b6000615483601083614eda565b915061548e8261544d565b601082019050919050565b60006154a482615476565b91506154b08284614ee5565b915081905092915050565b6000815490506154ca81614f5c565b9050919050565b8181036154df5750506155b7565b6154e8826154bb565b67ffffffffffffffff8111156155015761550061411a565b5b61550b8254614f5c565b615516828285615118565b6000601f8311600181146155455760008415615533578287015490505b61553d8582615189565b8655506155b0565b601f19841661555387614ff9565b965061555e86614ff9565b60005b8281101561558657848901548255600182019150600185019450602081019050615561565b868310156155a3578489015461559f601f89168261516b565b8355505b6001600288020188555050505b5050505050505b565b7f4e487b7100000000000000000000000000000000000000000000000000000000600052601160045260246000fd5b60006155f3826148d7565b91506155fe836148d7565b9250828203905081811115615616576156156155b9565b5b92915050565b7f4e487b7100000000000000000000000000000000000000000000000000000000600052603260045260246000fd5b6000615656826148d7565b91507fffffffffffffffffffffffffffffffffffffffffffffffffffffffffffffffff8203615688576156876155b9565b5b600182019050919050565b7f4f72646572206d75737420626520657869737400000000000000000000000000600082015250565b60006156c960138361457b565b91506156d482615693565b602082019050919050565b600060208201905081810360008301526156f8816156bc565b9050919050565b7f5368697070696e672063656e746572206d757374206265206578697374000000600082015250565b6000615735601d8361457b565b9150615740826156ff565b602082019050919050565b6000602082019050818103600083015261576481615728565b9050919050565b7f4d6f76696e6720646174652063616e6e6f7420626520656d7074790000000000600082015250565b60006157a1601b8361457b565b91506157ac8261576b565b602082019050919050565b600060208201905081810360008301526157d081615794565b9050919050565b7f4f72646572206d75737420626520696e2073797374656d000000000000000000600082015250565b600061580d60178361457b565b9150615818826157d7565b602082019050919050565b6000602082019050818103600083015261583c81615800565b9050919050565b7f43616e63656c6564206461746520697320726571756972656400000000000000600082015250565b600061587960198361457b565b915061588482615843565b602082019050919050565b600060208201905081810360008301526158a88161586c565b9050919050565b7f43616e63656c65643a0000000000000000000000000000000000000000000000600082015250565b60006158e5600983614eda565b91506158f0826158af565b600982019050919050565b6000615906826158d8565b91506159128284614ee5565b915081905092915050565b7f437573746f6d6572206d75737420626520657869737400000000000000000000600082015250565b600061595360168361457b565b915061595e8261591d565b602082019050919050565b6000602082019050818103600083015261598281615946565b9050919050565b7f437573746f6d65723a0000000000000000000000000000000000000000000000600082015250565b60006159bf600983614eda565b91506159ca82615989565b600982019050919050565b60006159e0826159b2565b91506159ec8284614ee5565b915081905092915050565b7f53746f7265686f757365206d7573742062652065786973740000000000000000600082015250565b6000615a2d60188361457b565b9150615a38826159f7565b602082019050919050565b60006020820190508181036000830152615a5c81615a20565b9050919050565b7f4d6f76696e672064617465206973207265717569726564000000000000000000600082015250565b6000615a9960178361457b565b9150615aa482615a63565b602082019050919050565b60006020820190508181036000830152615ac881615a8c565b9050919050565b7f53746f7265686f7573653a000000000000000000000000000000000000000000600082015250565b6000615b05600b83614eda565b9150615b1082615acf565b600b82019050919050565b6000615b2682615af8565b9150615b328284614ee5565b915081905092915050565b60008154615b4a81614f5c565b615b548186614eda565b94506001821660008114615b6f5760018114615b8457615bb7565b60ff1983168652811515820286019350615bb7565b615b8d85614ff9565b60005b83811015615baf57815481890152600182019150602081019050615b90565b838801955050505b50505092915050565b6000615bcc8284615b3d565b915081905092915050565b7f50686f6e656e756d626572206973207265717569726564000000000000000000600082015250565b6000615c0d60178361457b565b9150615c1882615bd7565b602082019050919050565b60006020820190508181036000830152615c3c81615c00565b9050919050565b7f506c6561736520656e74657220313020646967697473206d6f62696c65206e7560008201527f6d6265722c206f6e6c7900000000000000000000000000000000000000000000602082015250565b6000615c9f602a8361457b565b9150615caa82615c43565b604082019050919050565b60006020820190508181036000830152615cce81615c92565b9050919050565b7f53746f7265686f75736520646f6573206e6f7420657869737400000000000000600082015250565b6000615d0b60198361457b565b9150615d1682615cd5565b602082019050919050565b60006020820190508181036000830152615d3a81615cfe565b905091905056fea264697066735822122012ad1b33c157ff3436264ef98f77d5e851d4af6804d0eb3d950a8e000e8c700464736f6c63430008130033",
  "linkReferences": {},
  "deployedLinkReferences": {}
}