{
  "_format": "hh-sol-artifact-1",
  "contractName": "SMBPOST",
  "sourceName": "contracts/SMBPOST.sol",
  "abi": [
    {
      "inputs": [
        {
          "internalType": "string",
          "name": "_orderID",
          "type": "string"
        },
        {
          "internalType": "string",
          "name": "_canceledDate",
          "type": "string"
        },
        {
          "internalType": "string",
          "name": "_reason",
          "type": "string"
        }
      ],
      "name": "cancelAnOrder",
      "outputs": [
        {
          "internalType": "bool",
          "name": "",
          "type": "bool"
        }
      ],
      "stateMutability": "payable",
      "type": "function"
    },
    {
      "inputs": [
        {
          "internalType": "string",
          "name": "_email",
          "type": "string"
        }
      ],
      "name": "createCustomer",
      "outputs": [
        {
          "internalType": "bool",
          "name": "",
          "type": "bool"
        }
      ],
      "stateMutability": "payable",
      "type": "function"
    },
    {
      "inputs": [
        {
          "internalType": "string",
          "name": "_orderID",
          "type": "string"
        },
        {
          "internalType": "string",
          "name": "_shippingCenterEmail",
          "type": "string"
        },
        {
          "internalType": "string",
          "name": "_senderEmail",
          "type": "string"
        },
        {
          "internalType": "string",
          "name": "_receiverEmail",
          "type": "string"
        },
        {
          "internalType": "string",
          "name": "_note",
          "type": "string"
        },
        {
          "internalType": "string",
          "name": "_imageURL",
          "type": "string"
        },
        {
          "internalType": "string",
          "name": "_requestDate",
          "type": "string"
        },
        {
          "internalType": "string[]",
          "name": "_wayEmails",
          "type": "string[]"
        }
      ],
      "name": "createOrder",
      "outputs": [
        {
          "internalType": "bool",
          "name": "",
          "type": "bool"
        }
      ],
      "stateMutability": "payable",
      "type": "function"
    },
    {
      "inputs": [
        {
          "internalType": "string",
          "name": "_email",
          "type": "string"
        }
      ],
      "name": "createShippingCenter",
      "outputs": [
        {
          "internalType": "bool",
          "name": "",
          "type": "bool"
        }
      ],
      "stateMutability": "payable",
      "type": "function"
    },
    {
      "inputs": [
        {
          "internalType": "string",
          "name": "_email",
          "type": "string"
        }
      ],
      "name": "createStorehouse",
      "outputs": [
        {
          "internalType": "bool",
          "name": "",
          "type": "bool"
        }
      ],
      "stateMutability": "payable",
      "type": "function"
    },
    {
      "inputs": [],
      "name": "getAllOrders",
      "outputs": [
        {
          "components": [
            {
              "internalType": "string",
              "name": "senderEmail",
              "type": "string"
            },
            {
              "internalType": "string",
              "name": "receiverEmail",
              "type": "string"
            },
            {
              "internalType": "string",
              "name": "note",
              "type": "string"
            },
            {
              "internalType": "string",
              "name": "imageURL",
              "type": "string"
            },
            {
              "internalType": "enum SMBPOST.OrderStatus",
              "name": "status",
              "type": "uint8"
            },
            {
              "internalType": "string[]",
              "name": "wayEmails",
              "type": "string[]"
            },
            {
              "components": [
                {
                  "internalType": "uint256",
                  "name": "timestamp",
                  "type": "uint256"
                },
                {
                  "internalType": "string",
                  "name": "date",
                  "type": "string"
                },
                {
                  "internalType": "string",
                  "name": "action",
                  "type": "string"
                },
                {
                  "internalType": "string",
                  "name": "detail",
                  "type": "string"
                },
                {
                  "internalType": "string",
                  "name": "posEmail",
                  "type": "string"
                }
              ],
              "internalType": "struct SMBPOST.HistoryOrder[]",
              "name": "histories",
              "type": "tuple[]"
            }
          ],
          "internalType": "struct SMBPOST.Order[]",
          "name": "",
          "type": "tuple[]"
        },
        {
          "internalType": "string[]",
          "name": "",
          "type": "string[]"
        }
      ],
      "stateMutability": "view",
      "type": "function"
    },
    {
      "inputs": [
        {
          "internalType": "string",
          "name": "_email",
          "type": "string"
        }
      ],
      "name": "getOrderByEmail",
      "outputs": [
        {
          "components": [
            {
              "internalType": "string",
              "name": "senderEmail",
              "type": "string"
            },
            {
              "internalType": "string",
              "name": "receiverEmail",
              "type": "string"
            },
            {
              "internalType": "string",
              "name": "note",
              "type": "string"
            },
            {
              "internalType": "string",
              "name": "imageURL",
              "type": "string"
            },
            {
              "internalType": "enum SMBPOST.OrderStatus",
              "name": "status",
              "type": "uint8"
            },
            {
              "internalType": "string[]",
              "name": "wayEmails",
              "type": "string[]"
            },
            {
              "components": [
                {
                  "internalType": "uint256",
                  "name": "timestamp",
                  "type": "uint256"
                },
                {
                  "internalType": "string",
                  "name": "date",
                  "type": "string"
                },
                {
                  "internalType": "string",
                  "name": "action",
                  "type": "string"
                },
                {
                  "internalType": "string",
                  "name": "detail",
                  "type": "string"
                },
                {
                  "internalType": "string",
                  "name": "posEmail",
                  "type": "string"
                }
              ],
              "internalType": "struct SMBPOST.HistoryOrder[]",
              "name": "histories",
              "type": "tuple[]"
            }
          ],
          "internalType": "struct SMBPOST.Order[]",
          "name": "",
          "type": "tuple[]"
        },
        {
          "internalType": "string[]",
          "name": "",
          "type": "string[]"
        }
      ],
      "stateMutability": "view",
      "type": "function"
    },
    {
      "inputs": [
        {
          "internalType": "string",
          "name": "_orderID",
          "type": "string"
        }
      ],
      "name": "getOrderDetail",
      "outputs": [
        {
          "internalType": "string",
          "name": "",
          "type": "string"
        },
        {
          "internalType": "string",
          "name": "",
          "type": "string"
        },
        {
          "internalType": "string",
          "name": "",
          "type": "string"
        },
        {
          "internalType": "string",
          "name": "",
          "type": "string"
        },
        {
          "internalType": "string[]",
          "name": "",
          "type": "string[]"
        },
        {
          "components": [
            {
              "internalType": "uint256",
              "name": "timestamp",
              "type": "uint256"
            },
            {
              "internalType": "string",
              "name": "date",
              "type": "string"
            },
            {
              "internalType": "string",
              "name": "action",
              "type": "string"
            },
            {
              "internalType": "string",
              "name": "detail",
              "type": "string"
            },
            {
              "internalType": "string",
              "name": "posEmail",
              "type": "string"
            }
          ],
          "internalType": "struct SMBPOST.HistoryOrder[]",
          "name": "",
          "type": "tuple[]"
        }
      ],
      "stateMutability": "view",
      "type": "function"
    },
    {
      "inputs": [
        {
          "internalType": "string",
          "name": "_orderID",
          "type": "string"
        }
      ],
      "name": "orderExists",
      "outputs": [
        {
          "internalType": "bool",
          "name": "",
          "type": "bool"
        }
      ],
      "stateMutability": "payable",
      "type": "function"
    },
    {
      "inputs": [
        {
          "internalType": "string",
          "name": "_email",
          "type": "string"
        }
      ],
      "name": "removeCustomer",
      "outputs": [
        {
          "internalType": "bool",
          "name": "",
          "type": "bool"
        }
      ],
      "stateMutability": "payable",
      "type": "function"
    },
    {
      "inputs": [
        {
          "internalType": "string",
          "name": "_email",
          "type": "string"
        }
      ],
      "name": "removeShoppingCenter",
      "outputs": [
        {
          "internalType": "bool",
          "name": "",
          "type": "bool"
        }
      ],
      "stateMutability": "payable",
      "type": "function"
    },
    {
      "inputs": [
        {
          "internalType": "string",
          "name": "_email",
          "type": "string"
        }
      ],
      "name": "removeStorehouse",
      "outputs": [
        {
          "internalType": "bool",
          "name": "",
          "type": "bool"
        }
      ],
      "stateMutability": "payable",
      "type": "function"
    },
    {
      "inputs": [
        {
          "internalType": "string",
          "name": "_orderID",
          "type": "string"
        },
        {
          "internalType": "string",
          "name": "_customerEmail",
          "type": "string"
        },
        {
          "internalType": "string",
          "name": "_transferDate",
          "type": "string"
        }
      ],
      "name": "transferToCustomer",
      "outputs": [
        {
          "internalType": "bool",
          "name": "",
          "type": "bool"
        }
      ],
      "stateMutability": "payable",
      "type": "function"
    },
    {
      "inputs": [
        {
          "internalType": "string",
          "name": "_orderID",
          "type": "string"
        },
        {
          "internalType": "string",
          "name": "_storehouseEmail",
          "type": "string"
        },
        {
          "internalType": "string",
          "name": "_transferDate",
          "type": "string"
        }
      ],
      "name": "transferToStorehouse",
      "outputs": [
        {
          "internalType": "bool",
          "name": "",
          "type": "bool"
        }
      ],
      "stateMutability": "payable",
      "type": "function"
    },
    {
      "stateMutability": "payable",
      "type": "receive"
    }
  ],
  "bytecode": "0x608060405234801561001057600080fd5b50614d1a806100206000396000f3fe6080604052600436106100e15760003560e01c806379055d251161007f578063a213e92911610059578063a213e929146102e9578063a959d58514610319578063ee95444b14610349578063fc55ea9d14610379576100e8565b806379055d251461024b5780637bea0d1c1461028d5780639759e7f7146102b9576100e8565b80635e8b2da9116100bb5780635e8b2da91461017d57806364cf36d4146101ad5780636b549372146101eb57806373277d0a1461021b576100e8565b806306655b94146100ed5780631083bb781461011d5780631215f0251461014d576100e8565b366100e857005b600080fd5b61010760048036038101906101029190613522565b6103a9565b6040516101149190613586565b60405180910390f35b61013760048036038101906101329190613522565b6104b2565b6040516101449190613586565b60405180910390f35b61016760048036038101906101629190613522565b610664565b6040516101749190613586565b60405180910390f35b610197600480360381019061019291906135a1565b61070f565b6040516101a49190613586565b60405180910390f35b3480156101b957600080fd5b506101d460048036038101906101cf9190613522565b610968565b6040516101e2929190613b6d565b60405180910390f35b610205600480360381019061020091906135a1565b61145f565b6040516102129190613586565b60405180910390f35b610235600480360381019061023091906135a1565b6116cb565b6040516102429190613586565b60405180910390f35b34801561025757600080fd5b50610272600480360381019061026d9190613522565b61190a565b60405161028496959493929190613c74565b60405180910390f35b34801561029957600080fd5b506102a2611f9c565b6040516102b0929190613b6d565b60405180910390f35b6102d360048036038101906102ce9190613522565b612771565b6040516102e09190613586565b60405180910390f35b61030360048036038101906102fe9190613de5565b61287a565b6040516103109190613586565b60405180910390f35b610333600480360381019061032e9190613522565b612e0e565b6040516103409190613586565b60405180910390f35b610363600480360381019061035e9190613522565b612e47565b6040516103709190613586565b60405180910390f35b610393600480360381019061038e9190613522565b612ef2565b6040516103a09190613586565b60405180910390f35b6000808251116103ee576040517f08c379a00000000000000000000000000000000000000000000000000000000081526004016103e590613fc7565b60405180910390fd5b60006001836040516104009190614023565b9081526020016040518091039020600001805461041c90614069565b9050111561045f576040517f08c379a0000000000000000000000000000000000000000000000000000000008152600401610456906140e6565b60405180910390fd5b61046761308d565b828160000181905250806001846040516104819190614023565b908152602001604051809103902060008201518160000190816104a491906142b2565b509050506001915050919050565b6000808251116104f7576040517f08c379a00000000000000000000000000000000000000000000000000000000081526004016104ee90613fc7565b60405180910390fd5b60006003836040516105099190614023565b9081526020016040518091039020600001805461052590614069565b90501115610568576040517f08c379a000000000000000000000000000000000000000000000000000000000815260040161055f906140e6565b60405180910390fd5b6003826040516105789190614023565b908152602001604051809103902060010160009054906101000a900460ff16156105a5576000905061065f565b6105ad6130a0565b8281600001819052506001816020019015159081151581525050806003846040516105d89190614023565b908152602001604051809103902060008201518160000190816105fb91906142b2565b5060208201518160010160006101000a81548160ff02191690831515021790555060408201518160020190805190602001906106389291906130ca565b5060608201518160030190805190602001906106559291906130ca565b5090505060019150505b919050565b6000806001836040516106779190614023565b9081526020016040518091039020600001805461069390614069565b9050116106d5576040517f08c379a00000000000000000000000000000000000000000000000000000000081526004016106cc906143d0565b60405180910390fd5b6001826040516106e59190614023565b9081526020016040518091039020600080820160006107049190613123565b505060019050919050565b6000806000856040516107229190614023565b9081526020016040518091039020905061073b85612e0e565b61077a576040517f08c379a00000000000000000000000000000000000000000000000000000000081526004016107719061443c565b60405180910390fd5b60028081111561078d5761078c6136f3565b5b8160040160009054906101000a900460ff1660028111156107b1576107b06136f3565b5b036107f1576040517f08c379a00000000000000000000000000000000000000000000000000000000081526004016107e8906144a8565b60405180910390fd5b60016002811115610805576108046136f3565b5b8160040160009054906101000a900460ff166002811115610829576108286136f3565b5b03610869576040517f08c379a0000000000000000000000000000000000000000000000000000000008152600401610860906144a8565b60405180910390fd5b60008451116108ad576040517f08c379a00000000000000000000000000000000000000000000000000000000081526004016108a490614514565b60405180910390fd5b60028160040160006101000a81548160ff021916908360028111156108d5576108d46136f3565b5b02179055506108e2613163565b428160000181815250508481602001819052506040518060400160405280600881526020017f43616e63656c65640000000000000000000000000000000000000000000000008152508160400181905250836040516020016109449190614580565b60405160208183030381529060405281606001819052506001925050509392505050565b6060806000805b600480549050811015610b4e57600060048281548110610992576109916145a2565b5b9060005260206000200180546109a790614069565b80601f01602080910402602001604051908101604052809291908181526020018280546109d390614069565b8015610a205780601f106109f557610100808354040283529160200191610a20565b820191906000526020600020905b815481529060010190602001808311610a0357829003601f168201915b5050505050905060008082604051610a389190614023565b9081526020016040518091039020600501805480602002602001604051908101604052809291908181526020016000905b82821015610b15578382906000526020600020018054610a8890614069565b80601f0160208091040260200160405190810160405280929190818152602001828054610ab490614069565b8015610b015780601f10610ad657610100808354040283529160200191610b01565b820191906000526020600020905b815481529060010190602001808311610ae457829003601f168201915b505050505081526020019060010190610a69565b505050509050610b258188612fd1565b15610b39578380610b3590614600565b9450505b50508080610b4690614600565b91505061096f565b5060008167ffffffffffffffff811115610b6b57610b6a6133f7565b5b604051908082528060200260200182016040528015610ba457816020015b610b91613192565b815260200190600190039081610b895790505b50905060008267ffffffffffffffff811115610bc357610bc26133f7565b5b604051908082528060200260200182016040528015610bf657816020015b6060815260200190600190039081610be15790505b5090506000805b60048054905081101561144f57600060048281548110610c2057610c1f6145a2565b5b906000526020600020018054610c3590614069565b80601f0160208091040260200160405190810160405280929190818152602001828054610c6190614069565b8015610cae5780601f10610c8357610100808354040283529160200191610cae565b820191906000526020600020905b815481529060010190602001808311610c9157829003601f168201915b5050505050905060008082604051610cc69190614023565b9081526020016040518091039020600501805480602002602001604051908101604052809291908181526020016000905b82821015610da3578382906000526020600020018054610d1690614069565b80601f0160208091040260200160405190810160405280929190818152602001828054610d4290614069565b8015610d8f5780601f10610d6457610100808354040283529160200191610d8f565b820191906000526020600020905b815481529060010190602001808311610d7257829003601f168201915b505050505081526020019060010190610cf7565b505050509050610db3818b612fd1565b1561143a57600082604051610dc89190614023565b90815260200160405180910390206040518060e0016040529081600082018054610df190614069565b80601f0160208091040260200160405190810160405280929190818152602001828054610e1d90614069565b8015610e6a5780601f10610e3f57610100808354040283529160200191610e6a565b820191906000526020600020905b815481529060010190602001808311610e4d57829003601f168201915b50505050508152602001600182018054610e8390614069565b80601f0160208091040260200160405190810160405280929190818152602001828054610eaf90614069565b8015610efc5780601f10610ed157610100808354040283529160200191610efc565b820191906000526020600020905b815481529060010190602001808311610edf57829003601f168201915b50505050508152602001600282018054610f1590614069565b80601f0160208091040260200160405190810160405280929190818152602001828054610f4190614069565b8015610f8e5780601f10610f6357610100808354040283529160200191610f8e565b820191906000526020600020905b815481529060010190602001808311610f7157829003601f168201915b50505050508152602001600382018054610fa790614069565b80601f0160208091040260200160405190810160405280929190818152602001828054610fd390614069565b80156110205780601f10610ff557610100808354040283529160200191611020565b820191906000526020600020905b81548152906001019060200180831161100357829003601f168201915b505050505081526020016004820160009054906101000a900460ff16600281111561104e5761104d6136f3565b5b60028111156110605761105f6136f3565b5b815260200160058201805480602002602001604051908101604052809291908181526020016000905b828210156111355783829060005260206000200180546110a890614069565b80601f01602080910402602001604051908101604052809291908181526020018280546110d490614069565b80156111215780601f106110f657610100808354040283529160200191611121565b820191906000526020600020905b81548152906001019060200180831161110457829003601f168201915b505050505081526020019060010190611089565b50505050815260200160068201805480602002602001604051908101604052809291908181526020016000905b828210156113e657838290600052602060002090600502016040518060a00160405290816000820154815260200160018201805461119f90614069565b80601f01602080910402602001604051908101604052809291908181526020018280546111cb90614069565b80156112185780601f106111ed57610100808354040283529160200191611218565b820191906000526020600020905b8154815290600101906020018083116111fb57829003601f168201915b5050505050815260200160028201805461123190614069565b80601f016020809104026020016040519081016040528092919081815260200182805461125d90614069565b80156112aa5780601f1061127f576101008083540402835291602001916112aa565b820191906000526020600020905b81548152906001019060200180831161128d57829003601f168201915b505050505081526020016003820180546112c390614069565b80601f01602080910402602001604051908101604052809291908181526020018280546112ef90614069565b801561133c5780601f106113115761010080835404028352916020019161133c565b820191906000526020600020905b81548152906001019060200180831161131f57829003601f168201915b5050505050815260200160048201805461135590614069565b80601f016020809104026020016040519081016040528092919081815260200182805461138190614069565b80156113ce5780601f106113a3576101008083540402835291602001916113ce565b820191906000526020600020905b8154815290600101906020018083116113b157829003601f168201915b50505050508152505081526020019060010190611162565b5050505081525050868581518110611401576114006145a2565b5b6020026020010181905250818585815181106114205761141f6145a2565b5b6020026020010181905250838061143690614600565b9450505b5050808061144790614600565b915050610bfd565b5082829550955050505050915091565b6000806000856040516114729190614023565b9081526020016040518091039020905061148b85612e0e565b6114ca576040517f08c379a00000000000000000000000000000000000000000000000000000000081526004016114c19061443c565b60405180910390fd5b60006003856040516114dc9190614023565b908152602001604051809103902060000180546114f890614069565b90501161153a576040517f08c379a000000000000000000000000000000000000000000000000000000000815260040161153190614694565b60405180910390fd5b600083511161157e576040517f08c379a000000000000000000000000000000000000000000000000000000000815260040161157590614700565b60405180910390fd5b60018160040160006101000a81548160ff021916908360028111156115a6576115a56136f3565b5b02179055506115b3613163565b428160000181815250508381602001819052506040518060400160405280601081526020017f4d6f766520746f20637573746f6d657200000000000000000000000000000000815250816040018190525084604051602001611615919061476c565b60405160208183030381529060405281606001819052508160060181908060018154018082558091505060019003906000526020600020906005020160009091909190915060008201518160000155602082015181600101908161167991906142b2565b50604082015181600201908161168f91906142b2565b5060608201518160030190816116a591906142b2565b5060808201518160040190816116bb91906142b2565b5050506001925050509392505050565b6000806000856040516116de9190614023565b908152602001604051809103902090506116f785612e0e565b611736576040517f08c379a000000000000000000000000000000000000000000000000000000000815260040161172d9061443c565b60405180910390fd5b60006002856040516117489190614023565b9081526020016040518091039020600001805461176490614069565b9050116117a6576040517f08c379a000000000000000000000000000000000000000000000000000000000815260040161179d906147da565b60405180910390fd5b60008351116117ea576040517f08c379a00000000000000000000000000000000000000000000000000000000081526004016117e190614846565b60405180910390fd5b6117f2613163565b428160000181815250508381602001819052506040518060400160405280601281526020017f4d6f766520746f2073746f7265686f757365000000000000000000000000000081525081604001819052508460405160200161185491906148b2565b6040516020818303038152906040528160600181905250816006018190806001815401808255809150506001900390600052602060002090600502016000909190919091506000820151816000015560208201518160010190816118b891906142b2565b5060408201518160020190816118ce91906142b2565b5060608201518160030190816118e491906142b2565b5060808201518160040190816118fa91906142b2565b5050506001925050509392505050565b6060806060806060806000876040516119239190614023565b90815260200160405180910390206000016000886040516119449190614023565b90815260200160405180910390206001016000896040516119659190614023565b908152602001604051809103902060030160008a6040516119869190614023565b908152602001604051809103902060020160008b6040516119a79190614023565b908152602001604051809103902060050160008c6040516119c89190614023565b90815260200160405180910390206006018580546119e590614069565b80601f0160208091040260200160405190810160405280929190818152602001828054611a1190614069565b8015611a5e5780601f10611a3357610100808354040283529160200191611a5e565b820191906000526020600020905b815481529060010190602001808311611a4157829003601f168201915b50505050509550848054611a7190614069565b80601f0160208091040260200160405190810160405280929190818152602001828054611a9d90614069565b8015611aea5780601f10611abf57610100808354040283529160200191611aea565b820191906000526020600020905b815481529060010190602001808311611acd57829003601f168201915b50505050509450838054611afd90614069565b80601f0160208091040260200160405190810160405280929190818152602001828054611b2990614069565b8015611b765780601f10611b4b57610100808354040283529160200191611b76565b820191906000526020600020905b815481529060010190602001808311611b5957829003601f168201915b50505050509350828054611b8990614069565b80601f0160208091040260200160405190810160405280929190818152602001828054611bb590614069565b8015611c025780601f10611bd757610100808354040283529160200191611c02565b820191906000526020600020905b815481529060010190602001808311611be557829003601f168201915b5050505050925081805480602002602001604051908101604052809291908181526020016000905b82821015611cd6578382906000526020600020018054611c4990614069565b80601f0160208091040260200160405190810160405280929190818152602001828054611c7590614069565b8015611cc25780601f10611c9757610100808354040283529160200191611cc2565b820191906000526020600020905b815481529060010190602001808311611ca557829003601f168201915b505050505081526020019060010190611c2a565b50505050915080805480602002602001604051908101604052809291908181526020016000905b82821015611f8157838290600052602060002090600502016040518060a001604052908160008201548152602001600182018054611d3a90614069565b80601f0160208091040260200160405190810160405280929190818152602001828054611d6690614069565b8015611db35780601f10611d8857610100808354040283529160200191611db3565b820191906000526020600020905b815481529060010190602001808311611d9657829003601f168201915b50505050508152602001600282018054611dcc90614069565b80601f0160208091040260200160405190810160405280929190818152602001828054611df890614069565b8015611e455780601f10611e1a57610100808354040283529160200191611e45565b820191906000526020600020905b815481529060010190602001808311611e2857829003601f168201915b50505050508152602001600382018054611e5e90614069565b80601f0160208091040260200160405190810160405280929190818152602001828054611e8a90614069565b8015611ed75780601f10611eac57610100808354040283529160200191611ed7565b820191906000526020600020905b815481529060010190602001808311611eba57829003601f168201915b50505050508152602001600482018054611ef090614069565b80601f0160208091040260200160405190810160405280929190818152602001828054611f1c90614069565b8015611f695780601f10611f3e57610100808354040283529160200191611f69565b820191906000526020600020905b815481529060010190602001808311611f4c57829003601f168201915b50505050508152505081526020019060010190611cfd565b50505050905095509550955095509550955091939550919395565b6060806000600480549050905060008167ffffffffffffffff811115611fc557611fc46133f7565b5b604051908082528060200260200182016040528015611ffe57816020015b611feb613192565b815260200190600190039081611fe35790505b50905060005b8281101561269057600060048281548110612022576120216145a2565b5b906000526020600020016040516120399190614957565b90815260200160405180910390206040518060e001604052908160008201805461206290614069565b80601f016020809104026020016040519081016040528092919081815260200182805461208e90614069565b80156120db5780601f106120b0576101008083540402835291602001916120db565b820191906000526020600020905b8154815290600101906020018083116120be57829003601f168201915b505050505081526020016001820180546120f490614069565b80601f016020809104026020016040519081016040528092919081815260200182805461212090614069565b801561216d5780601f106121425761010080835404028352916020019161216d565b820191906000526020600020905b81548152906001019060200180831161215057829003601f168201915b5050505050815260200160028201805461218690614069565b80601f01602080910402602001604051908101604052809291908181526020018280546121b290614069565b80156121ff5780601f106121d4576101008083540402835291602001916121ff565b820191906000526020600020905b8154815290600101906020018083116121e257829003601f168201915b5050505050815260200160038201805461221890614069565b80601f016020809104026020016040519081016040528092919081815260200182805461224490614069565b80156122915780601f1061226657610100808354040283529160200191612291565b820191906000526020600020905b81548152906001019060200180831161227457829003601f168201915b505050505081526020016004820160009054906101000a900460ff1660028111156122bf576122be6136f3565b5b60028111156122d1576122d06136f3565b5b815260200160058201805480602002602001604051908101604052809291908181526020016000905b828210156123a657838290600052602060002001805461231990614069565b80601f016020809104026020016040519081016040528092919081815260200182805461234590614069565b80156123925780601f1061236757610100808354040283529160200191612392565b820191906000526020600020905b81548152906001019060200180831161237557829003601f168201915b5050505050815260200190600101906122fa565b50505050815260200160068201805480602002602001604051908101604052809291908181526020016000905b8282101561265757838290600052602060002090600502016040518060a00160405290816000820154815260200160018201805461241090614069565b80601f016020809104026020016040519081016040528092919081815260200182805461243c90614069565b80156124895780601f1061245e57610100808354040283529160200191612489565b820191906000526020600020905b81548152906001019060200180831161246c57829003601f168201915b505050505081526020016002820180546124a290614069565b80601f01602080910402602001604051908101604052809291908181526020018280546124ce90614069565b801561251b5780601f106124f05761010080835404028352916020019161251b565b820191906000526020600020905b8154815290600101906020018083116124fe57829003601f168201915b5050505050815260200160038201805461253490614069565b80601f016020809104026020016040519081016040528092919081815260200182805461256090614069565b80156125ad5780601f10612582576101008083540402835291602001916125ad565b820191906000526020600020905b81548152906001019060200180831161259057829003601f168201915b505050505081526020016004820180546125c690614069565b80601f01602080910402602001604051908101604052809291908181526020018280546125f290614069565b801561263f5780601f106126145761010080835404028352916020019161263f565b820191906000526020600020905b81548152906001019060200180831161262257829003601f168201915b505050505081525050815260200190600101906123d3565b5050505081525050828281518110612672576126716145a2565b5b6020026020010181905250808061268890614600565b915050612004565b5080600480805480602002602001604051908101604052809291908181526020016000905b828210156127615783829060005260206000200180546126d490614069565b80601f016020809104026020016040519081016040528092919081815260200182805461270090614069565b801561274d5780601f106127225761010080835404028352916020019161274d565b820191906000526020600020905b81548152906001019060200180831161273057829003601f168201915b5050505050815260200190600101906126b5565b5050505090509350935050509091565b6000808251116127b6576040517f08c379a00000000000000000000000000000000000000000000000000000000081526004016127ad90613fc7565b60405180910390fd5b60006002836040516127c89190614023565b908152602001604051809103902060000180546127e490614069565b90501115612827576040517f08c379a000000000000000000000000000000000000000000000000000000000815260040161281e906140e6565b60405180910390fd5b61282f6131e1565b828160000181905250806002846040516128499190614023565b9081526020016040518091039020600082015181600001908161286c91906142b2565b509050506001915050919050565b60008060038860405161288d9190614023565b908152602001604051809103902060000180546128a990614069565b9050116128eb576040517f08c379a00000000000000000000000000000000000000000000000000000000081526004016128e2906149ba565b60405180910390fd5b60006003876040516128fd9190614023565b9081526020016040518091039020600001805461291990614069565b90501161295b576040517f08c379a0000000000000000000000000000000000000000000000000000000008152600401612952906149ba565b60405180910390fd5b600089511161299f576040517f08c379a000000000000000000000000000000000000000000000000000000000815260040161299690614a26565b60405180910390fd5b6129a889612e0e565b156129e8576040517f08c379a00000000000000000000000000000000000000000000000000000000081526004016129df90614ab8565b60405180910390fd5b6000808a6040516129f99190614023565b9081526020016040518091039020905087816000019081612a1a91906142b2565b5086816001019081612a2c91906142b2565b5084816003019081612a3e91906142b2565b5085816002019081612a5091906142b2565b508060050189908060018154018082558091505060019003906000526020600020016000909190919091509081612a8791906142b2565b50612a90613163565b428160000181815250506040518060400160405280600981526020017f5265717565737465640000000000000000000000000000000000000000000000815250816040018190525089604051602001612ae99190614b24565b604051602081830303815290604052816060018190525089816080018190525084816020018190525081600601819080600181540180825580915050600190039060005260206000209060050201600090919091909150600082015181600001556020820151816001019081612b5f91906142b2565b506040820151816002019081612b7591906142b2565b506060820151816003019081612b8b91906142b2565b506080820151816004019081612ba191906142b2565b505050600389604051612bb49190614023565b90815260200160405180910390206003018b908060018154018082558091505060019003906000526020600020016000909190919091509081612bf791906142b2565b50600388604051612c089190614023565b90815260200160405180910390206002018b908060018154018082558091505060019003906000526020600020016000909190919091509081612c4b91906142b2565b508160008c604051612c5d9190614023565b908152602001604051809103902060008201816000019081612c7f9190614b5c565b5060018201816001019081612c949190614b5c565b5060028201816002019081612ca99190614b5c565b5060038201816003019081612cbe9190614b5c565b506004820160009054906101000a900460ff168160040160006101000a81548160ff02191690836002811115612cf757612cf66136f3565b5b02179055506005820181600501908054612d129291906131f4565b506006820181600601908054612d29929190613251565b5090505060048b908060018154018082558091505060019003906000526020600020016000909190919091509081612d6191906142b2565b5060005b60018551612d739190614c44565b811015612dfb5760008c604051612d8a9190614023565b9081526020016040518091039020600501858281518110612dae57612dad6145a2565b5b6020026020010151908060018154018082558091505060019003906000526020600020016000909190919091509081612de791906142b2565b508080612df390614600565b915050612d65565b5060019250505098975050505050505050565b600080600083604051612e219190614023565b90815260200160405180910390206000018054612e3d90614069565b9050119050919050565b600080600283604051612e5a9190614023565b90815260200160405180910390206000018054612e7690614069565b905011612eb8576040517f08c379a0000000000000000000000000000000000000000000000000000000008152600401612eaf90614cc4565b60405180910390fd5b600282604051612ec89190614023565b908152602001604051809103902060008082016000612ee79190613123565b505060019050919050565b600080600383604051612f059190614023565b90815260200160405180910390206000018054612f2190614069565b905011612f63576040517f08c379a0000000000000000000000000000000000000000000000000000000008152600401612f5a906149ba565b60405180910390fd5b600382604051612f739190614023565b908152602001604051809103902060008082016000612f929190613123565b6001820160006101000a81549060ff0219169055600282016000612fb69190613307565b600382016000612fc69190613307565b505060019050919050565b600080600090505b835181101561302857613006848281518110612ff857612ff76145a2565b5b602002602001015184613034565b1561301557600191505061302e565b808061302090614600565b915050612fd9565b50600090505b92915050565b6000816040516020016130479190614023565b604051602081830303815290604052805190602001208360405160200161306e9190614023565b6040516020818303038152906040528051906020012014905092915050565b6040518060200160405280606081525090565b60405180608001604052806060815260200160001515815260200160608152602001606081525090565b828054828255906000526020600020908101928215613112579160200282015b8281111561311157825182908161310191906142b2565b50916020019190600101906130ea565b5b50905061311f9190613328565b5090565b50805461312f90614069565b6000825580601f106131415750613160565b601f01602090049060005260206000209081019061315f919061334c565b5b50565b6040518060a0016040528060008152602001606081526020016060815260200160608152602001606081525090565b6040518060e0016040528060608152602001606081526020016060815260200160608152602001600060028111156131cd576131cc6136f3565b5b815260200160608152602001606081525090565b6040518060200160405280606081525090565b8280548282559060005260206000209081019282156132405760005260206000209182015b8281111561323f578282908161322f9190614b5c565b5091600101919060010190613219565b5b50905061324d9190613328565b5090565b8280548282559060005260206000209060050281019282156132f65760005260206000209160050282015b828111156132f557828260008201548160000155600182018160010190816132a49190614b5c565b50600282018160020190816132b99190614b5c565b50600382018160030190816132ce9190614b5c565b50600482018160040190816132e39190614b5c565b5050509160050191906005019061327c565b5b5090506133039190613369565b5090565b50805460008255906000526020600020908101906133259190613328565b50565b5b80821115613348576000818161333f9190613123565b50600101613329565b5090565b5b8082111561336557600081600090555060010161334d565b5090565b5b808211156133c45760008082016000905560018201600061338b9190613123565b60028201600061339b9190613123565b6003820160006133ab9190613123565b6004820160006133bb9190613123565b5060050161336a565b5090565b6000604051905090565b600080fd5b600080fd5b600080fd5b600080fd5b6000601f19601f8301169050919050565b7f4e487b7100000000000000000000000000000000000000000000000000000000600052604160045260246000fd5b61342f826133e6565b810181811067ffffffffffffffff8211171561344e5761344d6133f7565b5b80604052505050565b60006134616133c8565b905061346d8282613426565b919050565b600067ffffffffffffffff82111561348d5761348c6133f7565b5b613496826133e6565b9050602081019050919050565b82818337600083830152505050565b60006134c56134c084613472565b613457565b9050828152602081018484840111156134e1576134e06133e1565b5b6134ec8482856134a3565b509392505050565b600082601f830112613509576135086133dc565b5b81356135198482602086016134b2565b91505092915050565b600060208284031215613538576135376133d2565b5b600082013567ffffffffffffffff811115613556576135556133d7565b5b613562848285016134f4565b91505092915050565b60008115159050919050565b6135808161356b565b82525050565b600060208201905061359b6000830184613577565b92915050565b6000806000606084860312156135ba576135b96133d2565b5b600084013567ffffffffffffffff8111156135d8576135d76133d7565b5b6135e4868287016134f4565b935050602084013567ffffffffffffffff811115613605576136046133d7565b5b613611868287016134f4565b925050604084013567ffffffffffffffff811115613632576136316133d7565b5b61363e868287016134f4565b9150509250925092565b600081519050919050565b600082825260208201905092915050565b6000819050602082019050919050565b600081519050919050565b600082825260208201905092915050565b60005b838110156136ae578082015181840152602081019050613693565b60008484015250505050565b60006136c582613674565b6136cf818561367f565b93506136df818560208601613690565b6136e8816133e6565b840191505092915050565b7f4e487b7100000000000000000000000000000000000000000000000000000000600052602160045260246000fd5b60038110613733576137326136f3565b5b50565b600081905061374482613722565b919050565b600061375482613736565b9050919050565b61376481613749565b82525050565b600081519050919050565b600082825260208201905092915050565b6000819050602082019050919050565b60006137a283836136ba565b905092915050565b6000602082019050919050565b60006137c28261376a565b6137cc8185613775565b9350836020820285016137de85613786565b8060005b8581101561381a57848403895281516137fb8582613796565b9450613806836137aa565b925060208a019950506001810190506137e2565b50829750879550505050505092915050565b600081519050919050565b600082825260208201905092915050565b6000819050602082019050919050565b6000819050919050565b61386b81613858565b82525050565b600060a0830160008301516138896000860182613862565b50602083015184820360208601526138a182826136ba565b915050604083015184820360408601526138bb82826136ba565b915050606083015184820360608601526138d582826136ba565b915050608083015184820360808601526138ef82826136ba565b9150508091505092915050565b60006139088383613871565b905092915050565b6000602082019050919050565b60006139288261382c565b6139328185613837565b93508360208202850161394485613848565b8060005b85811015613980578484038952815161396185826138fc565b945061396c83613910565b925060208a01995050600181019050613948565b50829750879550505050505092915050565b600060e08301600083015184820360008601526139af82826136ba565b915050602083015184820360208601526139c982826136ba565b915050604083015184820360408601526139e382826136ba565b915050606083015184820360608601526139fd82826136ba565b9150506080830151613a12608086018261375b565b5060a083015184820360a0860152613a2a82826137b7565b91505060c083015184820360c0860152613a44828261391d565b9150508091505092915050565b6000613a5d8383613992565b905092915050565b6000602082019050919050565b6000613a7d82613648565b613a878185613653565b935083602082028501613a9985613664565b8060005b85811015613ad55784840389528151613ab68582613a51565b9450613ac183613a65565b925060208a01995050600181019050613a9d565b50829750879550505050505092915050565b600082825260208201905092915050565b6000613b038261376a565b613b0d8185613ae7565b935083602082028501613b1f85613786565b8060005b85811015613b5b5784840389528151613b3c8582613796565b9450613b47836137aa565b925060208a01995050600181019050613b23565b50829750879550505050505092915050565b60006040820190508181036000830152613b878185613a72565b90508181036020830152613b9b8184613af8565b90509392505050565b600082825260208201905092915050565b6000613bc082613674565b613bca8185613ba4565b9350613bda818560208601613690565b613be3816133e6565b840191505092915050565b600082825260208201905092915050565b6000613c0a8261382c565b613c148185613bee565b935083602082028501613c2685613848565b8060005b85811015613c625784840389528151613c4385826138fc565b9450613c4e83613910565b925060208a01995050600181019050613c2a565b50829750879550505050505092915050565b600060c0820190508181036000830152613c8e8189613bb5565b90508181036020830152613ca28188613bb5565b90508181036040830152613cb68187613bb5565b90508181036060830152613cca8186613bb5565b90508181036080830152613cde8185613af8565b905081810360a0830152613cf28184613bff565b9050979650505050505050565b600067ffffffffffffffff821115613d1a57613d196133f7565b5b602082029050602081019050919050565b600080fd5b6000613d43613d3e84613cff565b613457565b90508083825260208201905060208402830185811115613d6657613d65613d2b565b5b835b81811015613dad57803567ffffffffffffffff811115613d8b57613d8a6133dc565b5b808601613d9889826134f4565b85526020850194505050602081019050613d68565b5050509392505050565b600082601f830112613dcc57613dcb6133dc565b5b8135613ddc848260208601613d30565b91505092915050565b600080600080600080600080610100898b031215613e0657613e056133d2565b5b600089013567ffffffffffffffff811115613e2457613e236133d7565b5b613e308b828c016134f4565b985050602089013567ffffffffffffffff811115613e5157613e506133d7565b5b613e5d8b828c016134f4565b975050604089013567ffffffffffffffff811115613e7e57613e7d6133d7565b5b613e8a8b828c016134f4565b965050606089013567ffffffffffffffff811115613eab57613eaa6133d7565b5b613eb78b828c016134f4565b955050608089013567ffffffffffffffff811115613ed857613ed76133d7565b5b613ee48b828c016134f4565b94505060a089013567ffffffffffffffff811115613f0557613f046133d7565b5b613f118b828c016134f4565b93505060c089013567ffffffffffffffff811115613f3257613f316133d7565b5b613f3e8b828c016134f4565b92505060e089013567ffffffffffffffff811115613f5f57613f5e6133d7565b5b613f6b8b828c01613db7565b9150509295985092959890939650565b7f456d61696c206973207265717569726564000000000000000000000000000000600082015250565b6000613fb1601183613ba4565b9150613fbc82613f7b565b602082019050919050565b60006020820190508181036000830152613fe081613fa4565b9050919050565b600081905092915050565b6000613ffd82613674565b6140078185613fe7565b9350614017818560208601613690565b80840191505092915050565b600061402f8284613ff2565b915081905092915050565b7f4e487b7100000000000000000000000000000000000000000000000000000000600052602260045260246000fd5b6000600282049050600182168061408157607f821691505b6020821081036140945761409361403a565b5b50919050565b7f456d61696c20616c726561647920657869737400000000000000000000000000600082015250565b60006140d0601383613ba4565b91506140db8261409a565b602082019050919050565b600060208201905081810360008301526140ff816140c3565b9050919050565b60008190508160005260206000209050919050565b60006020601f8301049050919050565b600082821b905092915050565b6000600883026141687fffffffffffffffffffffffffffffffffffffffffffffffffffffffffffffffff8261412b565b614172868361412b565b95508019841693508086168417925050509392505050565b6000819050919050565b60006141af6141aa6141a584613858565b61418a565b613858565b9050919050565b6000819050919050565b6141c983614194565b6141dd6141d5826141b6565b848454614138565b825550505050565b600090565b6141f26141e5565b6141fd8184846141c0565b505050565b5b81811015614221576142166000826141ea565b600181019050614203565b5050565b601f8211156142665761423781614106565b6142408461411b565b8101602085101561424f578190505b61426361425b8561411b565b830182614202565b50505b505050565b600082821c905092915050565b60006142896000198460080261426b565b1980831691505092915050565b60006142a28383614278565b9150826002028217905092915050565b6142bb82613674565b67ffffffffffffffff8111156142d4576142d36133f7565b5b6142de8254614069565b6142e9828285614225565b600060209050601f83116001811461431c576000841561430a578287015190505b6143148582614296565b86555061437c565b601f19841661432a86614106565b60005b828110156143525784890151825560018201915060208501945060208101905061432d565b8683101561436f578489015161436b601f891682614278565b8355505b6001600288020188555050505b505050505050565b7f5368697070696e672063656e74657220646f6573206e6f742065786973740000600082015250565b60006143ba601e83613ba4565b91506143c582614384565b602082019050919050565b600060208201905081810360008301526143e9816143ad565b9050919050565b7f4f72646572206d75737420626520657869737400000000000000000000000000600082015250565b6000614426601383613ba4565b9150614431826143f0565b602082019050919050565b6000602082019050818103600083015261445581614419565b9050919050565b7f4f72646572206d75737420626520696e2073797374656d000000000000000000600082015250565b6000614492601783613ba4565b915061449d8261445c565b602082019050919050565b600060208201905081810360008301526144c181614485565b9050919050565b7f43616e63656c6564206461746520697320726571756972656400000000000000600082015250565b60006144fe601983613ba4565b9150614509826144c8565b602082019050919050565b6000602082019050818103600083015261452d816144f1565b9050919050565b7f43616e63656c65643a0000000000000000000000000000000000000000000000600082015250565b600061456a600983613fe7565b915061457582614534565b600982019050919050565b600061458b8261455d565b91506145978284613ff2565b915081905092915050565b7f4e487b7100000000000000000000000000000000000000000000000000000000600052603260045260246000fd5b7f4e487b7100000000000000000000000000000000000000000000000000000000600052601160045260246000fd5b600061460b82613858565b91507fffffffffffffffffffffffffffffffffffffffffffffffffffffffffffffffff820361463d5761463c6145d1565b5b600182019050919050565b7f437573746f6d6572206d75737420626520657869737400000000000000000000600082015250565b600061467e601683613ba4565b915061468982614648565b602082019050919050565b600060208201905081810360008301526146ad81614671565b9050919050565b7f4d6f76696e6720646174652063616e6e6f7420626520656d7074790000000000600082015250565b60006146ea601b83613ba4565b91506146f5826146b4565b602082019050919050565b60006020820190508181036000830152614719816146dd565b9050919050565b7f437573746f6d65723a0000000000000000000000000000000000000000000000600082015250565b6000614756600983613fe7565b915061476182614720565b600982019050919050565b600061477782614749565b91506147838284613ff2565b915081905092915050565b7f53746f7265686f757365206d7573742062652065786973740000000000000000600082015250565b60006147c4601883613ba4565b91506147cf8261478e565b602082019050919050565b600060208201905081810360008301526147f3816147b7565b9050919050565b7f4d6f76696e672064617465206973207265717569726564000000000000000000600082015250565b6000614830601783613ba4565b915061483b826147fa565b602082019050919050565b6000602082019050818103600083015261485f81614823565b9050919050565b7f53746f7265686f7573653a000000000000000000000000000000000000000000600082015250565b600061489c600b83613fe7565b91506148a782614866565b600b82019050919050565b60006148bd8261488f565b91506148c98284613ff2565b915081905092915050565b600081546148e181614069565b6148eb8186613fe7565b94506001821660008114614906576001811461491b5761494e565b60ff198316865281151582028601935061494e565b61492485614106565b60005b8381101561494657815481890152600182019150602081019050614927565b838801955050505b50505092915050565b600061496382846148d4565b915081905092915050565b7f437573746f6d657220646f6573206e6f74206578697374000000000000000000600082015250565b60006149a4601783613ba4565b91506149af8261496e565b602082019050919050565b600060208201905081810360008301526149d381614997565b9050919050565b7f4f72646572494420697320726571756972656400000000000000000000000000600082015250565b6000614a10601383613ba4565b9150614a1b826149da565b602082019050919050565b60006020820190508181036000830152614a3f81614a03565b9050919050565b7f4f726465722077697468207468652073616d6520494420616c7265616479206560008201527f7869737473000000000000000000000000000000000000000000000000000000602082015250565b6000614aa2602583613ba4565b9150614aad82614a46565b604082019050919050565b60006020820190508181036000830152614ad181614a95565b9050919050565b7f5368697070696e672043656e7465723a00000000000000000000000000000000600082015250565b6000614b0e601083613fe7565b9150614b1982614ad8565b601082019050919050565b6000614b2f82614b01565b9150614b3b8284613ff2565b915081905092915050565b600081549050614b5581614069565b9050919050565b818103614b6a575050614c42565b614b7382614b46565b67ffffffffffffffff811115614b8c57614b8b6133f7565b5b614b968254614069565b614ba1828285614225565b6000601f831160018114614bd05760008415614bbe578287015490505b614bc88582614296565b865550614c3b565b601f198416614bde87614106565b9650614be986614106565b60005b82811015614c1157848901548255600182019150600185019450602081019050614bec565b86831015614c2e5784890154614c2a601f891682614278565b8355505b6001600288020188555050505b5050505050505b565b6000614c4f82613858565b9150614c5a83613858565b9250828203905081811115614c7257614c716145d1565b5b92915050565b7f53746f7265686f75736520646f6573206e6f7420657869737400000000000000600082015250565b6000614cae601983613ba4565b9150614cb982614c78565b602082019050919050565b60006020820190508181036000830152614cdd81614ca1565b905091905056fea26469706673582212204312ffc7f9c854dd2eb0c9ccc6c4fd04dd3b4081b7679a9c98cca93e56fc585564736f6c63430008130033",
  "linkReferences": {},
  "deployedLinkReferences": {}
}