{
  "_format": "hh-sol-artifact-1",
  "contractName": "SMBPOST",
  "sourceName": "contracts/SMBPOST.sol",
  "abi": [
    {
      "inputs": [
        {
          "internalType": "string",
          "name": "_posType",
          "type": "string"
        },
        {
          "internalType": "string",
          "name": "_posName",
          "type": "string"
        },
        {
          "internalType": "string",
          "name": "_orderID",
          "type": "string"
        }
      ],
      "name": "addOrderWay",
      "outputs": [
        {
          "internalType": "bool",
          "name": "",
          "type": "bool"
        }
      ],
      "stateMutability": "payable",
      "type": "function"
    },
    {
      "inputs": [
        {
          "internalType": "string",
          "name": "_orderID",
          "type": "string"
        },
        {
          "internalType": "string",
          "name": "_canceledDate",
          "type": "string"
        },
        {
          "internalType": "string",
          "name": "_reason",
          "type": "string"
        }
      ],
      "name": "cancelAnOrder",
      "outputs": [
        {
          "internalType": "bool",
          "name": "",
          "type": "bool"
        }
      ],
      "stateMutability": "payable",
      "type": "function"
    },
    {
      "inputs": [
        {
          "internalType": "string",
          "name": "_email",
          "type": "string"
        },
        {
          "internalType": "string",
          "name": "_phoneNumber",
          "type": "string"
        },
        {
          "internalType": "string",
          "name": "_name",
          "type": "string"
        },
        {
          "internalType": "string",
          "name": "_cusPos",
          "type": "string"
        }
      ],
      "name": "createCustomer",
      "outputs": [
        {
          "internalType": "bool",
          "name": "",
          "type": "bool"
        }
      ],
      "stateMutability": "payable",
      "type": "function"
    },
    {
      "inputs": [
        {
          "internalType": "string",
          "name": "_orderID",
          "type": "string"
        },
        {
          "internalType": "string",
          "name": "_shippingCenterEmail",
          "type": "string"
        },
        {
          "internalType": "string",
          "name": "_senderPhone",
          "type": "string"
        },
        {
          "internalType": "string",
          "name": "_receiverPhone",
          "type": "string"
        },
        {
          "internalType": "string",
          "name": "_note",
          "type": "string"
        },
        {
          "internalType": "uint256",
          "name": "_size",
          "type": "uint256"
        },
        {
          "internalType": "uint256",
          "name": "_weight",
          "type": "uint256"
        },
        {
          "internalType": "uint256",
          "name": "_deposit",
          "type": "uint256"
        },
        {
          "internalType": "string",
          "name": "_imageURL",
          "type": "string"
        },
        {
          "internalType": "string",
          "name": "_requestDate",
          "type": "string"
        }
      ],
      "name": "createOrder",
      "outputs": [
        {
          "internalType": "bool",
          "name": "",
          "type": "bool"
        }
      ],
      "stateMutability": "payable",
      "type": "function"
    },
    {
      "inputs": [
        {
          "internalType": "string",
          "name": "_email",
          "type": "string"
        },
        {
          "internalType": "string",
          "name": "_phoneNumber",
          "type": "string"
        },
        {
          "internalType": "string",
          "name": "_name",
          "type": "string"
        },
        {
          "internalType": "string",
          "name": "_pos",
          "type": "string"
        }
      ],
      "name": "createShippingCenter",
      "outputs": [
        {
          "internalType": "bool",
          "name": "",
          "type": "bool"
        }
      ],
      "stateMutability": "payable",
      "type": "function"
    },
    {
      "inputs": [
        {
          "internalType": "string",
          "name": "_email",
          "type": "string"
        },
        {
          "internalType": "string",
          "name": "_phoneNumber",
          "type": "string"
        },
        {
          "internalType": "string",
          "name": "_name",
          "type": "string"
        },
        {
          "internalType": "string",
          "name": "_pos",
          "type": "string"
        }
      ],
      "name": "createStorehouse",
      "outputs": [
        {
          "internalType": "bool",
          "name": "",
          "type": "bool"
        }
      ],
      "stateMutability": "payable",
      "type": "function"
    },
    {
      "inputs": [
        {
          "internalType": "string",
          "name": "_customerEmail",
          "type": "string"
        }
      ],
      "name": "getCustomerDetail",
      "outputs": [
        {
          "internalType": "string",
          "name": "",
          "type": "string"
        },
        {
          "internalType": "string",
          "name": "",
          "type": "string"
        },
        {
          "internalType": "string",
          "name": "",
          "type": "string"
        },
        {
          "internalType": "string",
          "name": "",
          "type": "string"
        }
      ],
      "stateMutability": "view",
      "type": "function"
    },
    {
      "inputs": [
        {
          "internalType": "string",
          "name": "_orderID",
          "type": "string"
        }
      ],
      "name": "getOrderDetail",
      "outputs": [
        {
          "internalType": "uint256",
          "name": "",
          "type": "uint256"
        },
        {
          "internalType": "uint256",
          "name": "",
          "type": "uint256"
        },
        {
          "internalType": "uint256",
          "name": "",
          "type": "uint256"
        },
        {
          "internalType": "string",
          "name": "",
          "type": "string"
        },
        {
          "internalType": "string",
          "name": "",
          "type": "string"
        },
        {
          "internalType": "string",
          "name": "",
          "type": "string"
        },
        {
          "components": [
            {
              "internalType": "string",
              "name": "posName",
              "type": "string"
            },
            {
              "internalType": "string",
              "name": "posType",
              "type": "string"
            }
          ],
          "internalType": "struct SMBPOST.OrderWay[]",
          "name": "",
          "type": "tuple[]"
        }
      ],
      "stateMutability": "view",
      "type": "function"
    },
    {
      "inputs": [
        {
          "internalType": "string",
          "name": "_orderID",
          "type": "string"
        }
      ],
      "name": "getOrderHistories",
      "outputs": [
        {
          "components": [
            {
              "internalType": "uint256",
              "name": "timestamp",
              "type": "uint256"
            },
            {
              "internalType": "string",
              "name": "date",
              "type": "string"
            },
            {
              "internalType": "string",
              "name": "action",
              "type": "string"
            },
            {
              "internalType": "string",
              "name": "detail",
              "type": "string"
            },
            {
              "internalType": "string",
              "name": "imageURL",
              "type": "string"
            }
          ],
          "internalType": "struct SMBPOST.HistoryOrder[]",
          "name": "",
          "type": "tuple[]"
        }
      ],
      "stateMutability": "view",
      "type": "function"
    },
    {
      "inputs": [
        {
          "internalType": "string",
          "name": "_shippingCenterEmail",
          "type": "string"
        }
      ],
      "name": "getShippingCenterDetail",
      "outputs": [
        {
          "internalType": "string",
          "name": "",
          "type": "string"
        },
        {
          "internalType": "string",
          "name": "",
          "type": "string"
        },
        {
          "internalType": "string",
          "name": "",
          "type": "string"
        },
        {
          "internalType": "string",
          "name": "",
          "type": "string"
        }
      ],
      "stateMutability": "view",
      "type": "function"
    },
    {
      "inputs": [
        {
          "internalType": "string",
          "name": "_storehouseEmail",
          "type": "string"
        }
      ],
      "name": "getStorehouseDetail",
      "outputs": [
        {
          "internalType": "string",
          "name": "",
          "type": "string"
        },
        {
          "internalType": "string",
          "name": "",
          "type": "string"
        },
        {
          "internalType": "string",
          "name": "",
          "type": "string"
        },
        {
          "internalType": "string",
          "name": "",
          "type": "string"
        }
      ],
      "stateMutability": "view",
      "type": "function"
    },
    {
      "inputs": [
        {
          "internalType": "string",
          "name": "_orderID",
          "type": "string"
        }
      ],
      "name": "orderExists",
      "outputs": [
        {
          "internalType": "bool",
          "name": "",
          "type": "bool"
        }
      ],
      "stateMutability": "payable",
      "type": "function"
    },
    {
      "inputs": [
        {
          "internalType": "string",
          "name": "_email",
          "type": "string"
        }
      ],
      "name": "removeCustomer",
      "outputs": [
        {
          "internalType": "bool",
          "name": "",
          "type": "bool"
        }
      ],
      "stateMutability": "payable",
      "type": "function"
    },
    {
      "inputs": [
        {
          "internalType": "string",
          "name": "_email",
          "type": "string"
        }
      ],
      "name": "removeShoppingCenter",
      "outputs": [
        {
          "internalType": "bool",
          "name": "",
          "type": "bool"
        }
      ],
      "stateMutability": "payable",
      "type": "function"
    },
    {
      "inputs": [
        {
          "internalType": "string",
          "name": "_email",
          "type": "string"
        }
      ],
      "name": "removeStorehouse",
      "outputs": [
        {
          "internalType": "bool",
          "name": "",
          "type": "bool"
        }
      ],
      "stateMutability": "payable",
      "type": "function"
    },
    {
      "inputs": [
        {
          "internalType": "string",
          "name": "_orderID",
          "type": "string"
        },
        {
          "internalType": "string",
          "name": "_customerEmail",
          "type": "string"
        },
        {
          "internalType": "string",
          "name": "_transferDate",
          "type": "string"
        }
      ],
      "name": "transferToCustomer",
      "outputs": [
        {
          "internalType": "bool",
          "name": "",
          "type": "bool"
        }
      ],
      "stateMutability": "payable",
      "type": "function"
    },
    {
      "inputs": [
        {
          "internalType": "string",
          "name": "_orderID",
          "type": "string"
        },
        {
          "internalType": "string",
          "name": "_shippingCenterEmail",
          "type": "string"
        },
        {
          "internalType": "string",
          "name": "_transferDate",
          "type": "string"
        }
      ],
      "name": "transferToShippingCenter",
      "outputs": [
        {
          "internalType": "bool",
          "name": "",
          "type": "bool"
        }
      ],
      "stateMutability": "payable",
      "type": "function"
    },
    {
      "inputs": [
        {
          "internalType": "string",
          "name": "_orderID",
          "type": "string"
        },
        {
          "internalType": "string",
          "name": "_storehouseEmail",
          "type": "string"
        },
        {
          "internalType": "string",
          "name": "_transferDate",
          "type": "string"
        }
      ],
      "name": "transferToStorehouse",
      "outputs": [
        {
          "internalType": "bool",
          "name": "",
          "type": "bool"
        }
      ],
      "stateMutability": "payable",
      "type": "function"
    },
    {
      "stateMutability": "payable",
      "type": "receive"
    }
  ],
  "bytecode": "0x608060405234801561001057600080fd5b50614ad5806100206000396000f3fe60806040526004361061010d5760003560e01c80638347fb0d11610095578063bc26ec5311610064578063bc26ec53146103c9578063e16e30b414610409578063e9c0f7da14610439578063ee95444b14610469578063fc55ea9d1461049957610114565b80638347fb0d146102f9578063a959d58514610329578063b0cf996514610359578063b51ca0af1461039957610114565b80635e8b2da9116100dc5780635e8b2da9146101f65780636b5493721461022657806373277d0a1461025657806374939fc11461028657806379055d25146102b657610114565b806311aac3bd146101195780631215f025146101565780632bedf18d14610186578063552c8b22146101c657610114565b3661011457005b600080fd5b34801561012557600080fd5b50610140600480360381019061013b91906133af565b6104c9565b60405161014d91906135dd565b60405180910390f35b610170600480360381019061016b91906133af565b61079b565b60405161017d919061361a565b60405180910390f35b34801561019257600080fd5b506101ad60048036038101906101a891906133af565b610876565b6040516101bd949392919061367f565b60405180910390f35b6101e060048036038101906101db91906136e0565b610b3f565b6040516101ed919061361a565b60405180910390f35b610210600480360381019061020b91906136e0565b610d7e565b60405161021d919061361a565b60405180910390f35b610240600480360381019061023b91906136e0565b610fd7565b60405161024d919061361a565b60405180910390f35b610270600480360381019061026b91906136e0565b611243565b60405161027d919061361a565b60405180910390f35b6102a0600480360381019061029b91906136e0565b611482565b6040516102ad919061361a565b60405180910390f35b3480156102c257600080fd5b506102dd60048036038101906102d891906133af565b611523565b6040516102f0979695949392919061389c565b60405180910390f35b610313600480360381019061030e9190613927565b611952565b604051610320919061361a565b60405180910390f35b610343600480360381019061033e91906133af565b611bcb565b604051610350919061361a565b60405180910390f35b34801561036557600080fd5b50610380600480360381019061037b91906133af565b611c04565b604051610390949392919061367f565b60405180910390f35b6103b360048036038101906103ae9190613927565b611ecd565b6040516103c0919061361a565b60405180910390f35b3480156103d557600080fd5b506103f060048036038101906103eb91906133af565b6121e6565b604051610400949392919061367f565b60405180910390f35b610423600480360381019061041e9190613a2a565b6124af565b604051610430919061361a565b60405180910390f35b610453600480360381019061044e9190613927565b612a51565b604051610460919061361a565b60405180910390f35b610483600480360381019061047e91906133af565b612cca565b604051610490919061361a565b60405180910390f35b6104b360048036038101906104ae91906133af565b612da5565b6040516104c0919061361a565b60405180910390f35b60606000826040516104db9190613c09565b9081526020016040518091039020600901805480602002602001604051908101604052809291908181526020016000905b8282101561079057838290600052602060002090600502016040518060a00160405290816000820154815260200160018201805461054990613c4f565b80601f016020809104026020016040519081016040528092919081815260200182805461057590613c4f565b80156105c25780601f10610597576101008083540402835291602001916105c2565b820191906000526020600020905b8154815290600101906020018083116105a557829003601f168201915b505050505081526020016002820180546105db90613c4f565b80601f016020809104026020016040519081016040528092919081815260200182805461060790613c4f565b80156106545780601f1061062957610100808354040283529160200191610654565b820191906000526020600020905b81548152906001019060200180831161063757829003601f168201915b5050505050815260200160038201805461066d90613c4f565b80601f016020809104026020016040519081016040528092919081815260200182805461069990613c4f565b80156106e65780601f106106bb576101008083540402835291602001916106e6565b820191906000526020600020905b8154815290600101906020018083116106c957829003601f168201915b505050505081526020016004820180546106ff90613c4f565b80601f016020809104026020016040519081016040528092919081815260200182805461072b90613c4f565b80156107785780601f1061074d57610100808354040283529160200191610778565b820191906000526020600020905b81548152906001019060200180831161075b57829003601f168201915b5050505050815250508152602001906001019061050c565b505050509050919050565b6000806001836040516107ae9190613c09565b908152602001604051809103902060010180546107ca90613c4f565b90501161080c576040517f08c379a000000000000000000000000000000000000000000000000000000000815260040161080390613ccc565b60405180910390fd5b60018260405161081c9190613c09565b90815260200160405180910390206000808201600061083b9190612eb4565b60018201600061084b9190612eb4565b60028201600061085b9190612eb4565b60038201600061086b9190612eb4565b505060019050919050565b60608060608060018560405161088c9190613c09565b90815260200160405180910390206001016001866040516108ad9190613c09565b90815260200160405180910390206000016001876040516108ce9190613c09565b90815260200160405180910390206002016001886040516108ef9190613c09565b908152602001604051809103902060030183805461090c90613c4f565b80601f016020809104026020016040519081016040528092919081815260200182805461093890613c4f565b80156109855780601f1061095a57610100808354040283529160200191610985565b820191906000526020600020905b81548152906001019060200180831161096857829003601f168201915b5050505050935082805461099890613c4f565b80601f01602080910402602001604051908101604052809291908181526020018280546109c490613c4f565b8015610a115780601f106109e657610100808354040283529160200191610a11565b820191906000526020600020905b8154815290600101906020018083116109f457829003601f168201915b50505050509250818054610a2490613c4f565b80601f0160208091040260200160405190810160405280929190818152602001828054610a5090613c4f565b8015610a9d5780601f10610a7257610100808354040283529160200191610a9d565b820191906000526020600020905b815481529060010190602001808311610a8057829003601f168201915b50505050509150808054610ab090613c4f565b80601f0160208091040260200160405190810160405280929190818152602001828054610adc90613c4f565b8015610b295780601f10610afe57610100808354040283529160200191610b29565b820191906000526020600020905b815481529060010190602001808311610b0c57829003601f168201915b5050505050905093509350935093509193509193565b600080600085604051610b529190613c09565b90815260200160405180910390209050610b6b85611bcb565b610baa576040517f08c379a0000000000000000000000000000000000000000000000000000000008152600401610ba190613d38565b60405180910390fd5b6000600185604051610bbc9190613c09565b90815260200160405180910390206001018054610bd890613c4f565b905011610c1a576040517f08c379a0000000000000000000000000000000000000000000000000000000008152600401610c1190613da4565b60405180910390fd5b6000835111610c5e576040517f08c379a0000000000000000000000000000000000000000000000000000000008152600401610c5590613e10565b60405180910390fd5b610c66612ef4565b428160000181815250508381602001819052506040518060400160405280601781526020017f4d6f766520746f207368697070696e672063656e746572000000000000000000815250816040018190525084604051602001610cc89190613e7c565b604051602081830303815290604052816060018190525081600901819080600181540180825580915050600190039060005260206000209060050201600090919091909150600082015181600001556020820151816001019081610d2c919061404a565b506040820151816002019081610d42919061404a565b506060820151816003019081610d58919061404a565b506080820151816004019081610d6e919061404a565b5050506001925050509392505050565b600080600085604051610d919190613c09565b90815260200160405180910390209050610daa85611bcb565b610de9576040517f08c379a0000000000000000000000000000000000000000000000000000000008152600401610de090613d38565b60405180910390fd5b600280811115610dfc57610dfb61411c565b5b8160070160009054906101000a900460ff166002811115610e2057610e1f61411c565b5b03610e60576040517f08c379a0000000000000000000000000000000000000000000000000000000008152600401610e5790614197565b60405180910390fd5b60016002811115610e7457610e7361411c565b5b8160070160009054906101000a900460ff166002811115610e9857610e9761411c565b5b03610ed8576040517f08c379a0000000000000000000000000000000000000000000000000000000008152600401610ecf90614197565b60405180910390fd5b6000845111610f1c576040517f08c379a0000000000000000000000000000000000000000000000000000000008152600401610f1390614203565b60405180910390fd5b60028160070160006101000a81548160ff02191690836002811115610f4457610f4361411c565b5b0217905550610f51612ef4565b428160000181815250508481602001819052506040518060400160405280600881526020017f43616e63656c6564000000000000000000000000000000000000000000000000815250816040018190525083604051602001610fb3919061426f565b60405160208183030381529060405281606001819052506001925050509392505050565b600080600085604051610fea9190613c09565b9081526020016040518091039020905061100385611bcb565b611042576040517f08c379a000000000000000000000000000000000000000000000000000000000815260040161103990613d38565b60405180910390fd5b60006003856040516110549190613c09565b9081526020016040518091039020600101805461107090613c4f565b9050116110b2576040517f08c379a00000000000000000000000000000000000000000000000000000000081526004016110a9906142dd565b60405180910390fd5b60008351116110f6576040517f08c379a00000000000000000000000000000000000000000000000000000000081526004016110ed90613e10565b60405180910390fd5b60018160070160006101000a81548160ff0219169083600281111561111e5761111d61411c565b5b021790555061112b612ef4565b428160000181815250508381602001819052506040518060400160405280601081526020017f4d6f766520746f20637573746f6d65720000000000000000000000000000000081525081604001819052508460405160200161118d9190614349565b6040516020818303038152906040528160600181905250816009018190806001815401808255809150506001900390600052602060002090600502016000909190919091506000820151816000015560208201518160010190816111f1919061404a565b506040820151816002019081611207919061404a565b50606082015181600301908161121d919061404a565b506080820151816004019081611233919061404a565b5050506001925050509392505050565b6000806000856040516112569190613c09565b9081526020016040518091039020905061126f85611bcb565b6112ae576040517f08c379a00000000000000000000000000000000000000000000000000000000081526004016112a590613d38565b60405180910390fd5b60006002856040516112c09190613c09565b908152602001604051809103902060010180546112dc90613c4f565b90501161131e576040517f08c379a0000000000000000000000000000000000000000000000000000000008152600401611315906143b7565b60405180910390fd5b6000835111611362576040517f08c379a000000000000000000000000000000000000000000000000000000000815260040161135990614423565b60405180910390fd5b61136a612ef4565b428160000181815250508381602001819052506040518060400160405280601281526020017f4d6f766520746f2073746f7265686f75736500000000000000000000000000008152508160400181905250846040516020016113cc919061448f565b604051602081830303815290604052816060018190525081600901819080600181540180825580915050600190039060005260206000209060050201600090919091909150600082015181600001556020820151816001019081611430919061404a565b506040820151816002019081611446919061404a565b50606082015181600301908161145c919061404a565b506080820151816004019081611472919061404a565b5050506001925050509392505050565b600061148c612f23565b8481602001819052508381600001819052506000836040516114ae9190613c09565b908152602001604051809103902060080181908060018154018082558091505060019003906000526020600020906002020160009091909190915060008201518160000190816114fe919061404a565b506020820151816001019081611514919061404a565b50505060019150509392505050565b600080600060608060608060008860405161153e9190613c09565b9081526020016040518091039020600201546000896040516115609190613c09565b90815260200160405180910390206003015460008a6040516115829190613c09565b90815260200160405180910390206004015460008b6040516115a49190613c09565b908152602001604051809103902060000160008c6040516115c59190613c09565b908152602001604051809103902060010160008d6040516115e69190613c09565b908152602001604051809103902060060160008e6040516116079190613c09565b908152602001604051809103902060080183805461162490613c4f565b80601f016020809104026020016040519081016040528092919081815260200182805461165090613c4f565b801561169d5780601f106116725761010080835404028352916020019161169d565b820191906000526020600020905b81548152906001019060200180831161168057829003601f168201915b505050505093508280546116b090613c4f565b80601f01602080910402602001604051908101604052809291908181526020018280546116dc90613c4f565b80156117295780601f106116fe57610100808354040283529160200191611729565b820191906000526020600020905b81548152906001019060200180831161170c57829003601f168201915b5050505050925081805461173c90613c4f565b80601f016020809104026020016040519081016040528092919081815260200182805461176890613c4f565b80156117b55780601f1061178a576101008083540402835291602001916117b5565b820191906000526020600020905b81548152906001019060200180831161179857829003601f168201915b5050505050915080805480602002602001604051908101604052809291908181526020016000905b82821015611933578382906000526020600020906002020160405180604001604052908160008201805461181090613c4f565b80601f016020809104026020016040519081016040528092919081815260200182805461183c90613c4f565b80156118895780601f1061185e57610100808354040283529160200191611889565b820191906000526020600020905b81548152906001019060200180831161186c57829003601f168201915b505050505081526020016001820180546118a290613c4f565b80601f01602080910402602001604051908101604052809291908181526020018280546118ce90613c4f565b801561191b5780601f106118f05761010080835404028352916020019161191b565b820191906000526020600020905b8154815290600101906020018083116118fe57829003601f168201915b505050505081525050815260200190600101906117dd565b5050505090509650965096509650965096509650919395979092949650565b600080855111611997576040517f08c379a000000000000000000000000000000000000000000000000000000000815260040161198e906144fd565b60405180910390fd5b60006002866040516119a99190613c09565b908152602001604051809103902060010180546119c590613c4f565b90501115611a08576040517f08c379a00000000000000000000000000000000000000000000000000000000081526004016119ff90614569565b60405180910390fd5b6000825111611a4c576040517f08c379a0000000000000000000000000000000000000000000000000000000008152600401611a43906145d5565b60405180910390fd5b6000845111611a90576040517f08c379a0000000000000000000000000000000000000000000000000000000008152600401611a8790614641565b60405180910390fd5b6009845111611ad4576040517f08c379a0000000000000000000000000000000000000000000000000000000008152600401611acb906146d3565b60405180910390fd5b6000835111611b18576040517f08c379a0000000000000000000000000000000000000000000000000000000008152600401611b0f9061473f565b60405180910390fd5b611b20612f3d565b83816020018190525084816040018190525085816000018190525082816060018190525080600287604051611b559190613c09565b90815260200160405180910390206000820151816000019081611b78919061404a565b506020820151816001019081611b8e919061404a565b506040820151816002019081611ba4919061404a565b506060820151816003019081611bba919061404a565b509050506001915050949350505050565b600080600083604051611bde9190613c09565b90815260200160405180910390206000018054611bfa90613c4f565b9050119050919050565b606080606080600285604051611c1a9190613c09565b9081526020016040518091039020600101600286604051611c3b9190613c09565b9081526020016040518091039020600001600287604051611c5c9190613c09565b9081526020016040518091039020600201600288604051611c7d9190613c09565b9081526020016040518091039020600301838054611c9a90613c4f565b80601f0160208091040260200160405190810160405280929190818152602001828054611cc690613c4f565b8015611d135780601f10611ce857610100808354040283529160200191611d13565b820191906000526020600020905b815481529060010190602001808311611cf657829003601f168201915b50505050509350828054611d2690613c4f565b80601f0160208091040260200160405190810160405280929190818152602001828054611d5290613c4f565b8015611d9f5780601f10611d7457610100808354040283529160200191611d9f565b820191906000526020600020905b815481529060010190602001808311611d8257829003601f168201915b50505050509250818054611db290613c4f565b80601f0160208091040260200160405190810160405280929190818152602001828054611dde90613c4f565b8015611e2b5780601f10611e0057610100808354040283529160200191611e2b565b820191906000526020600020905b815481529060010190602001808311611e0e57829003601f168201915b50505050509150808054611e3e90613c4f565b80601f0160208091040260200160405190810160405280929190818152602001828054611e6a90613c4f565b8015611eb75780601f10611e8c57610100808354040283529160200191611eb7565b820191906000526020600020905b815481529060010190602001808311611e9a57829003601f168201915b5050505050905093509350935093509193509193565b600080855111611f12576040517f08c379a0000000000000000000000000000000000000000000000000000000008152600401611f09906144fd565b60405180910390fd5b6000600386604051611f249190613c09565b90815260200160405180910390206001018054611f4090613c4f565b90501115611f83576040517f08c379a0000000000000000000000000000000000000000000000000000000008152600401611f7a90614569565b60405180910390fd5b6000845111611fc7576040517f08c379a0000000000000000000000000000000000000000000000000000000008152600401611fbe90614641565b60405180910390fd5b600984511161200b576040517f08c379a0000000000000000000000000000000000000000000000000000000008152600401612002906146d3565b60405180910390fd5b600082511161204f576040517f08c379a0000000000000000000000000000000000000000000000000000000008152600401612046906147ab565b60405180910390fd5b6000835111612093576040517f08c379a000000000000000000000000000000000000000000000000000000000815260040161208a9061473f565b60405180910390fd5b6003856040516120a39190613c09565b908152602001604051809103902060040160009054906101000a900460ff16156120d057600090506121de565b6120d8612f65565b8381602001819052508281604001819052508481606001819052506001816080019015159081151581525050806003876040516121159190613c09565b90815260200160405180910390206000820151816000019081612138919061404a565b50602082015181600101908161214e919061404a565b506040820151816002019081612164919061404a565b50606082015181600301908161217a919061404a565b5060808201518160040160006101000a81548160ff02191690831515021790555060a08201518160050190805190602001906121b7929190612fa4565b5060c08201518160060190805190602001906121d4929190612fa4565b5090505060019150505b949350505050565b6060806060806003856040516121fc9190613c09565b908152602001604051809103902060010160038660405161221d9190613c09565b908152602001604051809103902060000160038760405161223e9190613c09565b908152602001604051809103902060030160038860405161225f9190613c09565b908152602001604051809103902060020183805461227c90613c4f565b80601f01602080910402602001604051908101604052809291908181526020018280546122a890613c4f565b80156122f55780601f106122ca576101008083540402835291602001916122f5565b820191906000526020600020905b8154815290600101906020018083116122d857829003601f168201915b5050505050935082805461230890613c4f565b80601f016020809104026020016040519081016040528092919081815260200182805461233490613c4f565b80156123815780601f1061235657610100808354040283529160200191612381565b820191906000526020600020905b81548152906001019060200180831161236457829003601f168201915b5050505050925081805461239490613c4f565b80601f01602080910402602001604051908101604052809291908181526020018280546123c090613c4f565b801561240d5780601f106123e25761010080835404028352916020019161240d565b820191906000526020600020905b8154815290600101906020018083116123f057829003601f168201915b5050505050915080805461242090613c4f565b80601f016020809104026020016040519081016040528092919081815260200182805461244c90613c4f565b80156124995780601f1061246e57610100808354040283529160200191612499565b820191906000526020600020905b81548152906001019060200180831161247c57829003601f168201915b5050505050905093509350935093509193509193565b60008060038a6040516124c29190613c09565b908152602001604051809103902060010180546124de90613c4f565b905011612520576040517f08c379a000000000000000000000000000000000000000000000000000000000815260040161251790614817565b60405180910390fd5b60006003896040516125329190613c09565b9081526020016040518091039020600101805461254e90613c4f565b905011612590576040517f08c379a000000000000000000000000000000000000000000000000000000000815260040161258790614817565b60405180910390fd5b60008b51116125d4576040517f08c379a00000000000000000000000000000000000000000000000000000000081526004016125cb90614883565b60405180910390fd5b6125dd8b611bcb565b1561261d576040517f08c379a000000000000000000000000000000000000000000000000000000000815260040161261490614915565b60405180910390fd5b6000808c60405161262e9190613c09565b908152602001604051809103902090508981600001908161264f919061404a565b5088816001019081612661919061404a565b5083816006019081612673919061404a565b50858160020181905550868160030181905550848160040181905550878160050190816126a0919061404a565b506126a9612f23565b6040518060400160405280600e81526020017f5368697070696e6743656e746572000000000000000000000000000000000000815250816020018190525060018c6040516126f79190613c09565b9081526020016040518091039020600101805461271390613c4f565b80601f016020809104026020016040519081016040528092919081815260200182805461273f90613c4f565b801561278c5780601f106127615761010080835404028352916020019161278c565b820191906000526020600020905b81548152906001019060200180831161276f57829003601f168201915b505050505081600001819052508160080181908060018154018082558091505060019003906000526020600020906002020160009091909190915060008201518160000190816127dc919061404a565b5060208201518160010190816127f2919061404a565b5050506127fd612ef4565b428160000181815250506040518060400160405280600981526020017f526571756573746564000000000000000000000000000000000000000000000081525081604001819052508c6040516020016128569190613e7c565b6040516020818303038152906040528160600181905250848160200181905250826009018190806001815401808255809150506001900390600052602060002090600502016000909190919091506000820151816000015560208201518160010190816128c3919061404a565b5060408201518160020190816128d9919061404a565b5060608201518160030190816128ef919061404a565b506080820151816004019081612905919061404a565b5050508260008f6040516129199190613c09565b90815260200160405180910390206000820181600001908161293b919061494b565b5060018201816001019081612950919061494b565b5060028201548160020155600382015481600301556004820154816004015560058201816005019081612983919061494b565b5060068201816006019081612998919061494b565b506007820160009054906101000a900460ff168160070160006101000a81548160ff021916908360028111156129d1576129d061411c565b5b021790555060088201816008019080546129ec929190612ffd565b506009820181600901908054612a0392919061307f565b5090505060048e908060018154018082558091505060019003906000526020600020016000909190919091509081612a3b919061404a565b50600193505050509a9950505050505050505050565b600080855111612a96576040517f08c379a0000000000000000000000000000000000000000000000000000000008152600401612a8d906144fd565b60405180910390fd5b6000600186604051612aa89190613c09565b90815260200160405180910390206001018054612ac490613c4f565b90501115612b07576040517f08c379a0000000000000000000000000000000000000000000000000000000008152600401612afe90614569565b60405180910390fd5b6000825111612b4b576040517f08c379a0000000000000000000000000000000000000000000000000000000008152600401612b42906145d5565b60405180910390fd5b6000845111612b8f576040517f08c379a0000000000000000000000000000000000000000000000000000000008152600401612b8690614641565b60405180910390fd5b6009845111612bd3576040517f08c379a0000000000000000000000000000000000000000000000000000000008152600401612bca906146d3565b60405180910390fd5b6000835111612c17576040517f08c379a0000000000000000000000000000000000000000000000000000000008152600401612c0e9061473f565b60405180910390fd5b612c1f613135565b83816020018190525084816040018190525085816000018190525082816060018190525080600187604051612c549190613c09565b90815260200160405180910390206000820151816000019081612c77919061404a565b506020820151816001019081612c8d919061404a565b506040820151816002019081612ca3919061404a565b506060820151816003019081612cb9919061404a565b509050506001915050949350505050565b600080600283604051612cdd9190613c09565b90815260200160405180910390206001018054612cf990613c4f565b905011612d3b576040517f08c379a0000000000000000000000000000000000000000000000000000000008152600401612d3290614a7f565b60405180910390fd5b600282604051612d4b9190613c09565b908152602001604051809103902060008082016000612d6a9190612eb4565b600182016000612d7a9190612eb4565b600282016000612d8a9190612eb4565b600382016000612d9a9190612eb4565b505060019050919050565b600080600383604051612db89190613c09565b90815260200160405180910390206001018054612dd490613c4f565b905011612e16576040517f08c379a0000000000000000000000000000000000000000000000000000000008152600401612e0d90614817565b60405180910390fd5b600382604051612e269190613c09565b908152602001604051809103902060008082016000612e459190612eb4565b600182016000612e559190612eb4565b600282016000612e659190612eb4565b600382016000612e759190612eb4565b6004820160006101000a81549060ff0219169055600582016000612e99919061315d565b600682016000612ea9919061315d565b505060019050919050565b508054612ec090613c4f565b6000825580601f10612ed25750612ef1565b601f016020900490600052602060002090810190612ef0919061317e565b5b50565b6040518060a0016040528060008152602001606081526020016060815260200160608152602001606081525090565b604051806040016040528060608152602001606081525090565b6040518060800160405280606081526020016060815260200160608152602001606081525090565b6040518060e001604052806060815260200160608152602001606081526020016060815260200160001515815260200160608152602001606081525090565b828054828255906000526020600020908101928215612fec579160200282015b82811115612feb578251829081612fdb919061404a565b5091602001919060010190612fc4565b5b509050612ff9919061319b565b5090565b82805482825590600052602060002090600202810192821561306e5760005260206000209160020282015b8281111561306d57828260008201816000019081613046919061494b565b506001820181600101908161305b919061494b565b50505091600201919060020190613028565b5b50905061307b91906131bf565b5090565b8280548282559060005260206000209060050281019282156131245760005260206000209160050282015b8281111561312357828260008201548160000155600182018160010190816130d2919061494b565b50600282018160020190816130e7919061494b565b50600382018160030190816130fc919061494b565b5060048201816004019081613111919061494b565b505050916005019190600501906130aa565b5b50905061313191906131f6565b5090565b6040518060800160405280606081526020016060815260200160608152602001606081525090565b508054600082559060005260206000209081019061317b919061319b565b50565b5b8082111561319757600081600090555060010161317f565b5090565b5b808211156131bb57600081816131b29190612eb4565b5060010161319c565b5090565b5b808211156131f257600080820160006131d99190612eb4565b6001820160006131e99190612eb4565b506002016131c0565b5090565b5b80821115613251576000808201600090556001820160006132189190612eb4565b6002820160006132289190612eb4565b6003820160006132389190612eb4565b6004820160006132489190612eb4565b506005016131f7565b5090565b6000604051905090565b600080fd5b600080fd5b600080fd5b600080fd5b6000601f19601f8301169050919050565b7f4e487b7100000000000000000000000000000000000000000000000000000000600052604160045260246000fd5b6132bc82613273565b810181811067ffffffffffffffff821117156132db576132da613284565b5b80604052505050565b60006132ee613255565b90506132fa82826132b3565b919050565b600067ffffffffffffffff82111561331a57613319613284565b5b61332382613273565b9050602081019050919050565b82818337600083830152505050565b600061335261334d846132ff565b6132e4565b90508281526020810184848401111561336e5761336d61326e565b5b613379848285613330565b509392505050565b600082601f83011261339657613395613269565b5b81356133a684826020860161333f565b91505092915050565b6000602082840312156133c5576133c461325f565b5b600082013567ffffffffffffffff8111156133e3576133e2613264565b5b6133ef84828501613381565b91505092915050565b600081519050919050565b600082825260208201905092915050565b6000819050602082019050919050565b6000819050919050565b61343781613424565b82525050565b600081519050919050565b600082825260208201905092915050565b60005b8381101561347757808201518184015260208101905061345c565b60008484015250505050565b600061348e8261343d565b6134988185613448565b93506134a8818560208601613459565b6134b181613273565b840191505092915050565b600060a0830160008301516134d4600086018261342e565b50602083015184820360208601526134ec8282613483565b915050604083015184820360408601526135068282613483565b915050606083015184820360608601526135208282613483565b9150506080830151848203608086015261353a8282613483565b9150508091505092915050565b600061355383836134bc565b905092915050565b6000602082019050919050565b6000613573826133f8565b61357d8185613403565b93508360208202850161358f85613414565b8060005b858110156135cb57848403895281516135ac8582613547565b94506135b78361355b565b925060208a01995050600181019050613593565b50829750879550505050505092915050565b600060208201905081810360008301526135f78184613568565b905092915050565b60008115159050919050565b613614816135ff565b82525050565b600060208201905061362f600083018461360b565b92915050565b600082825260208201905092915050565b60006136518261343d565b61365b8185613635565b935061366b818560208601613459565b61367481613273565b840191505092915050565b600060808201905081810360008301526136998187613646565b905081810360208301526136ad8186613646565b905081810360408301526136c18185613646565b905081810360608301526136d58184613646565b905095945050505050565b6000806000606084860312156136f9576136f861325f565b5b600084013567ffffffffffffffff81111561371757613716613264565b5b61372386828701613381565b935050602084013567ffffffffffffffff81111561374457613743613264565b5b61375086828701613381565b925050604084013567ffffffffffffffff81111561377157613770613264565b5b61377d86828701613381565b9150509250925092565b61379081613424565b82525050565b600081519050919050565b600082825260208201905092915050565b6000819050602082019050919050565b600060408301600083015184820360008601526137df8282613483565b915050602083015184820360208601526137f98282613483565b9150508091505092915050565b600061381283836137c2565b905092915050565b6000602082019050919050565b600061383282613796565b61383c81856137a1565b93508360208202850161384e856137b2565b8060005b8581101561388a578484038952815161386b8582613806565b94506138768361381a565b925060208a01995050600181019050613852565b50829750879550505050505092915050565b600060e0820190506138b1600083018a613787565b6138be6020830189613787565b6138cb6040830188613787565b81810360608301526138dd8187613646565b905081810360808301526138f18186613646565b905081810360a08301526139058185613646565b905081810360c08301526139198184613827565b905098975050505050505050565b600080600080608085870312156139415761394061325f565b5b600085013567ffffffffffffffff81111561395f5761395e613264565b5b61396b87828801613381565b945050602085013567ffffffffffffffff81111561398c5761398b613264565b5b61399887828801613381565b935050604085013567ffffffffffffffff8111156139b9576139b8613264565b5b6139c587828801613381565b925050606085013567ffffffffffffffff8111156139e6576139e5613264565b5b6139f287828801613381565b91505092959194509250565b613a0781613424565b8114613a1257600080fd5b50565b600081359050613a24816139fe565b92915050565b6000806000806000806000806000806101408b8d031215613a4e57613a4d61325f565b5b60008b013567ffffffffffffffff811115613a6c57613a6b613264565b5b613a788d828e01613381565b9a505060208b013567ffffffffffffffff811115613a9957613a98613264565b5b613aa58d828e01613381565b99505060408b013567ffffffffffffffff811115613ac657613ac5613264565b5b613ad28d828e01613381565b98505060608b013567ffffffffffffffff811115613af357613af2613264565b5b613aff8d828e01613381565b97505060808b013567ffffffffffffffff811115613b2057613b1f613264565b5b613b2c8d828e01613381565b96505060a0613b3d8d828e01613a15565b95505060c0613b4e8d828e01613a15565b94505060e0613b5f8d828e01613a15565b9350506101008b013567ffffffffffffffff811115613b8157613b80613264565b5b613b8d8d828e01613381565b9250506101208b013567ffffffffffffffff811115613baf57613bae613264565b5b613bbb8d828e01613381565b9150509295989b9194979a5092959850565b600081905092915050565b6000613be38261343d565b613bed8185613bcd565b9350613bfd818560208601613459565b80840191505092915050565b6000613c158284613bd8565b915081905092915050565b7f4e487b7100000000000000000000000000000000000000000000000000000000600052602260045260246000fd5b60006002820490506001821680613c6757607f821691505b602082108103613c7a57613c79613c20565b5b50919050565b7f5368697070696e672063656e74657220646f6573206e6f742065786973740000600082015250565b6000613cb6601e83613635565b9150613cc182613c80565b602082019050919050565b60006020820190508181036000830152613ce581613ca9565b9050919050565b7f4f72646572206d75737420626520657869737400000000000000000000000000600082015250565b6000613d22601383613635565b9150613d2d82613cec565b602082019050919050565b60006020820190508181036000830152613d5181613d15565b9050919050565b7f5368697070696e672063656e746572206d757374206265206578697374000000600082015250565b6000613d8e601d83613635565b9150613d9982613d58565b602082019050919050565b60006020820190508181036000830152613dbd81613d81565b9050919050565b7f4d6f76696e6720646174652063616e6e6f7420626520656d7074790000000000600082015250565b6000613dfa601b83613635565b9150613e0582613dc4565b602082019050919050565b60006020820190508181036000830152613e2981613ded565b9050919050565b7f5368697070696e672043656e7465723a00000000000000000000000000000000600082015250565b6000613e66601083613bcd565b9150613e7182613e30565b601082019050919050565b6000613e8782613e59565b9150613e938284613bd8565b915081905092915050565b60008190508160005260206000209050919050565b60006020601f8301049050919050565b600082821b905092915050565b600060088302613f007fffffffffffffffffffffffffffffffffffffffffffffffffffffffffffffffff82613ec3565b613f0a8683613ec3565b95508019841693508086168417925050509392505050565b6000819050919050565b6000613f47613f42613f3d84613424565b613f22565b613424565b9050919050565b6000819050919050565b613f6183613f2c565b613f75613f6d82613f4e565b848454613ed0565b825550505050565b600090565b613f8a613f7d565b613f95818484613f58565b505050565b5b81811015613fb957613fae600082613f82565b600181019050613f9b565b5050565b601f821115613ffe57613fcf81613e9e565b613fd884613eb3565b81016020851015613fe7578190505b613ffb613ff385613eb3565b830182613f9a565b50505b505050565b600082821c905092915050565b600061402160001984600802614003565b1980831691505092915050565b600061403a8383614010565b9150826002028217905092915050565b6140538261343d565b67ffffffffffffffff81111561406c5761406b613284565b5b6140768254613c4f565b614081828285613fbd565b600060209050601f8311600181146140b457600084156140a2578287015190505b6140ac858261402e565b865550614114565b601f1984166140c286613e9e565b60005b828110156140ea578489015182556001820191506020850194506020810190506140c5565b868310156141075784890151614103601f891682614010565b8355505b6001600288020188555050505b505050505050565b7f4e487b7100000000000000000000000000000000000000000000000000000000600052602160045260246000fd5b7f4f72646572206d75737420626520696e2073797374656d000000000000000000600082015250565b6000614181601783613635565b915061418c8261414b565b602082019050919050565b600060208201905081810360008301526141b081614174565b9050919050565b7f43616e63656c6564206461746520697320726571756972656400000000000000600082015250565b60006141ed601983613635565b91506141f8826141b7565b602082019050919050565b6000602082019050818103600083015261421c816141e0565b9050919050565b7f43616e63656c65643a0000000000000000000000000000000000000000000000600082015250565b6000614259600983613bcd565b915061426482614223565b600982019050919050565b600061427a8261424c565b91506142868284613bd8565b915081905092915050565b7f437573746f6d6572206d75737420626520657869737400000000000000000000600082015250565b60006142c7601683613635565b91506142d282614291565b602082019050919050565b600060208201905081810360008301526142f6816142ba565b9050919050565b7f437573746f6d65723a0000000000000000000000000000000000000000000000600082015250565b6000614333600983613bcd565b915061433e826142fd565b600982019050919050565b600061435482614326565b91506143608284613bd8565b915081905092915050565b7f53746f7265686f757365206d7573742062652065786973740000000000000000600082015250565b60006143a1601883613635565b91506143ac8261436b565b602082019050919050565b600060208201905081810360008301526143d081614394565b9050919050565b7f4d6f76696e672064617465206973207265717569726564000000000000000000600082015250565b600061440d601783613635565b9150614418826143d7565b602082019050919050565b6000602082019050818103600083015261443c81614400565b9050919050565b7f53746f7265686f7573653a000000000000000000000000000000000000000000600082015250565b6000614479600b83613bcd565b915061448482614443565b600b82019050919050565b600061449a8261446c565b91506144a68284613bd8565b915081905092915050565b7f456d61696c206973207265717569726564000000000000000000000000000000600082015250565b60006144e7601183613635565b91506144f2826144b1565b602082019050919050565b60006020820190508181036000830152614516816144da565b9050919050565b7f456d61696c20616c726561647920657869737400000000000000000000000000600082015250565b6000614553601383613635565b915061455e8261451d565b602082019050919050565b6000602082019050818103600083015261458281614546565b9050919050565b7f506f736974696f6e206973207265717569726564000000000000000000000000600082015250565b60006145bf601483613635565b91506145ca82614589565b602082019050919050565b600060208201905081810360008301526145ee816145b2565b9050919050565b7f50686f6e656e756d626572206973207265717569726564000000000000000000600082015250565b600061462b601783613635565b9150614636826145f5565b602082019050919050565b6000602082019050818103600083015261465a8161461e565b9050919050565b7f506c6561736520656e74657220313020646967697473206d6f62696c65206e7560008201527f6d6265722c206f6e6c7900000000000000000000000000000000000000000000602082015250565b60006146bd602a83613635565b91506146c882614661565b604082019050919050565b600060208201905081810360008301526146ec816146b0565b9050919050565b7f4e616d6520697320726571756972656400000000000000000000000000000000600082015250565b6000614729601083613635565b9150614734826146f3565b602082019050919050565b600060208201905081810360008301526147588161471c565b9050919050565b7f4164647265737320697320726571756972656400000000000000000000000000600082015250565b6000614795601383613635565b91506147a08261475f565b602082019050919050565b600060208201905081810360008301526147c481614788565b9050919050565b7f437573746f6d657220646f6573206e6f74206578697374000000000000000000600082015250565b6000614801601783613635565b915061480c826147cb565b602082019050919050565b60006020820190508181036000830152614830816147f4565b9050919050565b7f4f72646572494420697320726571756972656400000000000000000000000000600082015250565b600061486d601383613635565b915061487882614837565b602082019050919050565b6000602082019050818103600083015261489c81614860565b9050919050565b7f4f726465722077697468207468652073616d6520494420616c7265616479206560008201527f7869737473000000000000000000000000000000000000000000000000000000602082015250565b60006148ff602583613635565b915061490a826148a3565b604082019050919050565b6000602082019050818103600083015261492e816148f2565b9050919050565b60008154905061494481613c4f565b9050919050565b818103614959575050614a31565b61496282614935565b67ffffffffffffffff81111561497b5761497a613284565b5b6149858254613c4f565b614990828285613fbd565b6000601f8311600181146149bf57600084156149ad578287015490505b6149b7858261402e565b865550614a2a565b601f1984166149cd87613e9e565b96506149d886613e9e565b60005b82811015614a00578489015482556001820191506001850194506020810190506149db565b86831015614a1d5784890154614a19601f891682614010565b8355505b6001600288020188555050505b5050505050505b565b7f53746f7265686f75736520646f6573206e6f7420657869737400000000000000600082015250565b6000614a69601983613635565b9150614a7482614a33565b602082019050919050565b60006020820190508181036000830152614a9881614a5c565b905091905056fea2646970667358221220de6d3649bc9dcb5d70fb5ebeade2a1ed9e93c6db915062624b98cf391b600ecc64736f6c63430008130033",
  "linkReferences": {},
  "deployedLinkReferences": {}
}