{
  "_format": "hh-sol-artifact-1",
  "contractName": "SMBPOST",
  "sourceName": "contracts/SMBPOST.sol",
  "abi": [
    {
      "inputs": [
        {
          "internalType": "string",
          "name": "_posType",
          "type": "string"
        },
        {
          "internalType": "string",
          "name": "_posName",
          "type": "string"
        },
        {
          "internalType": "string",
          "name": "_orderID",
          "type": "string"
        }
      ],
      "name": "addOrderWay",
      "outputs": [
        {
          "internalType": "bool",
          "name": "",
          "type": "bool"
        }
      ],
      "stateMutability": "payable",
      "type": "function"
    },
    {
      "inputs": [
        {
          "internalType": "string",
          "name": "_orderID",
          "type": "string"
        },
        {
          "internalType": "string",
          "name": "_canceledDate",
          "type": "string"
        },
        {
          "internalType": "string",
          "name": "_reason",
          "type": "string"
        }
      ],
      "name": "cancelAnOrder",
      "outputs": [
        {
          "internalType": "bool",
          "name": "",
          "type": "bool"
        }
      ],
      "stateMutability": "payable",
      "type": "function"
    },
    {
      "inputs": [
        {
          "internalType": "string",
          "name": "_email",
          "type": "string"
        },
        {
          "internalType": "string",
          "name": "_phoneNumber",
          "type": "string"
        },
        {
          "internalType": "string",
          "name": "_cusPos",
          "type": "string"
        },
        {
          "internalType": "string",
          "name": "_name",
          "type": "string"
        }
      ],
      "name": "createCustomer",
      "outputs": [
        {
          "internalType": "bool",
          "name": "",
          "type": "bool"
        }
      ],
      "stateMutability": "payable",
      "type": "function"
    },
    {
      "inputs": [
        {
          "internalType": "string",
          "name": "_orderID",
          "type": "string"
        },
        {
          "internalType": "string",
          "name": "_shippingCenterEmail",
          "type": "string"
        },
        {
          "internalType": "string",
          "name": "_senderPhone",
          "type": "string"
        },
        {
          "internalType": "string",
          "name": "_receiverPhone",
          "type": "string"
        },
        {
          "internalType": "string",
          "name": "_note",
          "type": "string"
        },
        {
          "internalType": "uint256",
          "name": "_size",
          "type": "uint256"
        },
        {
          "internalType": "uint256",
          "name": "_weight",
          "type": "uint256"
        },
        {
          "internalType": "uint256",
          "name": "_deposit",
          "type": "uint256"
        },
        {
          "internalType": "string",
          "name": "_imageURL",
          "type": "string"
        },
        {
          "internalType": "string",
          "name": "_requestDate",
          "type": "string"
        }
      ],
      "name": "createOrder",
      "outputs": [
        {
          "internalType": "bool",
          "name": "",
          "type": "bool"
        }
      ],
      "stateMutability": "payable",
      "type": "function"
    },
    {
      "inputs": [
        {
          "internalType": "string",
          "name": "_email",
          "type": "string"
        },
        {
          "internalType": "string",
          "name": "_phoneNumber",
          "type": "string"
        },
        {
          "internalType": "string",
          "name": "_name",
          "type": "string"
        },
        {
          "internalType": "string",
          "name": "_pos",
          "type": "string"
        }
      ],
      "name": "createShippingCenter",
      "outputs": [
        {
          "internalType": "bool",
          "name": "",
          "type": "bool"
        }
      ],
      "stateMutability": "payable",
      "type": "function"
    },
    {
      "inputs": [
        {
          "internalType": "string",
          "name": "_email",
          "type": "string"
        },
        {
          "internalType": "string",
          "name": "_phoneNumber",
          "type": "string"
        },
        {
          "internalType": "string",
          "name": "_name",
          "type": "string"
        },
        {
          "internalType": "string",
          "name": "_pos",
          "type": "string"
        }
      ],
      "name": "createStorehouse",
      "outputs": [
        {
          "internalType": "bool",
          "name": "",
          "type": "bool"
        }
      ],
      "stateMutability": "payable",
      "type": "function"
    },
    {
      "inputs": [
        {
          "internalType": "string",
          "name": "_customerEmail",
          "type": "string"
        }
      ],
      "name": "getCustomerDetail",
      "outputs": [
        {
          "internalType": "string",
          "name": "",
          "type": "string"
        },
        {
          "internalType": "string",
          "name": "",
          "type": "string"
        },
        {
          "internalType": "string",
          "name": "",
          "type": "string"
        },
        {
          "internalType": "string",
          "name": "",
          "type": "string"
        }
      ],
      "stateMutability": "view",
      "type": "function"
    },
    {
      "inputs": [
        {
          "internalType": "string",
          "name": "_orderID",
          "type": "string"
        }
      ],
      "name": "getOrderDetail",
      "outputs": [
        {
          "internalType": "uint256",
          "name": "",
          "type": "uint256"
        },
        {
          "internalType": "uint256",
          "name": "",
          "type": "uint256"
        },
        {
          "internalType": "uint256",
          "name": "",
          "type": "uint256"
        },
        {
          "internalType": "string",
          "name": "",
          "type": "string"
        },
        {
          "internalType": "string",
          "name": "",
          "type": "string"
        },
        {
          "internalType": "string",
          "name": "",
          "type": "string"
        },
        {
          "components": [
            {
              "internalType": "string",
              "name": "posName",
              "type": "string"
            },
            {
              "internalType": "string",
              "name": "posType",
              "type": "string"
            }
          ],
          "internalType": "struct SMBPOST.OrderWay[]",
          "name": "",
          "type": "tuple[]"
        }
      ],
      "stateMutability": "view",
      "type": "function"
    },
    {
      "inputs": [
        {
          "internalType": "string",
          "name": "_orderID",
          "type": "string"
        }
      ],
      "name": "getOrderHistories",
      "outputs": [
        {
          "components": [
            {
              "internalType": "uint256",
              "name": "timestamp",
              "type": "uint256"
            },
            {
              "internalType": "string",
              "name": "date",
              "type": "string"
            },
            {
              "internalType": "string",
              "name": "action",
              "type": "string"
            },
            {
              "internalType": "string",
              "name": "detail",
              "type": "string"
            },
            {
              "internalType": "string",
              "name": "imageURL",
              "type": "string"
            }
          ],
          "internalType": "struct SMBPOST.HistoryOrder[]",
          "name": "",
          "type": "tuple[]"
        }
      ],
      "stateMutability": "view",
      "type": "function"
    },
    {
      "inputs": [
        {
          "internalType": "string",
          "name": "_shippingCenterEmail",
          "type": "string"
        }
      ],
      "name": "getShippingCenterDetail",
      "outputs": [
        {
          "internalType": "string",
          "name": "",
          "type": "string"
        },
        {
          "internalType": "string",
          "name": "",
          "type": "string"
        },
        {
          "internalType": "string",
          "name": "",
          "type": "string"
        },
        {
          "internalType": "string",
          "name": "",
          "type": "string"
        }
      ],
      "stateMutability": "view",
      "type": "function"
    },
    {
      "inputs": [
        {
          "internalType": "string",
          "name": "_storehouseEmail",
          "type": "string"
        }
      ],
      "name": "getStorehouseDetail",
      "outputs": [
        {
          "internalType": "string",
          "name": "",
          "type": "string"
        },
        {
          "internalType": "string",
          "name": "",
          "type": "string"
        },
        {
          "internalType": "string",
          "name": "",
          "type": "string"
        },
        {
          "internalType": "string",
          "name": "",
          "type": "string"
        }
      ],
      "stateMutability": "view",
      "type": "function"
    },
    {
      "inputs": [
        {
          "internalType": "string",
          "name": "_orderID",
          "type": "string"
        }
      ],
      "name": "orderExists",
      "outputs": [
        {
          "internalType": "bool",
          "name": "",
          "type": "bool"
        }
      ],
      "stateMutability": "payable",
      "type": "function"
    },
    {
      "inputs": [
        {
          "internalType": "string",
          "name": "_orderID",
          "type": "string"
        },
        {
          "internalType": "string",
          "name": "_customerEmail",
          "type": "string"
        },
        {
          "internalType": "string",
          "name": "_transferDate",
          "type": "string"
        }
      ],
      "name": "transferToCustomer",
      "outputs": [
        {
          "internalType": "bool",
          "name": "",
          "type": "bool"
        }
      ],
      "stateMutability": "payable",
      "type": "function"
    },
    {
      "inputs": [
        {
          "internalType": "string",
          "name": "_orderID",
          "type": "string"
        },
        {
          "internalType": "string",
          "name": "_shippingCenterEmail",
          "type": "string"
        },
        {
          "internalType": "string",
          "name": "_transferDate",
          "type": "string"
        }
      ],
      "name": "transferToShippingCenter",
      "outputs": [
        {
          "internalType": "bool",
          "name": "",
          "type": "bool"
        }
      ],
      "stateMutability": "payable",
      "type": "function"
    },
    {
      "inputs": [
        {
          "internalType": "string",
          "name": "_orderID",
          "type": "string"
        },
        {
          "internalType": "string",
          "name": "_storehouseEmail",
          "type": "string"
        },
        {
          "internalType": "string",
          "name": "_transferDate",
          "type": "string"
        }
      ],
      "name": "transferToStorehouse",
      "outputs": [
        {
          "internalType": "bool",
          "name": "",
          "type": "bool"
        }
      ],
      "stateMutability": "payable",
      "type": "function"
    },
    {
      "stateMutability": "payable",
      "type": "receive"
    }
  ],
  "bytecode": "0x608060405234801561001057600080fd5b50614666806100206000396000f3fe6080604052600436106100ec5760003560e01c806379055d251161008a578063b51ca0af11610059578063b51ca0af14610348578063bc26ec5314610378578063e16e30b4146103b8578063e9c0f7da146103e8576100f3565b806379055d25146102655780638347fb0d146102a8578063a959d585146102d8578063b0cf996514610308576100f3565b80635e8b2da9116100c65780635e8b2da9146101a55780636b549372146101d557806373277d0a1461020557806374939fc114610235576100f3565b806311aac3bd146100f85780632bedf18d14610135578063552c8b2214610175576100f3565b366100f357005b600080fd5b34801561010457600080fd5b5061011f600480360381019061011a9190613018565b610418565b60405161012c9190613246565b60405180910390f35b34801561014157600080fd5b5061015c60048036038101906101579190613018565b6106ea565b60405161016c94939291906132b2565b60405180910390f35b61018f600480360381019061018a9190613313565b6109b3565b60405161019c91906133d5565b60405180910390f35b6101bf60048036038101906101ba9190613313565b610bf2565b6040516101cc91906133d5565b60405180910390f35b6101ef60048036038101906101ea9190613313565b610e4b565b6040516101fc91906133d5565b60405180910390f35b61021f600480360381019061021a9190613313565b6110b7565b60405161022c91906133d5565b60405180910390f35b61024f600480360381019061024a9190613313565b6112f6565b60405161025c91906133d5565b60405180910390f35b34801561027157600080fd5b5061028c60048036038101906102879190613018565b611397565b60405161029f9796959493929190613505565b60405180910390f35b6102c260048036038101906102bd9190613590565b6117c6565b6040516102cf91906133d5565b60405180910390f35b6102f260048036038101906102ed9190613018565b611a3f565b6040516102ff91906133d5565b60405180910390f35b34801561031457600080fd5b5061032f600480360381019061032a9190613018565b611a78565b60405161033f94939291906132b2565b60405180910390f35b610362600480360381019061035d9190613590565b611d41565b60405161036f91906133d5565b60405180910390f35b34801561038457600080fd5b5061039f600480360381019061039a9190613018565b61205a565b6040516103af94939291906132b2565b60405180910390f35b6103d260048036038101906103cd9190613693565b612323565b6040516103df91906133d5565b60405180910390f35b61040260048036038101906103fd9190613590565b6128c5565b60405161040f91906133d5565b60405180910390f35b606060008260405161042a9190613872565b9081526020016040518091039020600901805480602002602001604051908101604052809291908181526020016000905b828210156106df57838290600052602060002090600502016040518060a001604052908160008201548152602001600182018054610498906138b8565b80601f01602080910402602001604051908101604052809291908181526020018280546104c4906138b8565b80156105115780601f106104e657610100808354040283529160200191610511565b820191906000526020600020905b8154815290600101906020018083116104f457829003601f168201915b5050505050815260200160028201805461052a906138b8565b80601f0160208091040260200160405190810160405280929190818152602001828054610556906138b8565b80156105a35780601f10610578576101008083540402835291602001916105a3565b820191906000526020600020905b81548152906001019060200180831161058657829003601f168201915b505050505081526020016003820180546105bc906138b8565b80601f01602080910402602001604051908101604052809291908181526020018280546105e8906138b8565b80156106355780601f1061060a57610100808354040283529160200191610635565b820191906000526020600020905b81548152906001019060200180831161061857829003601f168201915b5050505050815260200160048201805461064e906138b8565b80601f016020809104026020016040519081016040528092919081815260200182805461067a906138b8565b80156106c75780601f1061069c576101008083540402835291602001916106c7565b820191906000526020600020905b8154815290600101906020018083116106aa57829003601f168201915b5050505050815250508152602001906001019061045b565b505050509050919050565b6060806060806001856040516107009190613872565b90815260200160405180910390206001016001866040516107219190613872565b90815260200160405180910390206000016001876040516107429190613872565b90815260200160405180910390206002016001886040516107639190613872565b9081526020016040518091039020600301838054610780906138b8565b80601f01602080910402602001604051908101604052809291908181526020018280546107ac906138b8565b80156107f95780601f106107ce576101008083540402835291602001916107f9565b820191906000526020600020905b8154815290600101906020018083116107dc57829003601f168201915b5050505050935082805461080c906138b8565b80601f0160208091040260200160405190810160405280929190818152602001828054610838906138b8565b80156108855780601f1061085a57610100808354040283529160200191610885565b820191906000526020600020905b81548152906001019060200180831161086857829003601f168201915b50505050509250818054610898906138b8565b80601f01602080910402602001604051908101604052809291908181526020018280546108c4906138b8565b80156109115780601f106108e657610100808354040283529160200191610911565b820191906000526020600020905b8154815290600101906020018083116108f457829003601f168201915b50505050509150808054610924906138b8565b80601f0160208091040260200160405190810160405280929190818152602001828054610950906138b8565b801561099d5780601f106109725761010080835404028352916020019161099d565b820191906000526020600020905b81548152906001019060200180831161098057829003601f168201915b5050505050905093509350935093509193509193565b6000806000856040516109c69190613872565b908152602001604051809103902090506109df85611a3f565b610a1e576040517f08c379a0000000000000000000000000000000000000000000000000000000008152600401610a1590613935565b60405180910390fd5b6000600185604051610a309190613872565b90815260200160405180910390206001018054610a4c906138b8565b905011610a8e576040517f08c379a0000000000000000000000000000000000000000000000000000000008152600401610a85906139a1565b60405180910390fd5b6000835111610ad2576040517f08c379a0000000000000000000000000000000000000000000000000000000008152600401610ac990613a0d565b60405180910390fd5b610ada612b3e565b428160000181815250508381602001819052506040518060400160405280601781526020017f4d6f766520746f207368697070696e672063656e746572000000000000000000815250816040018190525084604051602001610b3c9190613a79565b604051602081830303815290604052816060018190525081600901819080600181540180825580915050600190039060005260206000209060050201600090919091909150600082015181600001556020820151816001019081610ba09190613c47565b506040820151816002019081610bb69190613c47565b506060820151816003019081610bcc9190613c47565b506080820151816004019081610be29190613c47565b5050506001925050509392505050565b600080600085604051610c059190613872565b90815260200160405180910390209050610c1e85611a3f565b610c5d576040517f08c379a0000000000000000000000000000000000000000000000000000000008152600401610c5490613935565b60405180910390fd5b600280811115610c7057610c6f613d19565b5b8160070160009054906101000a900460ff166002811115610c9457610c93613d19565b5b03610cd4576040517f08c379a0000000000000000000000000000000000000000000000000000000008152600401610ccb90613d94565b60405180910390fd5b60016002811115610ce857610ce7613d19565b5b8160070160009054906101000a900460ff166002811115610d0c57610d0b613d19565b5b03610d4c576040517f08c379a0000000000000000000000000000000000000000000000000000000008152600401610d4390613d94565b60405180910390fd5b6000845111610d90576040517f08c379a0000000000000000000000000000000000000000000000000000000008152600401610d8790613e00565b60405180910390fd5b60028160070160006101000a81548160ff02191690836002811115610db857610db7613d19565b5b0217905550610dc5612b3e565b428160000181815250508481602001819052506040518060400160405280600881526020017f43616e63656c6564000000000000000000000000000000000000000000000000815250816040018190525083604051602001610e279190613e6c565b60405160208183030381529060405281606001819052506001925050509392505050565b600080600085604051610e5e9190613872565b90815260200160405180910390209050610e7785611a3f565b610eb6576040517f08c379a0000000000000000000000000000000000000000000000000000000008152600401610ead90613935565b60405180910390fd5b6000600385604051610ec89190613872565b90815260200160405180910390206001018054610ee4906138b8565b905011610f26576040517f08c379a0000000000000000000000000000000000000000000000000000000008152600401610f1d90613eda565b60405180910390fd5b6000835111610f6a576040517f08c379a0000000000000000000000000000000000000000000000000000000008152600401610f6190613a0d565b60405180910390fd5b60018160070160006101000a81548160ff02191690836002811115610f9257610f91613d19565b5b0217905550610f9f612b3e565b428160000181815250508381602001819052506040518060400160405280601081526020017f4d6f766520746f20637573746f6d6572000000000000000000000000000000008152508160400181905250846040516020016110019190613f46565b6040516020818303038152906040528160600181905250816009018190806001815401808255809150506001900390600052602060002090600502016000909190919091506000820151816000015560208201518160010190816110659190613c47565b50604082015181600201908161107b9190613c47565b5060608201518160030190816110919190613c47565b5060808201518160040190816110a79190613c47565b5050506001925050509392505050565b6000806000856040516110ca9190613872565b908152602001604051809103902090506110e385611a3f565b611122576040517f08c379a000000000000000000000000000000000000000000000000000000000815260040161111990613935565b60405180910390fd5b60006002856040516111349190613872565b90815260200160405180910390206001018054611150906138b8565b905011611192576040517f08c379a000000000000000000000000000000000000000000000000000000000815260040161118990613fb4565b60405180910390fd5b60008351116111d6576040517f08c379a00000000000000000000000000000000000000000000000000000000081526004016111cd90614020565b60405180910390fd5b6111de612b3e565b428160000181815250508381602001819052506040518060400160405280601281526020017f4d6f766520746f2073746f7265686f7573650000000000000000000000000000815250816040018190525084604051602001611240919061408c565b6040516020818303038152906040528160600181905250816009018190806001815401808255809150506001900390600052602060002090600502016000909190919091506000820151816000015560208201518160010190816112a49190613c47565b5060408201518160020190816112ba9190613c47565b5060608201518160030190816112d09190613c47565b5060808201518160040190816112e69190613c47565b5050506001925050509392505050565b6000611300612b6d565b8481602001819052508381600001819052506000836040516113229190613872565b908152602001604051809103902060080181908060018154018082558091505060019003906000526020600020906002020160009091909190915060008201518160000190816113729190613c47565b5060208201518160010190816113889190613c47565b50505060019150509392505050565b60008060006060806060806000886040516113b29190613872565b9081526020016040518091039020600201546000896040516113d49190613872565b90815260200160405180910390206003015460008a6040516113f69190613872565b90815260200160405180910390206004015460008b6040516114189190613872565b908152602001604051809103902060000160008c6040516114399190613872565b908152602001604051809103902060010160008d60405161145a9190613872565b908152602001604051809103902060060160008e60405161147b9190613872565b9081526020016040518091039020600801838054611498906138b8565b80601f01602080910402602001604051908101604052809291908181526020018280546114c4906138b8565b80156115115780601f106114e657610100808354040283529160200191611511565b820191906000526020600020905b8154815290600101906020018083116114f457829003601f168201915b50505050509350828054611524906138b8565b80601f0160208091040260200160405190810160405280929190818152602001828054611550906138b8565b801561159d5780601f106115725761010080835404028352916020019161159d565b820191906000526020600020905b81548152906001019060200180831161158057829003601f168201915b505050505092508180546115b0906138b8565b80601f01602080910402602001604051908101604052809291908181526020018280546115dc906138b8565b80156116295780601f106115fe57610100808354040283529160200191611629565b820191906000526020600020905b81548152906001019060200180831161160c57829003601f168201915b5050505050915080805480602002602001604051908101604052809291908181526020016000905b828210156117a75783829060005260206000209060020201604051806040016040529081600082018054611684906138b8565b80601f01602080910402602001604051908101604052809291908181526020018280546116b0906138b8565b80156116fd5780601f106116d2576101008083540402835291602001916116fd565b820191906000526020600020905b8154815290600101906020018083116116e057829003601f168201915b50505050508152602001600182018054611716906138b8565b80601f0160208091040260200160405190810160405280929190818152602001828054611742906138b8565b801561178f5780601f106117645761010080835404028352916020019161178f565b820191906000526020600020905b81548152906001019060200180831161177257829003601f168201915b50505050508152505081526020019060010190611651565b5050505090509650965096509650965096509650919395979092949650565b60008085511161180b576040517f08c379a0000000000000000000000000000000000000000000000000000000008152600401611802906140fa565b60405180910390fd5b600060028660405161181d9190613872565b90815260200160405180910390206001018054611839906138b8565b9050111561187c576040517f08c379a000000000000000000000000000000000000000000000000000000000815260040161187390614166565b60405180910390fd5b60008251116118c0576040517f08c379a00000000000000000000000000000000000000000000000000000000081526004016118b7906141d2565b60405180910390fd5b6000845111611904576040517f08c379a00000000000000000000000000000000000000000000000000000000081526004016118fb9061423e565b60405180910390fd5b6009845111611948576040517f08c379a000000000000000000000000000000000000000000000000000000000815260040161193f906142d0565b60405180910390fd5b600083511161198c576040517f08c379a00000000000000000000000000000000000000000000000000000000081526004016119839061433c565b60405180910390fd5b611994612b87565b838160200181905250848160400181905250858160000181905250828160600181905250806002876040516119c99190613872565b908152602001604051809103902060008201518160000190816119ec9190613c47565b506020820151816001019081611a029190613c47565b506040820151816002019081611a189190613c47565b506060820151816003019081611a2e9190613c47565b509050506001915050949350505050565b600080600083604051611a529190613872565b90815260200160405180910390206000018054611a6e906138b8565b9050119050919050565b606080606080600285604051611a8e9190613872565b9081526020016040518091039020600101600286604051611aaf9190613872565b9081526020016040518091039020600001600287604051611ad09190613872565b9081526020016040518091039020600201600288604051611af19190613872565b9081526020016040518091039020600301838054611b0e906138b8565b80601f0160208091040260200160405190810160405280929190818152602001828054611b3a906138b8565b8015611b875780601f10611b5c57610100808354040283529160200191611b87565b820191906000526020600020905b815481529060010190602001808311611b6a57829003601f168201915b50505050509350828054611b9a906138b8565b80601f0160208091040260200160405190810160405280929190818152602001828054611bc6906138b8565b8015611c135780601f10611be857610100808354040283529160200191611c13565b820191906000526020600020905b815481529060010190602001808311611bf657829003601f168201915b50505050509250818054611c26906138b8565b80601f0160208091040260200160405190810160405280929190818152602001828054611c52906138b8565b8015611c9f5780601f10611c7457610100808354040283529160200191611c9f565b820191906000526020600020905b815481529060010190602001808311611c8257829003601f168201915b50505050509150808054611cb2906138b8565b80601f0160208091040260200160405190810160405280929190818152602001828054611cde906138b8565b8015611d2b5780601f10611d0057610100808354040283529160200191611d2b565b820191906000526020600020905b815481529060010190602001808311611d0e57829003601f168201915b5050505050905093509350935093509193509193565b600080855111611d86576040517f08c379a0000000000000000000000000000000000000000000000000000000008152600401611d7d906140fa565b60405180910390fd5b6000600386604051611d989190613872565b90815260200160405180910390206001018054611db4906138b8565b90501115611df7576040517f08c379a0000000000000000000000000000000000000000000000000000000008152600401611dee90614166565b60405180910390fd5b6000845111611e3b576040517f08c379a0000000000000000000000000000000000000000000000000000000008152600401611e329061423e565b60405180910390fd5b6009845111611e7f576040517f08c379a0000000000000000000000000000000000000000000000000000000008152600401611e76906142d0565b60405180910390fd5b6000835111611ec3576040517f08c379a0000000000000000000000000000000000000000000000000000000008152600401611eba906143a8565b60405180910390fd5b6000825111611f07576040517f08c379a0000000000000000000000000000000000000000000000000000000008152600401611efe9061433c565b60405180910390fd5b600385604051611f179190613872565b908152602001604051809103902060040160009054906101000a900460ff1615611f445760009050612052565b611f4c612baf565b828160200181905250838160400181905250848160600181905250600181608001901515908115158152505080600387604051611f899190613872565b90815260200160405180910390206000820151816000019081611fac9190613c47565b506020820151816001019081611fc29190613c47565b506040820151816002019081611fd89190613c47565b506060820151816003019081611fee9190613c47565b5060808201518160040160006101000a81548160ff02191690831515021790555060a082015181600501908051906020019061202b929190612bee565b5060c0820151816006019080519060200190612048929190612bee565b5090505060019150505b949350505050565b6060806060806003856040516120709190613872565b90815260200160405180910390206001016003866040516120919190613872565b90815260200160405180910390206000016003876040516120b29190613872565b90815260200160405180910390206003016003886040516120d39190613872565b90815260200160405180910390206002018380546120f0906138b8565b80601f016020809104026020016040519081016040528092919081815260200182805461211c906138b8565b80156121695780601f1061213e57610100808354040283529160200191612169565b820191906000526020600020905b81548152906001019060200180831161214c57829003601f168201915b5050505050935082805461217c906138b8565b80601f01602080910402602001604051908101604052809291908181526020018280546121a8906138b8565b80156121f55780601f106121ca576101008083540402835291602001916121f5565b820191906000526020600020905b8154815290600101906020018083116121d857829003601f168201915b50505050509250818054612208906138b8565b80601f0160208091040260200160405190810160405280929190818152602001828054612234906138b8565b80156122815780601f1061225657610100808354040283529160200191612281565b820191906000526020600020905b81548152906001019060200180831161226457829003601f168201915b50505050509150808054612294906138b8565b80601f01602080910402602001604051908101604052809291908181526020018280546122c0906138b8565b801561230d5780601f106122e25761010080835404028352916020019161230d565b820191906000526020600020905b8154815290600101906020018083116122f057829003601f168201915b5050505050905093509350935093509193509193565b60008060038a6040516123369190613872565b90815260200160405180910390206001018054612352906138b8565b905011612394576040517f08c379a000000000000000000000000000000000000000000000000000000000815260040161238b90614414565b60405180910390fd5b60006003896040516123a69190613872565b908152602001604051809103902060010180546123c2906138b8565b905011612404576040517f08c379a00000000000000000000000000000000000000000000000000000000081526004016123fb90614414565b60405180910390fd5b60008b5111612448576040517f08c379a000000000000000000000000000000000000000000000000000000000815260040161243f90614480565b60405180910390fd5b6124518b611a3f565b15612491576040517f08c379a000000000000000000000000000000000000000000000000000000000815260040161248890614512565b60405180910390fd5b6000808c6040516124a29190613872565b90815260200160405180910390209050898160000190816124c39190613c47565b50888160010190816124d59190613c47565b50838160060190816124e79190613c47565b50858160020181905550868160030181905550848160040181905550878160050190816125149190613c47565b5061251d612b6d565b6040518060400160405280600e81526020017f5368697070696e6743656e746572000000000000000000000000000000000000815250816020018190525060018c60405161256b9190613872565b90815260200160405180910390206001018054612587906138b8565b80601f01602080910402602001604051908101604052809291908181526020018280546125b3906138b8565b80156126005780601f106125d557610100808354040283529160200191612600565b820191906000526020600020905b8154815290600101906020018083116125e357829003601f168201915b505050505081600001819052508160080181908060018154018082558091505060019003906000526020600020906002020160009091909190915060008201518160000190816126509190613c47565b5060208201518160010190816126669190613c47565b505050612671612b3e565b428160000181815250506040518060400160405280600981526020017f526571756573746564000000000000000000000000000000000000000000000081525081604001819052508c6040516020016126ca9190613a79565b6040516020818303038152906040528160600181905250848160200181905250826009018190806001815401808255809150506001900390600052602060002090600502016000909190919091506000820151816000015560208201518160010190816127379190613c47565b50604082015181600201908161274d9190613c47565b5060608201518160030190816127639190613c47565b5060808201518160040190816127799190613c47565b5050508260008f60405161278d9190613872565b9081526020016040518091039020600082018160000190816127af9190614548565b50600182018160010190816127c49190614548565b50600282015481600201556003820154816003015560048201548160040155600582018160050190816127f79190614548565b506006820181600601908161280c9190614548565b506007820160009054906101000a900460ff168160070160006101000a81548160ff0219169083600281111561284557612844613d19565b5b02179055506008820181600801908054612860929190612c47565b506009820181600901908054612877929190612cc9565b5090505060048e9080600181540180825580915050600190039060005260206000200160009091909190915090816128af9190613c47565b50600193505050509a9950505050505050505050565b60008085511161290a576040517f08c379a0000000000000000000000000000000000000000000000000000000008152600401612901906140fa565b60405180910390fd5b600060018660405161291c9190613872565b90815260200160405180910390206001018054612938906138b8565b9050111561297b576040517f08c379a000000000000000000000000000000000000000000000000000000000815260040161297290614166565b60405180910390fd5b60008251116129bf576040517f08c379a00000000000000000000000000000000000000000000000000000000081526004016129b6906141d2565b60405180910390fd5b6000845111612a03576040517f08c379a00000000000000000000000000000000000000000000000000000000081526004016129fa9061423e565b60405180910390fd5b6009845111612a47576040517f08c379a0000000000000000000000000000000000000000000000000000000008152600401612a3e906142d0565b60405180910390fd5b6000835111612a8b576040517f08c379a0000000000000000000000000000000000000000000000000000000008152600401612a829061433c565b60405180910390fd5b612a93612d7f565b83816020018190525084816040018190525085816000018190525082816060018190525080600187604051612ac89190613872565b90815260200160405180910390206000820151816000019081612aeb9190613c47565b506020820151816001019081612b019190613c47565b506040820151816002019081612b179190613c47565b506060820151816003019081612b2d9190613c47565b509050506001915050949350505050565b6040518060a0016040528060008152602001606081526020016060815260200160608152602001606081525090565b604051806040016040528060608152602001606081525090565b6040518060800160405280606081526020016060815260200160608152602001606081525090565b6040518060e001604052806060815260200160608152602001606081526020016060815260200160001515815260200160608152602001606081525090565b828054828255906000526020600020908101928215612c36579160200282015b82811115612c35578251829081612c259190613c47565b5091602001919060010190612c0e565b5b509050612c439190612da7565b5090565b828054828255906000526020600020906002028101928215612cb85760005260206000209160020282015b82811115612cb757828260008201816000019081612c909190614548565b5060018201816001019081612ca59190614548565b50505091600201919060020190612c72565b5b509050612cc59190612dcb565b5090565b828054828255906000526020600020906005028101928215612d6e5760005260206000209160050282015b82811115612d6d5782826000820154816000015560018201816001019081612d1c9190614548565b5060028201816002019081612d319190614548565b5060038201816003019081612d469190614548565b5060048201816004019081612d5b9190614548565b50505091600501919060050190612cf4565b5b509050612d7b9190612e02565b5090565b6040518060800160405280606081526020016060815260200160608152602001606081525090565b5b80821115612dc75760008181612dbe9190612e61565b50600101612da8565b5090565b5b80821115612dfe5760008082016000612de59190612e61565b600182016000612df59190612e61565b50600201612dcc565b5090565b5b80821115612e5d57600080820160009055600182016000612e249190612e61565b600282016000612e349190612e61565b600382016000612e449190612e61565b600482016000612e549190612e61565b50600501612e03565b5090565b508054612e6d906138b8565b6000825580601f10612e7f5750612e9e565b601f016020900490600052602060002090810190612e9d9190612ea1565b5b50565b5b80821115612eba576000816000905550600101612ea2565b5090565b6000604051905090565b600080fd5b600080fd5b600080fd5b600080fd5b6000601f19601f8301169050919050565b7f4e487b7100000000000000000000000000000000000000000000000000000000600052604160045260246000fd5b612f2582612edc565b810181811067ffffffffffffffff82111715612f4457612f43612eed565b5b80604052505050565b6000612f57612ebe565b9050612f638282612f1c565b919050565b600067ffffffffffffffff821115612f8357612f82612eed565b5b612f8c82612edc565b9050602081019050919050565b82818337600083830152505050565b6000612fbb612fb684612f68565b612f4d565b905082815260208101848484011115612fd757612fd6612ed7565b5b612fe2848285612f99565b509392505050565b600082601f830112612fff57612ffe612ed2565b5b813561300f848260208601612fa8565b91505092915050565b60006020828403121561302e5761302d612ec8565b5b600082013567ffffffffffffffff81111561304c5761304b612ecd565b5b61305884828501612fea565b91505092915050565b600081519050919050565b600082825260208201905092915050565b6000819050602082019050919050565b6000819050919050565b6130a08161308d565b82525050565b600081519050919050565b600082825260208201905092915050565b60005b838110156130e05780820151818401526020810190506130c5565b60008484015250505050565b60006130f7826130a6565b61310181856130b1565b93506131118185602086016130c2565b61311a81612edc565b840191505092915050565b600060a08301600083015161313d6000860182613097565b506020830151848203602086015261315582826130ec565b9150506040830151848203604086015261316f82826130ec565b9150506060830151848203606086015261318982826130ec565b915050608083015184820360808601526131a382826130ec565b9150508091505092915050565b60006131bc8383613125565b905092915050565b6000602082019050919050565b60006131dc82613061565b6131e6818561306c565b9350836020820285016131f88561307d565b8060005b85811015613234578484038952815161321585826131b0565b9450613220836131c4565b925060208a019950506001810190506131fc565b50829750879550505050505092915050565b6000602082019050818103600083015261326081846131d1565b905092915050565b600082825260208201905092915050565b6000613284826130a6565b61328e8185613268565b935061329e8185602086016130c2565b6132a781612edc565b840191505092915050565b600060808201905081810360008301526132cc8187613279565b905081810360208301526132e08186613279565b905081810360408301526132f48185613279565b905081810360608301526133088184613279565b905095945050505050565b60008060006060848603121561332c5761332b612ec8565b5b600084013567ffffffffffffffff81111561334a57613349612ecd565b5b61335686828701612fea565b935050602084013567ffffffffffffffff81111561337757613376612ecd565b5b61338386828701612fea565b925050604084013567ffffffffffffffff8111156133a4576133a3612ecd565b5b6133b086828701612fea565b9150509250925092565b60008115159050919050565b6133cf816133ba565b82525050565b60006020820190506133ea60008301846133c6565b92915050565b6133f98161308d565b82525050565b600081519050919050565b600082825260208201905092915050565b6000819050602082019050919050565b6000604083016000830151848203600086015261344882826130ec565b9150506020830151848203602086015261346282826130ec565b9150508091505092915050565b600061347b838361342b565b905092915050565b6000602082019050919050565b600061349b826133ff565b6134a5818561340a565b9350836020820285016134b78561341b565b8060005b858110156134f357848403895281516134d4858261346f565b94506134df83613483565b925060208a019950506001810190506134bb565b50829750879550505050505092915050565b600060e08201905061351a600083018a6133f0565b61352760208301896133f0565b61353460408301886133f0565b81810360608301526135468187613279565b9050818103608083015261355a8186613279565b905081810360a083015261356e8185613279565b905081810360c08301526135828184613490565b905098975050505050505050565b600080600080608085870312156135aa576135a9612ec8565b5b600085013567ffffffffffffffff8111156135c8576135c7612ecd565b5b6135d487828801612fea565b945050602085013567ffffffffffffffff8111156135f5576135f4612ecd565b5b61360187828801612fea565b935050604085013567ffffffffffffffff81111561362257613621612ecd565b5b61362e87828801612fea565b925050606085013567ffffffffffffffff81111561364f5761364e612ecd565b5b61365b87828801612fea565b91505092959194509250565b6136708161308d565b811461367b57600080fd5b50565b60008135905061368d81613667565b92915050565b6000806000806000806000806000806101408b8d0312156136b7576136b6612ec8565b5b60008b013567ffffffffffffffff8111156136d5576136d4612ecd565b5b6136e18d828e01612fea565b9a505060208b013567ffffffffffffffff81111561370257613701612ecd565b5b61370e8d828e01612fea565b99505060408b013567ffffffffffffffff81111561372f5761372e612ecd565b5b61373b8d828e01612fea565b98505060608b013567ffffffffffffffff81111561375c5761375b612ecd565b5b6137688d828e01612fea565b97505060808b013567ffffffffffffffff81111561378957613788612ecd565b5b6137958d828e01612fea565b96505060a06137a68d828e0161367e565b95505060c06137b78d828e0161367e565b94505060e06137c88d828e0161367e565b9350506101008b013567ffffffffffffffff8111156137ea576137e9612ecd565b5b6137f68d828e01612fea565b9250506101208b013567ffffffffffffffff81111561381857613817612ecd565b5b6138248d828e01612fea565b9150509295989b9194979a5092959850565b600081905092915050565b600061384c826130a6565b6138568185613836565b93506138668185602086016130c2565b80840191505092915050565b600061387e8284613841565b915081905092915050565b7f4e487b7100000000000000000000000000000000000000000000000000000000600052602260045260246000fd5b600060028204905060018216806138d057607f821691505b6020821081036138e3576138e2613889565b5b50919050565b7f4f72646572206d75737420626520657869737400000000000000000000000000600082015250565b600061391f601383613268565b915061392a826138e9565b602082019050919050565b6000602082019050818103600083015261394e81613912565b9050919050565b7f5368697070696e672063656e746572206d757374206265206578697374000000600082015250565b600061398b601d83613268565b915061399682613955565b602082019050919050565b600060208201905081810360008301526139ba8161397e565b9050919050565b7f4d6f76696e6720646174652063616e6e6f7420626520656d7074790000000000600082015250565b60006139f7601b83613268565b9150613a02826139c1565b602082019050919050565b60006020820190508181036000830152613a26816139ea565b9050919050565b7f5368697070696e672043656e7465723a00000000000000000000000000000000600082015250565b6000613a63601083613836565b9150613a6e82613a2d565b601082019050919050565b6000613a8482613a56565b9150613a908284613841565b915081905092915050565b60008190508160005260206000209050919050565b60006020601f8301049050919050565b600082821b905092915050565b600060088302613afd7fffffffffffffffffffffffffffffffffffffffffffffffffffffffffffffffff82613ac0565b613b078683613ac0565b95508019841693508086168417925050509392505050565b6000819050919050565b6000613b44613b3f613b3a8461308d565b613b1f565b61308d565b9050919050565b6000819050919050565b613b5e83613b29565b613b72613b6a82613b4b565b848454613acd565b825550505050565b600090565b613b87613b7a565b613b92818484613b55565b505050565b5b81811015613bb657613bab600082613b7f565b600181019050613b98565b5050565b601f821115613bfb57613bcc81613a9b565b613bd584613ab0565b81016020851015613be4578190505b613bf8613bf085613ab0565b830182613b97565b50505b505050565b600082821c905092915050565b6000613c1e60001984600802613c00565b1980831691505092915050565b6000613c378383613c0d565b9150826002028217905092915050565b613c50826130a6565b67ffffffffffffffff811115613c6957613c68612eed565b5b613c7382546138b8565b613c7e828285613bba565b600060209050601f831160018114613cb15760008415613c9f578287015190505b613ca98582613c2b565b865550613d11565b601f198416613cbf86613a9b565b60005b82811015613ce757848901518255600182019150602085019450602081019050613cc2565b86831015613d045784890151613d00601f891682613c0d565b8355505b6001600288020188555050505b505050505050565b7f4e487b7100000000000000000000000000000000000000000000000000000000600052602160045260246000fd5b7f4f72646572206d75737420626520696e2073797374656d000000000000000000600082015250565b6000613d7e601783613268565b9150613d8982613d48565b602082019050919050565b60006020820190508181036000830152613dad81613d71565b9050919050565b7f43616e63656c6564206461746520697320726571756972656400000000000000600082015250565b6000613dea601983613268565b9150613df582613db4565b602082019050919050565b60006020820190508181036000830152613e1981613ddd565b9050919050565b7f43616e63656c65643a0000000000000000000000000000000000000000000000600082015250565b6000613e56600983613836565b9150613e6182613e20565b600982019050919050565b6000613e7782613e49565b9150613e838284613841565b915081905092915050565b7f437573746f6d6572206d75737420626520657869737400000000000000000000600082015250565b6000613ec4601683613268565b9150613ecf82613e8e565b602082019050919050565b60006020820190508181036000830152613ef381613eb7565b9050919050565b7f437573746f6d65723a0000000000000000000000000000000000000000000000600082015250565b6000613f30600983613836565b9150613f3b82613efa565b600982019050919050565b6000613f5182613f23565b9150613f5d8284613841565b915081905092915050565b7f53746f7265686f757365206d7573742062652065786973740000000000000000600082015250565b6000613f9e601883613268565b9150613fa982613f68565b602082019050919050565b60006020820190508181036000830152613fcd81613f91565b9050919050565b7f4d6f76696e672064617465206973207265717569726564000000000000000000600082015250565b600061400a601783613268565b915061401582613fd4565b602082019050919050565b6000602082019050818103600083015261403981613ffd565b9050919050565b7f53746f7265686f7573653a000000000000000000000000000000000000000000600082015250565b6000614076600b83613836565b915061408182614040565b600b82019050919050565b600061409782614069565b91506140a38284613841565b915081905092915050565b7f456d61696c206973207265717569726564000000000000000000000000000000600082015250565b60006140e4601183613268565b91506140ef826140ae565b602082019050919050565b60006020820190508181036000830152614113816140d7565b9050919050565b7f456d61696c20616c726561647920657869737400000000000000000000000000600082015250565b6000614150601383613268565b915061415b8261411a565b602082019050919050565b6000602082019050818103600083015261417f81614143565b9050919050565b7f506f736974696f6e206973207265717569726564000000000000000000000000600082015250565b60006141bc601483613268565b91506141c782614186565b602082019050919050565b600060208201905081810360008301526141eb816141af565b9050919050565b7f50686f6e656e756d626572206973207265717569726564000000000000000000600082015250565b6000614228601783613268565b9150614233826141f2565b602082019050919050565b600060208201905081810360008301526142578161421b565b9050919050565b7f506c6561736520656e74657220313020646967697473206d6f62696c65206e7560008201527f6d6265722c206f6e6c7900000000000000000000000000000000000000000000602082015250565b60006142ba602a83613268565b91506142c58261425e565b604082019050919050565b600060208201905081810360008301526142e9816142ad565b9050919050565b7f4e616d6520697320726571756972656400000000000000000000000000000000600082015250565b6000614326601083613268565b9150614331826142f0565b602082019050919050565b6000602082019050818103600083015261435581614319565b9050919050565b7f4164647265737320697320726571756972656400000000000000000000000000600082015250565b6000614392601383613268565b915061439d8261435c565b602082019050919050565b600060208201905081810360008301526143c181614385565b9050919050565b7f437573746f6d657220646f6573206e6f74206578697374000000000000000000600082015250565b60006143fe601783613268565b9150614409826143c8565b602082019050919050565b6000602082019050818103600083015261442d816143f1565b9050919050565b7f4f72646572494420697320726571756972656400000000000000000000000000600082015250565b600061446a601383613268565b915061447582614434565b602082019050919050565b600060208201905081810360008301526144998161445d565b9050919050565b7f4f726465722077697468207468652073616d6520494420616c7265616479206560008201527f7869737473000000000000000000000000000000000000000000000000000000602082015250565b60006144fc602583613268565b9150614507826144a0565b604082019050919050565b6000602082019050818103600083015261452b816144ef565b9050919050565b600081549050614541816138b8565b9050919050565b81810361455657505061462e565b61455f82614532565b67ffffffffffffffff81111561457857614577612eed565b5b61458282546138b8565b61458d828285613bba565b6000601f8311600181146145bc57600084156145aa578287015490505b6145b48582613c2b565b865550614627565b601f1984166145ca87613a9b565b96506145d586613a9b565b60005b828110156145fd578489015482556001820191506001850194506020810190506145d8565b8683101561461a5784890154614616601f891682613c0d565b8355505b6001600288020188555050505b5050505050505b56fea264697066735822122071444b2fc52c587681b361990b0a508df5e59ec2eabe68b0a5ea53a90370168964736f6c63430008130033",
  "linkReferences": {},
  "deployedLinkReferences": {}
}